:100000000C9406150C9430150C9430150C94301586
:100010000C9430150C9430150C9430150C9430154C
:100020000C9430150C9430150C9430150C9430153C
:100030000C9430150C94F5690C9430150C94301513
:100040000C9430150C9495A90C94AFCA0C943015EF
:100050000C94333E0C9430150C9430150C943015E0
:100060000C9430150C9430150C9430150C943015FC
:100070000C9430150C9430150C9430150C943015EC
:100080000C9430150C9430150C9430153263356394
:1000900028632C634C634C6339633D63436347635C
:1000A00049674E6753675D678B678B6767676F67E5
:1000B00077678167084AD73B3BCE016E84BCBFFDA2
:1000C000C12F3D6C74319ABD56833DDA3D00C77F28
:1000D00011BED9E4BB4C3E916BAAAABE00000080C1
:1000E0003F05A84CCDB2D44EB93836A9020C50B950
:1000F000918688083CA6AAAA2ABE000000803F007C
:10010000434F4D4D554E49434154494F4E00445283
:100110005952554E004552524F525300494E464F88
:10012000004543484F0020746F6F206C6F6E67204E
:10013000657874727573696F6E2070726576656E1E
:100140007465640A0020636F6C642065787472754E
:1001500073696F6E2070726576656E7465640A00EF
:1001600047322F47332062616420706172616D6590
:10017000746572730A00536C6565702E2E2E0043F1
:100180006C69636B20746F20726573756D652E2EBC
:100190002E004E6F206D6F76652E00456E642066D2
:1001A000696C65206C6973740A00426567696E202A
:1001B00066696C65206C6973740A00286E6F20662E
:1001C000696C6529005344207072696E74696E67AA
:1001D000206279746520004E6F7420534420707241
:1001E000696E74696E670A0043757272656E742079
:1001F00066696C653A200046696C652064656C65CB
:100200007465643A0044656C6574696F6E2066615C
:10021000696C65642C2046696C653A200025697319
:100220000025696D20256973002569682025696DA1
:100230002025697300256964202569682025696D7A
:10024000202569730025697920256964202569685E
:100250002025696D20256973005072696E742074C1
:10026000696D653A200021011C0115010E01000194
:100270006F66660044454255473A004B494C4C4531
:10028000442E20006F6B0020573A004520436F6FCB
:100290006C696E672E2E2E00452048656174696E6C
:1002A000672E2E2E0020573A0042656420636F6F40
:1002B0006C696E672E2E2E0042656420686561743D
:1002C000696E672E2E2E003344205072696E74655D
:1002D00072204F66662E00544845524D414C5F5087
:1002E000524F54454354494F4E004155544F524587
:1002F000504F52545F53445F53544154555300453B
:100300004D455247454E43595F5041525345520067
:10031000434153455F4C494748545F42524947481F
:10032000544E45535300544F47474C455F4C494743
:1003300048545300534F4654574152455F504F570E
:100340004552004255494C445F50455243454E5436
:10035000004C4556454C494E475F44415441005A74
:100360005F50524F4245004155544F4C4556454C05
:10037000005052494E545F4A4F420050524F47522C
:10038000455353004155544F5245504F52545F54BA
:10039000454D5000564F4C554D455452494300452C
:1003A0004550524F4D0053455249414C5F584F4EB6
:1003B0005F584F4646004649524D574152455F4EA1
:1003C000414D453A4D61726C696E20312E312E39A6
:1003D00020284769746875622920534F5552434558
:1003E0005F434F44455F55524C3A68747470733A9A
:1003F0002F2F6769746875622E636F6D2F4D617260
:100400006C696E4669726D776172652F4D61726CB1
:10041000696E2050524F544F434F4C5F56455253D4
:10042000494F4E3A312E30204D414348494E455FA9
:10043000545950453A3344205072696E74657220A5
:1004400045585452554445525F434F554E543A31E6
:1004500020555549443A63656465326132662D34EE
:100460003161322D343734382D396231322D6335D4
:10047000356336326633363766660A002F2F200022
:100480007A5F6D696E3A2000795F6D696E3A20007F
:10049000785F6D696E3A20005265706F7274696E94
:1004A0006720656E6473746F702073746174757304
:1004B0000A004D31343520533C696E6465783E2026
:1004C0006F7574206F662072616E67652028302D0D
:1004D00031290A00205400205200416363656C6595
:1004E000726174696F6E3A205000486F6D65202507
:1004F00073257325732066697273740020666972B0
:1005000073740A005A0059005800486F6D65200046
:100510004F666673657473206170706C6965640002
:100520004572723A20546F6F206661722100546FD9
:100530006F206661722066726F6D207265666572EB
:10054000656E636520706F696E740A00205A002022
:100550005900580020204D61783A2000205A002090
:100560005900580020204D696E3A20004F6E20003F
:100570004F666600536F667420656E6473746F70A7
:10058000733A200000010F150E12FFFFFFFF161730
:100590000E13FFFFFFFF03021A14FFFFFFFFFFFF11
:1005A000FF0C04FFFFFF01000EFFFFFF0C190DFF02
:1005B0001820643A0020693A0020703A00496E76AB
:1005C000616C69642065787472756465720A004EA6
:1005D0006F2063617365206C696768740A00454524
:1005E00050524F4D204F4B0A00416374697665208D
:1005F00045787472756465723A2000496E76616C54
:1006000069642065787472756465720A004E6F20A3
:10061000436865636B73756D2077697468206C69D6
:100620006E65206E756D6265722C204C617374204E
:100630004C696E653A20004B494C4C45442E2000D5
:1006400053544F505045442E20005072696E7465CB
:10065000722073746F707065642064756520746FA8
:10066000206572726F72732E2046697820746865F7
:10067000206572726F7220616E6420757365204D03
:1006800039393920746F20726573746172742E2049
:100690002854656D70657261747572652069732088
:1006A00072657365742E20536574206974206166C9
:1006B0007465722072657374617274696E67290A59
:1006C000004E6F20436865636B73756D20776974A6
:1006D00068206C696E65206E756D6265722C204CA9
:1006E000617374204C696E653A2000636865636BC2
:1006F00073756D206D69736D617463682C204C6136
:100700007374204C696E653A20004C696E65204E0A
:10071000756D626572206973206E6F74204C617311
:1007200074204C696E65204E756D6265722B312C9C
:10073000204C617374204C696E653A20004D313154
:1007400030004D333100534420726561642065727E
:10075000726F720A00446F6E65207072696E746900
:100760006E672066696C650A0020496E76616C6967
:10077000642065787472756465722000000004C29C
:10078000000020C10000000000005C43000048435E
:1007900000007043486F6D696E67206661696C6523
:1007A000640050726F7465637465642050696E0AEA
:1007B00000205A3A0020593A0020436F756E742089
:1007C000583A0020453A00205A3A0020593A005839
:1007D0003A003A004361703A0020466C6F773A2045
:1007E0000043290A0061626C656420286D696E20EF
:1007F00074656D702000436F6C6420657874727549
:1008000064657320617265200023646566696E65A6
:100810002044454641554C545F4B64200023646599
:1008200066696E652044454641554C545F4B6920CE
:100830000023646566696E652044454641554C5405
:100840005F4B702000504944204175746F74756E81
:10085000652066696E69736865642120507574202F
:10086000746865206C617374204B702C204B692078
:10087000616E64204B6420636F6E7374616E747379
:100880002066726F6D2062656C6F7720696E746F81
:1008900020436F6E66696775726174696F6E2E684A
:1008A0000A00504944204175746F74756E65206666
:1008B00061696C6564212074696D656F75740A00E7
:1008C000453120544845524D414C2052554E4157D8
:1008D000415900546865726D616C2052756E617784
:1008E00061790045312048656174696E67206661F1
:1008F000696C65640048656174696E67206661694A
:100900006C656400504944204175746F74756E6560
:10091000206661696C6564212054656D7065726143
:100920007475726520746F6F20686967680A0020AB
:100930004B643A2000204B693A2000204B703A204B
:10094000000A20436C617373696320504944200A94
:10095000002054753A2000204B753A2000206D612C
:10096000783A2000206D696E3A200020643A200019
:1009700020626961733A2000504944204175746FC8
:1009800074756E65206661696C65642120426164DE
:10099000206578747275646572206E756D6265721B
:1009A0000A00504944204175746F74756E65207358
:1009B000746172740A00466C6F7700466C6F770042
:1009C00046616E2073706565640046616E207370C9
:1009D0006565640042656400426564004E6F7A7A22
:1009E0006C65004E6F7A7A6C6500537065656400C3
:1009F0005370656564004D61696E0050726568658D
:100A0000617420504C4120456E64005072656865E9
:100A1000617420504C4120426564005072656865E5
:100A2000617420504C4100507265706172650050D5
:100A30007265686561742041425320456E640050C0
:100A400072656865617420414253204265640050BC
:100A5000726568656174204142530050726570612F
:100A60007265004D343238005072656865617420DB
:100A7000504C4100436F6F6C646F776E005072652D
:100A800068656174204142530044697361626C651A
:100A9000207374657070657273004D38340053654F
:100AA0007420686F6D65206F6666736574730041AE
:100AB00075746F20686F6D6500473238004D6F7632
:100AC000652061786973004D61696E004D6F7665D0
:100AD0002058004D6F76652059004D6F7665205A7D
:100AE000004578747275646572004D6F76652030CC
:100AF0002E316D6D004D6F766520316D6D004D6F3F
:100B000076652031306D6D004D6F766520617869B6
:100B100073004578747275646572004D6F76652058
:100B20005A004D6F76652059004D6F76652058004C
:100B30004578747275646572004D6F7665205A0051
:100B40004D6F76652059004D6F76652058005072C4
:100B5000657061726500496E697469616C697A6576
:100B600020454550524F4D00436F6E74726F6C00BC
:100B7000526573746F7265206661696C7361666536
:100B8000004C6F61642073657474696E677300490B
:100B90006E697469616C697A6520454550524F4DA4
:100BA0000053746F72652073657474696E677300A7
:100BB00046696C616D656E74004D6F74696F6E008F
:100BC00054656D7065726174757265004D61696E12
:100BD00000507265686561742041425320636F6EF6
:100BE00066005072656865617420504C4120636FE7
:100BF0006E66005049442D44005049442D44005035
:100C000049442D49005049442D49005049442D5034
:100C1000005049442D500020082046616374002094
:100C2000082046616374002008204D617800200888
:100C3000204D6178002008204D6178002008204D6B
:100C4000696E002008204D696E002008204D696EF5
:100C5000004F6666004F6E20004175746F74656DBD
:100C6000700046616E2073706565640046616E2099
:100C700073706565640042656400426564004E6F90
:100C80007A7A6C65004E6F7A7A6C6500436F6E7489
:100C9000726F6C0053746F72652073657474696E43
:100CA00067730042656400426564004E6F7A7A6C37
:100CB00065004E6F7A7A6C650046616E20737065D0
:100CC00065640046616E2073706565640054656DEF
:100CD000706572617475726500454550524F4D20C4
:100CE0006461746173697A65206572726F722E0A2D
:100CF00000290A002062797465733B2063726320C7
:100D00000053657474696E67732053746F72656401
:100D1000202800290A002062797465733B206372E1
:100D20006320002073746F72656420736574746946
:100D30006E67732072657472696576656420280039
:100D4000202863616C63756C6174656429210A00F5
:100D500020213D2000454550524F4D204352432015
:100D60006D69736D61746368202D202873746F72D0
:100D700065642920002053697A653A2000496E6431
:100D800065783A2000204D61726C696E3D563535AC
:100D9000290A0028454550524F4D3D0045455052C7
:100DA0004F4D2076657273696F6E206D69736D614A
:100DB000746368200048617264636F6465642044F2
:100DC000656661756C742053657474696E67732011
:100DD0004C6F616465640A00D0070000D007000012
:100DE00064000000102700000000C8430000C84352
:100DF00000000041000048420000C8420000C84214
:100E00000000C8430000BE427C3C3E5E2B3D3F2FAD
:100E10005B5D3B2C2A225C004572726F72207772F8
:100E20006974696E6720746F20454550524F4D219B
:100E30000A0000002100240027002A0000002200F0
:100E4000250028002B000000200023002600290098
:100E50000202020202020202040404040404040462
:100E60000303030303030303010101010101010162
:100E70000102040810204080010204081020408074
:100E80000102040810204080804020100804020164
:100E90000000000102000000000000000403080739
:100EA0000000000000000000000000000000000042
:100EB0004D3234004D323320257300556E6B6E6F0A
:100EC000776E20636F6D6D616E643A20220053442B
:100ED0002063617264206F6B0A006F70656E526FE1
:100EE0006F74206661696C65640A00766F6C756D5D
:100EF000652E696E6974206661696C65640A0053C9
:100F00004420696E6974206661696C0A0024F4D417
:100F10003050C38E20C2A24017828B7011127A917A
:100F20000D816CD90AA861E108C758660761514371
:100F3000061E4B5D05C145A7041A411104093D98E1
:100F400003713931034036DB0265339102D43054EA
:100F500002802E1D02632CEE01752AC501B028A067
:100F600001102781018F2564012B244B01E02234DD
:100F700001AC211F018D200D01801FFC00841EED9E
:100F800000971DDF00B81CD200E61BC600201BBC6A
:100F900000641AB200B219A8000A19A0006A1899D0
:100FA00000D117910040178B00B516840031167ED2
:100FB00000B31579003A157300C7146F0058146A0E
:100FC00000EE1366008813630025135E00C7125BF2
:100FD000006C12570015125400C111510070114FCE
:100FE0000021114B00D61049008D104700461044D7
:100FF0000002104200C00F4000800F3E00420F3C34
:1010000000060F3B00CB0E3800930E37005C0E3508
:1010100000270E3400F30D3200C10D3100900D3069
:1010200000600D2E00320D2D00050D2C00D90C2B6B
:1010300000AE0C2900850C29005C0C2700350C271C
:10104000000E0C2600E80B2400C40B2400A00B2388
:10105000007D0B23005A0B2100390B2100180B20B7
:1010600000F80A1F00D90A1E00BB0A1E009D0A1DB7
:1010700000800A1D00630A1C00470A1B002C0A1B83
:1010800000110A1A00F7091A00DD091900C409192C
:1010900000AB091900920917007B091800630917B2
:1010A000004C09160036091600200916000A091519
:1010B00000F5081500E0081400CC081400B8081466
:1010C00000A4081400900813007D0812006B081398
:1010D00000580812004608120034081100230811B5
:1010E000001208110001081100F0071000E00710BD
:1010F00000D0071000C0071000B0070F00A10710B4
:101100000091070E0083070F0074070F0065070E9C
:101110000057070E0049070E003B070D002E070E73
:101120000020070D0013070D0006070D00F9060C3F
:1011300000ED060D00E0060C00D4060C00C8060CFD
:1011400000BC060C00B0060C00A4060B0099060CAF
:10115000008D060B0082060B0077060B006C060B59
:101160000061060A0057060B004C060A0042060AF8
:101170000038060A002E060A0024060A001A060A8B
:10118000001006090007060A00FD050900F405091C
:1011900000EB050900E2050900D9050900D00509A1
:1011A00000C7050900BE050900B5050800AD050822
:1011B00000A50509009C050800940508008C050899
:1011C00000840508007C050800740508006C05070C
:1011D00000650508005D050700560508004E050777
:1011E00000470507004005080038050700310507DE
:1011F000002A050700230507001C05060016050741
:10120000000F0507000805060002050700FB04069D
:1012100000F5040700EE040600E8040600E20407F7
:1012200000DB040600D5040600CF040600C904064E
:1012300000C3040600BD040600B7040600B104059F
:1012400000AC040600A6040600A00405009B0406EA
:101250000095040500900406008A04050085040535
:1012600000800406007A040500750405007004057A
:10127000006B04050066040500610405005C0405BC
:101280000057040500520405004D040500480405FC
:1012900000430405003E0404003A0405003504053B
:1012A00000300404002C0405002704040023040576
:1012B000001E0404001A04040016040500110404AE
:1012C000000D0404000904050004040400000404E3
:1012D00000FC030400F8030400F4030400F003041A
:1012E00000EC030400E8030400E4030400E003044A
:1012F00000DC030400D8030400D4030400D003047A
:1013000000CC030400C8030300C503030024F40455
:10131000D9201BC40C5C0E9804C4095F02650771D8
:1013200001F405F900FB04B30048048700C1036918
:10133000005803550003034500BE023A0084023101
:101340000053022A002902250004022000E4011CA7
:1013500000C8011900AF011700980114008401139F
:1013600000710110006101100051010E0043010DD8
:101370000036010B002B010B0020010B00150109A9
:10138000000C01090003010800FB000800F300083D
:1013900000EB000700E4000600DE000600D80006AF
:1013A00000D2000600CC000500C7000500C2000501
:1013B00000BD000400B9000400B5000400B1000441
:1013C00000AD000400A9000400A5000300A2000372
:1013D000009F0004009B000300980003009500029A
:1013E0000093000300900003008D0002008B0003B7
:1013F00000880002008600020084000300810002D1
:10140000007F0002007D0002007B000200790002E4
:1014100000770001007600020074000200720001F3
:1014200000710002006F0002006D0001006C0002FC
:10143000006A000100690002006700010066000107
:10144000006500010064000200620001006100010B
:1014500000600001005F0002005D0001005C00010F
:10146000005B0001005A0001005900010058000112
:101470000057000100560001005500010054000112
:101480000053000000530001005200010051000110
:1014900000500001004F0001004E0000004E00010E
:1014A000004D0001004C0001004B0000004B00010A
:1014B000004A000100490001004800000048000106
:1014C0000047000100460000004600010045000002
:1014D00000450001004400010043000000430001FA
:1014E00000420000004200010041000000410001F4
:1014F00000400001003F0000003F0001003E0000EE
:10150000003E0001003D0000003D0001003C0000E5
:10151000003C0000003C0001003B0000003B0001DB
:10152000003A0000003A00010039000000390001D3
:1015300000380000003800000038000100370000CB
:1015400000370001003600000036000000360001C0
:1015500000350000003500000035000100340000B7
:1015600000340000003400010033000000330000AC
:1015700000330001003200000032000000320001A0
:101580000031000000310000003100010030000097
:101590000030000000300001002F0000002F00008C
:1015A000002F0000002F0001002E0000002E000080
:1015B000002E0001002D0000002D0000002D000075
:1015C000002D0001002C0000002C0000002C000069
:1015D000002C0001002B0000002B0000002B00005D
:1015E000002B0001002A0000002A0000002A000051
:1015F000002A000100290000002900000029000045
:101600000029000000290001002800000028000037
:10161000002800000028000000280001002700002A
:10162000002700000027000000270000002700011D
:101630000026000000260000002600000026000012
:101640000026000100250000002500000025000004
:1016500000250000002500000025000100240000F6
:1016600000240000002400000024000000240001E9
:1016700000230000002300000023000000230000DE
:1016800000230000002300000023000100220000CE
:1016900000220000002200000022000000220000C2
:1016A00000220001002100000021000000210000B4
:1016B00000210000002100000021000000210001A5
:1016C000002000000020000000200000002000009A
:1016D0000020000000200000002000000020000189
:1016E000001F0000001F0000001F0000001F00007E
:1016F000001F0000001F0000001F0001001E00006E
:10170000001E0000001E0000001E00000004370044
:10171000001E290000511B00005810000010090095
:1017200000CC0400007802000041010000577269FB
:1017300074696E6720746F2066696C653A20006F6B
:1017400070656E206661696C65642C2046696C6505
:101750003A20006F70656E206661696C65642C20AC
:1017600046696C653A200046696C652073656C6556
:10177000637465640A002053697A653A20004669FB
:101780006C65206F70656E65643A20002066696C38
:10179000653A2000646F696E670066726573680061
:1017A0004E6F772000454E4420535542524F5554BA
:1017B000494E450A002220706F730022207061722A
:1017C000656E743A2200535542524F5554494E4566
:1017D0002043414C4C207461726765743A22004B7F
:1017E000494C4C45442E2000747279696E67207410
:1017F0006F2063616C6C207375622D67636F646525
:101800002066696C6573207769746820746F6F2037
:101810006D616E79206C6576656C732E204D415834
:10182000206C6576656C2069733A004572726F7240
:101830003A0043616E6E6F74206F70656E20737531
:101840006264697220006563686F3A006F70656E4C
:10185000206661696C65642C2046696C653A2000DD
:1018600000060900FE0701920321207FFF07FF0702
:10187000FF000000060000010707060200808080CC
:1018800080800080030202060105A0A0050707066C
:1018900000005050F850F85050050707060000208F
:1018A00078A07028F020050707060000C0C81020A7
:1018B0004098180507070600006090A040A89068AF
:1018C000020303060104C04080030707060100204D
:1018D00040808080402003070706010080402020D0
:1018E00020408005050506000120A870A8200505F8
:1018F000050600012020F820200203030602FFC095
:101900004080050101060003F8020202060200C041
:10191000C0050505060001081020408005070706E0
:1019200000007088888888887003070706010040D7
:10193000C040404040E0050707060000708808707E
:101940008080F8050707060000F81020100808F04E
:1019500005070706000010305090F8101005070723
:10196000060000F880F008088870050707060000E8
:10197000708080F0888870050707060000F808105E
:1019800020202020050707060000708888708888BE
:10199000700507070600007088887808087002053F
:1019A00005060200C0C000C0C00206060602FFC055
:1019B000C000C0408004070706000010204080409F
:1019C0002010050303060002F800F80407070601CB
:1019D0000080402010204080050707060000708826
:1019E000081020002005070706000070880868A876
:1019F000A870050707060000708888F888888805A1
:101A00000707060000F08888F08888F005070706B9
:101A1000000070888080808870050707060000F04D
:101A20008888888888F0050707060000F88080F01D
:101A30008080F8050707060000F88080F08080802D
:101A4000050707060000708880B8888870050707BA
:101A5000060000888888F888888801070706020041
:101A60008080808080808005070706000038101085
:101A7000101090600507070600008890A0C0A09095
:101A800088050707060000808080808080F80507B1
:101A90000706000088D8A8888888880507070600F8
:101AA000008888C8A89888880507070600007088FD
:101AB0008888888870050707060000F08888F0800D
:101AC000808005070706000070888888A890680550
:101AD0000707060000F08888F0A090880507070631
:101AE0000000788080700808F0050707060000F8FD
:101AF00020202020202005070706000088888888ED
:101B00008888700507070600008888888888502024
:101B10000507070600008888888888A850050707F9
:101B200006000088885020508888050707060000B6
:101B300088888850202020050707060000F8081034
:101B4000204080F8030707060100E0808080808045
:101B5000E005050506000180402010080307070680
:101B60000100E02020202020E005030306000420DF
:101B70005088050101060000F802020206020580F5
:101B800040050505060000700878887805070706F7
:101B900000008080B0C88888F00505050600007048
:101BA0008080887005070706000008086898888804
:101BB000780505050600007088F88070050707069F
:101BC00000003048E0404040400506060600FF7037
:101BD00088887808700507070600008080B0C888EC
:101BE00088880107070602008000808080808003CB
:101BF00008080601FF200020202020A0400407073D
:101C0000060000808090A0C0A09003070706010096
:101C1000C04040404040E0050505060000D0A8A8AF
:101C2000A8A8050505060000B0C888888805050530
:101C300006000070888888700506060600FFF08898
:101C400088F080800506060600FF788888780808F6
:101C5000050505060000B0C8808080050505060062
:101C60000070807008F00407070600004040E04064
:101C700040403005050506000088888898680505FD
:101C800005060000888888502005050506000088A4
:101C900088A8A85005050506000088502050880532
:101CA00006060600FF888888780870050505060086
:101CB00000F8102040F8030707060100204040808C
:101CC00040402001070706020080808080808080DD
:101CD00003070706010080404020404080050202C3
:101CE00006000268900000000600004B494C4C457D
:101CF000442E2000202D20496E76616C6964206599
:101D000078747275646572206E756D6265722021DB
:101D10000A001FFFFFFFFFFFFF600000000001FF40
:101D2000400000000000FF8000000000007F83CF23
:101D300000000C303F87FF80000C301F8679800048
:101D40000C000F8C30C7838C30E78C30CFC7CC3180
:101D5000F38C30DCECEC33B98C30D86C6C33198CF0
:101D600030D06C0C33198C30D86C0C33198C30DCBF
:101D70006C0E3B198C30CF7C079F198C30C77C03CD
:101D80008F19400000000000026000000000000603
:101D90001FFFFFFFFFFFF82020506C616E6E657221
:101DA00042756666657242797465733A2000204612
:101DB000726565204D656D6F72793A2000436F6DD5
:101DC00070696C65643A2041756720323220323088
:101DD00031380A00207C20417574686F723A2028DF
:101DE0004F70656E6661622C206C6F756973290A8D
:101DF00000323031382D30382D303100204C6173B5
:101E00007420557064617465643A2000312E312E5F
:101E1000390A004D61726C696E0020536F667477E9
:101E20006172652052657365740A0020576174639E
:101E300068646F672052657365740A002042726F90
:101E4000776E206F75742052657365740A002045A3
:101E5000787465726E616C2052657365740A005007
:101E60006F77657255700A0073746172740A00614D
:101E700075746F25692E67006572726F72207772B4
:101E80006974696E6720746F2066696C650A004525
:101E90006E6473746F70732025632025632025633F
:101EA00020256300205A3A0020593A0020583A0071
:101EB000656E6473746F7073206869743A200044AF
:101EC0006F6E6520736176696E672066696C652E3A
:101ED0000A004D32390020746F6F206C6F6E6720DE
:101EE000657874727573696F6E2070726576656E51
:101EF0007465640A0020636F6C6420657874727581
:101F000073696F6E2070726576656E7465640A0021
:101F100056652D6A65726B0056652D6A65726B0099
:101F200056652D6A65726B00567A2D6A65726B0074
:101F3000567A2D6A65726B0056792D6A65726B0050
:101F400056792D6A65726B0056792D6A65726B0041
:101F500056782D6A65726B0056782D6A65726B0033
:101F600056782D6A65726B004D6F74696F6E00450F
:101F700073746570732F6D6D004573746570732F86
:101F80006D6D005A73746570732F6D6D005A7374A4
:101F90006570732F6D6D005973746570732F6D6D5F
:101FA000005973746570732F6D6D0058737465708C
:101FB000732F6D6D005873746570732F6D6D004DC8
:101FC0006F74696F6E0053746570732F6D6D004A86
:101FD00065726B00416363656C65726174696F6EF5
:101FE0000056656C6F6369747900436F6E74726F2D
:101FF0006C0046696C2E204469612E0046696C2E87
:10200000204469612E004F6666004F6E2000452017
:10201000696E206D6D3300436F6E74726F6C004398
:10202000616E6E6F7420656E746572207375626484
:1020300069723A2000022E2E0001526566726573A5
:1020400068004D61696E0025753A253032750025AE
:102050003032753A253032750025756420253032CE
:10206000753A2530327500202020202020005A00AB
:102070005900202020200058000920000000000006
:1020800000000000000000003FFFF0000000000022
:102090000000000000000038007000000000000098
:1020A00000000000000030FC3000000000000000D4
:1020B000000000000020FC100000000000000000F4
:1020C0000000000020781000000000000000000068
:1020D00000000020301000000000000000000000A0
:1020E00000002C00D03FC000000000000000208253
:1020F000002E31D07FE00000000000000010410001
:102100002F7BD07FE0000000000000001041002F76
:102110007BD07FE0000000000000002082002E3114
:10212000D03FC0000000000000004104002C00D09F
:102130003FC0000000000000008208002030107F37
:10214000E0000000000000008208002078107FE01E
:102150000000000000000041040020FC107FE000AF
:1021600000000000000020820030FC301F800000D2
:1021700000000000000000003800700F00000000A8
:1021800000000000FFFFC03FFFF00600000000005D
:10219000000000FFFFC00000000000000000000081
:1021A00000000000003FFFF0000000000000000001
:1021B0000000000038007000000000000000000077
:1021C0000000003186300000000000000000000028
:1021D0000000238710000000000000000000000045
:1021E00000278790000000000000000000000000B1
:1021F0002F87D00000000000000000000000002F2A
:1022000003D03FC00000000000000020820020300A
:10221000107FE00000000000000010410020781056
:102220007FE0000000000000001041002078107FD7
:10223000E0000000000000002082002030103FC0BD
:10224000000000000000004104002F03D03FC00048
:102250000000000000008208002F87D07FE000000F
:1022600000000000008208002787907FE000000047
:10227000000000004104002387107FE00000000000
:102280000000002082003186301F80000000000026
:1022900000000000003800700F0000000000000087
:1022A00000FFFFC03FFFF00600000000000000003C
:1022B000FFFFC000000000060900FE000000000053
:1022C00001090008FE000005080806000040F0C8EB
:1022D0008888987810050808060000C0F888888863
:1022E0008888F80505050600012030F8302005082B
:1022F000080600002070F820202020E005090906CB
:1023000000FF2070A8A8B888887020050909060079
:10231000FFE080C0B0A8283028280509090600FF82
:10232000F8A88888888888A8F8050A0A0600FE2088
:102330005050505088A8A88870030303060003403B
:10234000A0406265640A002C2073797374656D2067
:1023500073746F7070656421204865617465725F85
:1023600049443A20004265642068656174696E677B
:10237000206661696C65640048656174696E6720F8
:102380006661696C65640045312048656174696EF9
:1023900067206661696C65640048656174696E6791
:1023A000206661696C656400453120544845524D92
:1023B000414C2052554E415741590042454420540A
:1023C0004845524D414C2052554E415741590054B9
:1023D0006865726D616C2052756E61776179004538
:1023E00031204572723A204D415854454D500045B8
:1023F00072723A204D415854454D50204245440098
:102400004D415854454D5020747269676765726537
:1024100064004531204572723A204D494E54454D75
:1024200050004572723A204D494E54454D5020425D
:102430004544004D494E54454D50207472696767BC
:1024400065726564004D383420582059205A204563
:1024500000202F002042403A0020403A0020286D02
:102460006D290020440020490020204D33303120C8
:1024700050005049442073657474696E67733A0A5A
:102480000020460020420020480020204D313435F5
:102490002053004D6174657269616C2068656174D8
:1024A000757020706172616D65746572733A0A00AF
:1024B000205A0020590020204D3230362058004844
:1024C0006F6D65206F66667365743A0A002045007B
:1024D000205A00205900205800205400205300208A
:1024E000204D32303520420020453C6D61785F65DB
:1024F0005F6A65726B3E0020583C6D61785F785F63
:102500006A65726B3E20593C6D61785F795F6A65E0
:10251000726B3E205A3C6D61785F7A5F6A65726BC0
:102520003E00416476616E6365643A20423C6D69A9
:102530006E5F7365676D656E745F74696D655F75F9
:10254000733E20533C6D696E5F66656564726174AD
:10255000653E20543C6D696E5F74726176656C5F98
:1025600066656564726174653E0020540020520007
:1025700020204D323034205000416363656C657219
:102580006174696F6E2028756E6974732F733229B8
:102590003A20503C7072696E745F616363656C3E93
:1025A00020523C726574726163745F616363656C31
:1025B0003E20543C74726176656C5F616363656C48
:1025C0003E0A00204500205A0020590020204D32AC
:1025D00030312058004D6178696D756D204163631D
:1025E000656C65726174696F6E2028756E697473AD
:1025F0002F7332293A0A00204500205A0020590042
:1026000020204D3230332058004D6178696D756D52
:10261000206665656472617465732028756E6974DF
:10262000732F73293A0A00204500205A00205900D0
:1026300020204D3932205800537465707320706526
:102640007220756E69743A0A0020204D32303020B5
:1026500044300A0020204D323030204400204469AC
:102660007361626C65640A0046696C616D656E74C5
:102670002073657474696E67733A0020204D31349D
:10268000392043203B20556E69747320696E2043C6
:10269000656C736975730A00202047323120202051
:1026A000203B001000C90210012C014001220170E2
:1026B000011801B0010E01F00104015002FA00B04E
:1026C00002F0003003E600D003DC009004D200707A
:1026D00005C800A006BE000008B400B009AA00D0DA
:1026E0000BA000600E960060118C00001582002087
:1026F000197800C01D6E00A0226400B0275A009017
:102700002C500000314600E0343C0010383200907C
:102710003A2800603C1E00A03D1400803E0A0020C4
:102720003F0000506C6561736520726573657400CD
:102730005052494E5445522048414C544544005053
:1027400072696E7465722068616C7465642E206BAA
:10275000696C6C28292063616C6C6564210A0065D2
:102760006E7175657565696E67202200000004C290
:10277000000020C1000000000000C8420000C84264
:1027800000008040000000005761726E696E673A79
:1027900020486F6D696E672042756D7020446976C0
:1027A00069736F72203C20310A000202040000A00D
:1027B000400000A0400000004000007D43000052A7
:1027C0004300007043FFFFFF5654726176206D692D
:1027D0006E005654726176206D696E0056547261B7
:1027E00076206D696E00566D696E00566D696E00DB
:1027F000566D696E00566D6178204500566D6178A2
:10280000204500566D6178204500566D6178205A4C
:1028100000566D6178205A00566D6178205A005636
:102820006D6178205900566D6178205900566D61B0
:1028300078205900566D6178205800566D617820D7
:102840005800566D61782058004D6F74696F6E00A6
:10285000416D6178204500416D6178204500416DF2
:102860006178205A00416D6178205A00416D61788D
:10287000205900416D6178205900416D61782058E0
:1028800000416D6178205800412D74726176656C4D
:1028900000412D74726176656C00412D7265747211
:1028A00061637400412D72657472616374004163E9
:1028B00063656C00416363656C004D6F74696F6E96
:1028C00000526573656E643A20006F6B004B494C93
:1028D0004C45442E20004B494C4C20636175736578
:1028E0006420627920746F6F206D75636820696E53
:1028F0006163746976652074696D65202D20637548
:102900007272656E7420636F6D6D616E643A200043
:102910003344205072696E74657220526561647927
:102920002E005072696E74696E672E2E2E005072E2
:10293000696E7420706175736564005072696E749D
:102940002061626F72746564004D3231004E6F20F9
:1029500053442063617264004368616E676520536D
:10296000442063617264004D3231005072696E74AC
:102970002066726F6D2053440053746F7020707224
:10298000696E7400496E69742E205344206361722D
:102990006400526573756D65207072696E740050C5
:1029A00061757365207072696E7400436F6E747226
:1029B0006F6C00507265706172650054756E6500D1
:1029C000496E666F2073637265656E004E414E49B5
:1029D0004E495459494E46CDCCCC3D0AD7233C17DD
:1029E000B7D13877CC2B329595E6241FB14F0A002A
:1029F0000020410000C84200401C4620BCBE4CCA1A
:102A00001B0E5AAEC59D7400D5CDCBD311241FBE6D
:102A1000CFEFD0E4DEBFCDBF12E0A0E0B1E0E2E452
:102A2000F1EC01E00BBF02C007900D92A236B10796
:102A3000D9F722E1A2E6B2E001C01D92A13BB207A4
:102A4000E1F715E1C5E0D5E104C02197FE010E9440
:102A500033D4C430D107C9F70E948BCE0C9494E0D4
:102A60000C9400002F923F924F925F926F927F9250
:102A70008F929F92AF92BF92CF92DF92EF92FF928E
:102A80000F931F93CF93DF93CDB7DEB7C356D10912
:102A90000FB6F894DEBF0FBECDBF809112128D34F9
:102AA00009F4D8C7843511F40C94582B873411F0ED
:102AB0000C949C2B809110129091111284309105EE
:102AC00009F466C544F497FDC1C7209138018230EE
:102AD000910524F51EC08A35910509F4F8C624F441
:102AE0004C9709F493C5B2C78B35910509F4F3C629
:102AF0008C35910509F0AAC764E5262E61E0362ED3
:102B000074ECC72E71E1D72EE12CF12C00E010E01F
:102B100020C721110C94A12B0C949E2B222311F47D
:102B20000C949E2B11E0029709F010E00E94B03344
:102B300082E50E94A333882309F436C10E94293319
:102B40006B017C0140901B0750901C0760901D0793
:102B500070901E0780911F0790912007A091210778
:102B6000B09122078CA79DA7AEA7BFA72091D01137
:102B70003091D1114091D2115091D31128AB39AB82
:102B80004AAB5BAB8091D4119091D511A091D61135
:102B9000B091D7118CAB9DABAEABBFAB20E030E0BA
:102BA000A901C701B6010E9464DC882309F4D6C4D8
:102BB000A301920168A979A98AA99BA90E9464DC52
:102BC00081110DC02CA53DA54EA55FA56CA97DA9C1
:102BD0008EA99FA90E9464DC882309F4BFC420E069
:102BE00030E0A901C701B6010E9464DC881F882774
:102BF000881F18130BC020E030E040E85FE3289600
:102C00002CAF3DAF4EAF5FAF28970AC080E090E099
:102C1000A0E8BFEB28968CAF9DAFAEAFBFAF2897B3
:102C2000A301920168A979A98AA99BA90E9444D409
:102C30006CAF7DAF8EAF9FAF2CA53DA54EA55FA518
:102C40006CA97DA98EA99FA90E9444D424966CAF3B
:102C50007DAF8EAF9FAF24972CAD3DAD4EAD5FAD38
:102C6000CA01B9010E94CADC4B015C0124962CAD5B
:102C70003DAD4EAD5FAD2497CA01B9010E94CADCDB
:102C80009B01AC01C501B4010E9445D40E94F3D65A
:102C900068AF79AF8AAF9BAF20E030E040E05FE300
:102CA0000E94CADC4B015C01A7019601C701B60175
:102CB0000E94CADC6B017C01A5019401C501B4012D
:102CC0000E94CADC9B01AC01C701B6010E9444D43A
:102CD0000E94F3D69B01AC0128966CAD7DAD8EAD04
:102CE0009FAD28970E94CADC4B015C0128A939A935
:102CF0004AA95BA9C301B2010E9445D420E030E09B
:102D000040E05FE30E94CADC6B017C0124966CAD5D
:102D10007DAD8EAD9FAD2497905828AD39AD4AADAD
:102D20005BAD0E943FD59B01AC01C501B4010E947F
:102D3000CADC9B01AC01C701B6010E9445D4A301C6
:102D400092010E9444D46B017C012CA93DA94EA99B
:102D50005FA96CA57DA58EA59FA50E9445D420E006
:102D600030E040E05FE30E94CADC2B013C0128AD6B
:102D700039AD4AAD5BAD6CAD7DAD8EAD9FAD0E9402
:102D80003FD59B01AC01C501B4010E94CADC9B0187
:102D9000AC01C301B2010E9445D42CA53DA54EA5AE
:102DA0005FA50E9444D414C089E40E94A333882301
:102DB00029F00E9429336B017C0103C0C12CD12C66
:102DC00076018AE40E94A3338823D9F00E94293334
:102DD0006CAB7DAB8EAB9FAB20E030E0A901C701AF
:102DE000B6010E9464DC81111AC020E030E0A90124
:102DF0006CA97DA98EA99FA90E9464DC81110FC0D6
:102E0000ADC320E030E0A901C701B6010E9464DC37
:102E1000882309F4A3C31CAA1DAA1EAA1FAAA701DE
:102E2000960150582CA73DA74EA75FA78CA99DA936
:102E3000AEA9BFA9B05888AB99ABAAABBBABCA01CE
:102E4000B9010E94CADC4B015C0128A939A94AA931
:102E50005BA9CA01B9010E94CADC9B01AC01C50192
:102E6000B4010E9445D40E94F3D664966CAF7DAF46
:102E70008EAF9FAF649720911B0730911C07409144
:102E80001D0750911E0728AF39AF4AAF5BAFA701AE
:102E9000960168AD79AD8AAD9BAD0E9445D4289668
:102EA0006CAF7DAF8EAF9FAF289780911F07909139
:102EB0002007A0912107B09122078CAF9DAFAEAF44
:102EC000BFAF2CA93DA94EA95FA9BC01CD010E94AD
:102ED00045D468966CAF7DAF8EAF9FAF6897209159
:102EE000D0113091D1114091D2115091D31124962B
:102EF0002CAF3DAF4EAF5FAF249728962CAD3DADC4
:102F00004EAD5FAD289724966CAD7DAD8EAD9FAD77
:102F100024970E9444D46B017C018091D41190913C
:102F2000D511A091D611B091D7112C968CAF9DAF31
:102F3000AEAFBFAF2C9768962CAD3DAD4EAD5FAD3B
:102F40006897BC01CD010E9444D44B015C012091E3
:102F5000230730912407409125075091260760965A
:102F60002CAF3DAF4EAF5FAF60976091D8117091BD
:102F7000D9118091DA119091DB110E9444D42B0178
:102F80003C018091DC119091DD11A091DE11B09196
:102F9000DF11A0968CAF9DAFAEAFBFAFA0972091D1
:102FA0002707309128074091290750912A076C96EE
:102FB0002CAF3DAF4EAF5FAF6C97A70196016CA5EC
:102FC0007DA58EA59FA50E94CADCA4966CAF7DAF9F
:102FD0008EAF9FAFA497A501940168A979A98AA98A
:102FE0009BA90E94CADC9B01AC01A4966CAD7DAD8F
:102FF0008EAD9FADA4970E9445D4A4966CAF7DAFD3
:103000008EAF9FAFA497A50194016CA57DA58EA559
:103010009FA50E94CADC4B015C01A701960168A92B
:1030200079A98AA99BA90E94CADC9B01AC01C501B0
:10303000B4010E9444D4A4962CAD3DAD4EAD5FAD1D
:10304000A4970E94C4D46B017C0120E030E0A90168
:103050000E9464DC87FF0AC02BED3FE049EC50E49E
:10306000C701B6010E9445D46B017C01112351F0C8
:103070002BED3FE049EC50E4C701B6010E9444D477
:103080006B017C0120E030E0A901C701B6010E947C
:1030900064DC811124C024962CAD3DAD4EAD5FADF6
:1030A000249768AD79AD8AAD9BAD0E9464DC811137
:1030B00016C02C962CAD3DAD4EAD5FAD2C976CADD2
:1030C0007DAD8EAD9FAD0E9464DC811108C0ABED7B
:1030D000CA2EAFE0DA2EA9ECEA2EA0E4FA2EA70160
:1030E000960164966CAD7DAD8EAD9FAD64970E94E8
:1030F000CADC4B015C0120E030E0A901C301B20150
:103100000E9464DC8823C9F0A5019401C501B401C3
:103110000E94CADC4B015C01A3019201C301B20110
:103120000E94CADC9B01AC01C501B4010E9445D4D8
:103130000E94F3D64B015C010DC020E030E0A901F4
:10314000C501B4010E94A5D687FF04C0B7FAB094A8
:10315000B7F8B0942FE632E143E85AE3C501B40171
:103160000E9464DC87FF02C00C949E2BC501B40151
:103170000E94E7D50E94B8D51B01672B19F42224C1
:103180002394312CB10180E090E00E9469DC4B0176
:103190005C019B01AC01C701B6010E943FD568AF3D
:1031A00079AF8AAF9BAFA5019401C301B2010E9420
:1031B0003FD564966CAF7DAF8EAF9FAF64976C9632
:1031C0002CAD3DAD4EAD5FAD6C97A0966CAD7DADB9
:1031D0008EAD9FADA0970E9444D4A50194010E949A
:1031E0003FD5A0966CAF7DAF8EAF9FAFA09728ADB7
:1031F00039AD4AAD5BADCA01B9010E94CADC20E01D
:1032000030E040E05FE30E94CADC9B01AC0160E07B
:1032100070E080E89FE30E9444D42C966CAF7DAFB1
:103220008EAF9FAF2C9760968CAD9DADAEADBFAD10
:10323000609789879A87AB87BC876C962CAD3DAD2C
:103240004EAD5FAD6C972D873E874F87588B609151
:10325000060170910701072E000C880B990B0E9444
:103260006BDC2091000130910101409102015091ED
:1032700003010E94CADC2AE037ED43E25CE30E94CE
:10328000CADC68A779A78AA79BA70E94CE679B0183
:10329000AC0128533F4F4F4F5F4F60962CAF3DAF6F
:1032A0004EAF5FAF60974CA45DA46EA47FA441E0D5
:1032B00050E022965FAF4EAF229759E15CAF229665
:1032C0002EAD3FAD22972215330509F41CC10E9493
:1032D000E6AD0E94CE67DC01CB0160962CAD3DAD22
:1032E0004EAD5FAD6097821B930BA40BB50BB7FD82
:1032F00010C00E94CE679B01AC0128533F4F4F4F37
:103300005F4F60962CAF3DAF4EAF5FAF60970E94AE
:1033100042C43CAD31503CAF332309F441C02C963C
:103320002CAD3DAD4EAD5FAD2C9768A979A98AA9AA
:103330009BA90E94CADC6B017C0128AD39AD4AAD66
:103340005BADB201C3010E94CADCA70196010E94D5
:1033500045D47B018C012C962CAD3DAD4EAD5FADBF
:103360002C97B201C3010E94CADC4B015C0128AD5D
:1033700039AD4AAD5BAD68A979A98AA99BA90E941C
:10338000CADC9B01AC01C501B4010E9444D42B01ED
:103390003C01C701D80188AB99ABAAABBBAB53C00A
:1033A00022964EAD5FAD2297BA0180E090E00E9478
:1033B00069DC28AD39AD4AAD5BAD0E94CADC4B017A
:1033C0005C010E943AD56B017C01C501B4010E94E9
:1033D000E5D64B015C01A70196016CA57DA58EA5E4
:1033E0009FA50E94CADC2B013C01A50194016CA998
:1033F0007DA98EA99FA90E94CADC9B01AC01C301D3
:10340000B2010E9445D42B013C01A50194016CA599
:103410007DA58EA59FA50E94CADC4B015C01A7017A
:1034200096016CA97DA98EA99FA90E94CADC9B0167
:10343000AC01C501B4010E9444D468AB79AB8AAB3E
:103440009BAB59E15CAF9201A30128966CAD7DADB9
:103450008EAD9FAD28970E9445D469837A838B8374
:103460009C8328A939A94AA95BA968966CAD7DAD52
:103470008EAD9FAD68970E9445D46D837E838F8308
:10348000988764962CAD3DAD4EAD5FAD6497698570
:103490007A858B859C850E9445D469877A878B873E
:1034A0009C87A0962CAD3DAD4EAD5FADA0976D85D0
:1034B0007E858F8598890E9445D46D877E878F870A
:1034C000988B80911401882321F0CE0101960E94EF
:1034D000BFBCE090571018A219A21AA21BA2CE01DD
:1034E00080966C018E01085D1F4F9E01235F3F4F48
:1034F000AE01475F5F4FBE016B5F7F4F4F970E94EA
:10350000BF82811121C0E09057101CA21DA21EA2F3
:103510001FA2DE0194966D018E01085D1F4F2CEDF8
:1035200031E148ED51E164ED71E180ED91E10E94FE
:10353000BF8280E1E0EDF1E1ABE1B7E001900D92F7
:103540008A95E1F70C949E2B2296EEADFFAD229763
:1035500031962296FFAFEEAF2297B1CEEBE2F8E1C3
:1035600084918F010F5F1F4F882321F00E943B340D
:10357000F801F6CFE0E6F1E084918F010F5F1F4F75
:10358000882311F40C949E2B0E943B34F801F4CF55
:1035900080E50E94A333882329F00E94E5326B0165
:1035A0007C0103C0C12CD12C760183E50E94A3339A
:1035B000882361F00E94293320E030E04AE754E498
:1035C0000E94CADC0E94B8D56B017C010E944D723A
:1035D0008091CC03811105C060E086E791E00E94F4
:1035E0001FA40E94CE67C60ED71EE81EF91E0E94B9
:1035F000CE67DC01CB018C199D09AE09BF09B7FD6F
:1036000002C00C949E2B0E9442C4F1CF80910E0701
:103610008770873071F48FE40E94A333882319F0F8
:103620000E94193303C08FE40E945C3381110C9413
:103630009E2B0E944D728091000190910101A091FA
:103640000201B09103018093690290936A02A093F2
:103650006B02B0936C0280910601909107019093E8
:1036600068028093670284E690E09093070180935C
:10367000060111E010930D0788E50E945C33282EA7
:1036800089E50E945C33082F8AE50E945C33382E5E
:10369000211004C0011104C0182705C0011102C087
:1036A00010E001C0182F80E1EBE1F7E0A0EDB1E1FF
:1036B00001900D928A95E1F782E50E94A333882359
:1036C00069F00E9429336B017C0120E030E0A90100
:1036D0000E9464DC882309F4BFC006C0C12CD12C31
:1036E000E0EAEE2EE0E4FE2E111105C0211003C029
:1036F000002309F4C2C0C092D811D092D911E0922F
:10370000DA11F092DB118090230790902407A090AB
:103710002507B0902607A5019401C701B6010E94B4
:10372000A5D618160CF098C080911F07909120071D
:10373000A0912107B09122078CA79DA7AEA7BFA794
:1037400020911B0730911C0740911D0750911E07C7
:1037500028AB39AB4AAB5BAB809100019091010182
:10376000A0910201B09103018CAB9DABAEABBFAB9E
:10377000E0E8F7E24590559065907490A7019601B6
:10378000C501B4010E9464DC87FF12C040920001B1
:10379000509201016092020170920301C0922307CE
:1037A000D0922407E0922507F09226070E94D63097
:1037B00080E090E0A8ECB2E48093000190930101D6
:1037C000A0930201B093030128A939A94AA95BA9D2
:1037D00020931B0730931C0740931D0750931E072F
:1037E0008CA59DA5AEA5BFA580931F07909320072C
:1037F000A0932107B09322070E94D630A70196011B
:1038000060912307709124078091250790912607E6
:103810000E94A5D6181694F440920001509201011E
:103820006092020170920301C0922307D092240794
:10383000E0922507F09226070E94D6300E944D7232
:103840002CA93DA94EA95FA9209300013093010145
:103850004093020150930301111105C0211003C0D0
:10386000011106C00AC080E00E9451BD1123C1F3BE
:1038700081E00E9451BD111102C0332019F082E095
:103880000E9451BD0E94BF3180910C0780930D07AB
:103890008091690290916A02A0916B02B0916C02D2
:1038A0008093000190930101A0930201B093030162
:1038B00080916702909168029093070180930601BE
:1038C00083E080932F010E94463D0C949E2B109222
:1038D00066020C949E2B81E0809366020C949E2BD2
:1038E0000E9429332B013C01133059F0F701EA51B2
:1038F000FD4F20813181428153810E9444D42B01AC
:103900003C01F701E55EF84F20813181428153810E
:10391000C301B2010E9444D44B015C012DEB37E39B
:1039200046E855EB0E94A5D687FD1BC02DEB37E37B
:1039300046E855E3C501B4010E9464DC18168CF01A
:103940001F5FB4E0CB0ED11CE4E0EE0EF11C14308E
:1039500039F1D1018D911D010E94A333882381F398
:10396000BFCF133051F4409227075092280760923E
:10397000290770922A0701E0E3CFA5019401F6011F
:1039800060817181828193810E9445D4D6016D93BB
:103990007D938D939C931397812F0E940231D0CFFA
:1039A000002309F44FC020E030E0A901609127070F
:1039B000709128078091290790912A070E9445D489
:1039C0002091051030910610409107105091081079
:1039D0000E94CADC0E94B2D66093480470934904E6
:1039E00080934A0490934B0490912604809127047D
:1039F000981719F00E94EF7125C00E944D728091B6
:103A00006F0081FB992790F981FF05C080916F00BD
:103A10008D7F80936F0040914804509149046091DC
:103A20004A0470914B04409376035093770360935C
:103A3000780370937903992329F080916F00826055
:103A400080936F000E94463D0C949E2B0E9455640B
:103A50000C949E2B80911012909111128237910537
:103A600009F449C70CF0B9C08A32910509F4A2C41F
:103A70000CF05BC08831910509F452C2ACF582317B
:103A8000910509F460C6BCF497FF02C00C94552B55
:103A9000823091050CF473C1419711F00C94552BB1
:103AA00060E082E991E00E941FA45E985E981598FC
:103AB0005E980C949E2B8531910509F416C23CF456
:103AC000449711F00C94552BEAEAF1E0CDC1863110
:103AD000910509F40EC2479711F00C94552BE09113
:103AE0000E12F0910F120FC28C31910509F4CBC266
:103AF00064F48A31910509F41EC20CF02AC21092B6
:103B00006C040E94B3AF0C949E2B8E31910509F486
:103B1000C4C214F40C949E2B8F31910509F4A4C3F4
:103B2000809709F455C30C94552B8C35910509F4F5
:103B30005AC634F58135910509F4E7C58CF48C3407
:103B4000910509F480C48D34910509F480C48B3447
:103B5000910511F00C94552B0E9479AF0C949E2B7B
:103B60008335910509F4EAC50CF4E4C58435910563
:103B700009F4E9C58535910509F41AC60C94552B4D
:103B80008C36910509F4F7C4ACF48936910509F433
:103B9000FAC434F48836910509F45DC40C94552BAD
:103BA0008A36910509F481C58B36910509F49BC5C8
:103BB0000C94552B8E36910509F47CC40CF424C565
:103BC0008F36910509F489C48037910511F00C9462
:103BD000552B8BE792E00E945CBE8C3D910511F461
:103BE0000C94EC290CF054C08B39910509F4E5C410
:103BF0001CF58737910509F439C774F485379105A9
:103C000009F4D9C60CF0E6C68337910511F00C947F
:103C1000552BE6EBF3E074C68937910509F490C79C
:103C20000CF488C78C38910509F40AC581399105CF
:103C300009F48BC70C94552B8B3C910511F40C9413
:103C4000832684F4883C910511F40C941C26893C4D
:103C5000910511F40C9462268E3B910511F00C94A1
:103C6000552B0CC58D3C910511F40C94152714F4BB
:103C70000C94A0268E3C910511F40C948027833D72
:103C8000910511F00C94552BE6E4F8E10C940E2903
:103C90008A39F1E09F0709F472C49CF58D3231E056
:103CA000930711F40C944B2AA4F4823E910511F46D
:103CB0000C94F9298C3251E0950711F40C94222AC6
:103CC0008D3D910511F00C94552B0E94DA370C9420
:103CD0009E2B8F32A1E09A0711F40C94EF2A14F472
:103CE0000C94EC2A8336E1E09E0711F40C94F22A3E
:103CF0008039914011F00C94552B0E944D720C9418
:103D00009E2B873F21E0920711F40C94112BECF4C9
:103D1000843F41E0940711F40C940B2B3CF48C3A53
:103D2000914011F40C94A2270C94552B853FB1E0DF
:103D30009B0711F40C940E2B863F914011F00C94CC
:103D4000552B0E94D54D0C949E2B8B38F3E09F078A
:103D500011F40C949E2B3CF4883F914011F40C9488
:103D60001D2B0C94552B803A43E0940709F46FC245
:103D7000873E934011F40C94402B0C94552BA0904B
:103D80000E12B0900F1280E50E94A333882359F0E1
:103D90000E94E5326B017C0111E0672B682B692BD7
:103DA00031F410E004C010E0C12CD12C760183E581
:103DB0000E94A333882311F40C94932C0E9429337E
:103DC00020E030E04AE754E40E94CADC0E94B8D503
:103DD0006B017C0111110BC0672B682B692B39F427
:103DE000A114B10421F0D5018C91811102C010E021
:103DF00001C011E00E944D72112329F061E0C5015C
:103E00000E9459A405C060E08FE791E00E941FA4C2
:103E100081E080936310C114D104E104F104E9F05E
:103E20000E94CE67C60ED71EE81EF91E0E94CE67FE
:103E3000DC01CB018C199D09AE09BF09B7FD06C095
:103E40000E94A4C8109263100C949E2B8091631062
:103E50008823B1F30E9442C4E9CF80916310882384
:103E600079F30E9442C4F9CF84918F010F5F1F4FF5
:103E7000882321F00E943B34F801F6CF1092E90626
:103E800040E050E0BA018CE994E00E94195C8BE1BB
:103E9000ECE9F4E0DE01159601900D928A95E1F7C8
:103EA00080919A0490919B049C838B8382EE91E095
:103EB0009A83898340E050E0BE016F5F7F4F80E0CE
:103EC00090E00E94AA75CE0101960E9454BEEBE9D3
:103ED000F1E084918F010F5F1F4F882311F40C9440
:103EE0009E2B0E943B34F801F4CF0E9494680C94FE
:103EF0009E2B10926C0410926D040C949E2B8032B9
:103F000009F41082319680818111F9CF40E061E09F
:103F100080910E1290910F120E94D5770C949E2BD7
:103F200080916D04882319F081E080936C040E94D5
:103F300079AF0C949E2B80916D04882311F40C941E
:103F40009E2B83E50E94A33381110C94982C0C9432
:103F50009E2B83E40E945C33882309F454C0E8EE6E
:103F6000F1E084918F010F5F1F4F882321F00E94A1
:103F70003B34F801F6CF80913706882391F0BE01DB
:103F80006F5F7F4F84E396E00E94F0B98E010F5F70
:103F90001F4FF80181918F01882381F10E943B34EA
:103FA000F8CFEBEBF1E084918F010F5F1F4F882377
:103FB00029F10E943B34F801F6CF8091F80F882355
:103FC00009F4CCC246E6C42E42E0D42EE12CF12CFA
:103FD00020E08091F80F90E00E2C02C09595879517
:103FE0000A94E2F780FDA2C2FFEFEF1AFF0A32E067
:103FF000C30ED11C45E0E416F10459F78AE00E9493
:104000003B340C949E2B80916D04882371F1809138
:104010006C04882351F1E5ECF1E084918F010F5F8E
:104020001F4F882321F00E943B34F801F6CF6091A6
:10403000E5067091E6068091E7069091E8064AE071
:104040000E9430378FE20E943B346091E10670910C
:10405000E2068091E3069091E4064AE00E94303740
:104060008AE00E943B340C949E2BE7EDF1E08491B2
:104070008F010F5F1F4F882311F40C949E2B0E9419
:104080003B34F801F4CF40E060E080910E12909153
:104090000F120E94D5770C949E2B80916D0488237B
:1040A00011F40C949E2B84E396E00E94D65B84E38B
:1040B00096E00E9440BA10926B0410926A0400913C
:1040C0000E1210910F1280916D04882311F40C943C
:1040D0009E2B0E94AE74B801CE0180960E94F673AA
:1040E0008C01892B11F40C949E2B68A179A1611588
:1040F000710511F06C5F7F4F19821C8222E0A801CC
:10410000CE0101960E942C62811102C0F12C1EC0CA
:10411000CE0101960E9464738823C1F36D857E856C
:104120008F85988941E00E94235A882379F3E98991
:1041300020E2E29FF0011124EB54F74F309731F366
:1041400085EE80831C820E94E359F82ECE010196F1
:104150000E943534FF2011F1E7EFF1E084917F01F7
:104160003FEFE31AF30A882321F00E943B34F70162
:10417000F5CFD8018D918D01882319F00E943B3431
:10418000F8CF8AE00E943B341092E5061092E606D2
:104190001092E7061092E8060C949E2BE5E0F2E000
:1041A00084917F01BFEFEB1AFB0A882321F00E9464
:1041B0003B34F701F5CFF80181918F01882319F085
:1041C0000E943B34F8CF8EE20E943B340C949E2B2D
:1041D00080916C0481110E944D7280916D0488233E
:1041E00011F40C949E2B80E50E94A333882319F0D0
:1041F0000E94193303C080E50E945C33182F482FBA
:1042000061E080910E1290910F120E94D57783E5A4
:104210000E94A333882381F00E94F532AB01BC01D8
:104220004093E5065093E6066093E7067093E80630
:1042300084E396E00E94195C80916D04882319F054
:1042400081E080936C0411110C949E2B70CE8091B0
:104250000E1290910F1221E020936B0440E060E079
:104260000E94D5770C949E2B0E9445AF5CE3C52E2F
:10427000D12CE12CF12CA70196010E9458E0762E5A
:10428000672ECA01B901A70196010E9458E06B018F
:104290007C01CA01B90128E130E040E050E00E9411
:1042A00058E04B015C01C9016DE671E00E94ECD35E
:1042B0008E010F5F1F4F6115710599F06F927F920C
:1042C000DF92CF929F928F929F938F937F936F9362
:1042D00085E492E09F938F931F930F930E94FBDBE3
:1042E00012C00097B1F06F927F92DF92CF929F92AF
:1042F0008F929F938F9385E392E09F938F931F9369
:104300000F930E94FBDB0FB6F894DEBF0FBECDBF4C
:1043100036C081149104A104B10479F06F927F92A8
:10432000DF92CF929F928F9289E292E09F938F9338
:104330001F930F930E94FBDBE6CFC114D104E1046D
:10434000F10469F06F927F92DF92CF9281E292E066
:104350009F938F931F930F930E94FBDBD4CF6F9299
:104360007F928DE192E09F938F931F930F930E9412
:10437000FBDB0F900F900F900F900F900F9060E06D
:10438000C8010E9459A4E6E4F8E184917F01BFEFDF
:10439000EB1AFB0A882321F00E943B34F701F5CF8A
:1043A000B80189E592E00E945E718AE00E943B3488
:1043B0000C949E2B83E50E94A333882311F40C9464
:1043C0009E2B0E940533E82E80E50E94A3338823AC
:1043D00011F40C949E2B0E940533182F87FF02C006
:1043E0000C949E2B89E40E94A333882349F00E94F9
:1043F0001933811111C0E4E8F5E08DE28E0F07C09A
:1044000089E40E945C33F5CF31968E1729F09491A0
:104410001913FACF0C94433061E0812F0E94E666B5
:104420006E2D812F0E94B666F12CB701812F0E945C
:104430002267143011F00C949E2BF092220BE09224
:10444000210B0C949E2B0E94B3AF0C949E2B0E94C8
:1044500085690C949E2B88E690E00E949837811124
:104460000C949E2B8091F80F83FF02C00C949E2B1E
:1044700083E50E94A3338823C9F00E9429330E9458
:10448000B1D5709349036093480380E00E9418AA55
:104490000E94293320E030E04AEA52E40E9464DCC2
:1044A000181624F00E9485690E94A4C80E94A5CD18
:1044B0000C949E2B8EE40E94A333882311F40C9459
:1044C0009E2B0E94F5326093C8037093C9038093BA
:1044D000CA039093CB030C949E2B83E50E945C331C
:1044E000882359F083E50E94A333882319F00E94A2
:1044F000053301C080E08093F80FE6E4F8E1849191
:104500008F010F5F1F4F882321F00E943B34F80179
:10451000F6CFE4E7F2E084918F010F5F1F4F88230D
:1045200009F44BCD0E943B34F801F5CFBB24B39482
:10453000B20E222319F08CE20E943B34F601259141
:104540003491F901849189010F5F1F4F882321F075
:104550000E943B349801F5CF2B2D46CDE0E7F2E0E9
:1045600084918F010F5F1F4F882309F447CD0E946C
:104570003B34F801F5CF10922E010C949E2B0E9433
:10458000C9310C949E2B89E690E00E9498378111E6
:104590000C944630E4E8F2E084918F010F5F1F4FE6
:1045A000882321F00E943B34F801F6CF0E9410A925
:1045B0008AE00E943B340C94463083E50E94A3338A
:1045C000882311F40C949E2B0E940533182F8D33F1
:1045D00008F01CE31093A1120E94CE676B017C01CE
:1045E000212F30E0A8EEB3E00E9485E0C60ED71E72
:1045F000E81EF91EC0929D12D0929E12E0929F1268
:10460000F092A0120C949E2B8DE690E00E949837B9
:1046100081110C949E2B8091F80F83FF02C00C94A3
:104620009E2B83E50E94A3338CA781110C94A92CA7
:1046300082E50E94A33381110C94A92C0C949E2B2B
:104640008091F80F83FF02C00C949E2B83E50E949B
:10465000A333882311F40C949E2B0E9429330E94CB
:10466000B1D56639710514F066E970E070934703BF
:10467000609346030E94CDA90C949E2B8091F80F65
:1046800083FF02C00C949E2B83E50E94A3332596E2
:104690008FAF259781110C944E2E82E50E94A33393
:1046A00081110C944E2E0C949E2B80E50E94A33316
:1046B000811106C083E50E94A333882361F006C000
:1046C0000E94053381110C949E2BF4CF0E94F53289
:1046D0006F3F710510F06FEF70E07093220B6093E5
:1046E000210B0C949E2B80E50E94A333811106C000
:1046F0001092220B1092210B0C949E2B0E94F532EB
:10470000672B11F00C949E2BF3CF0E9463AA0E949A
:104710002DB01092220B1092210B68EE73E080E016
:1047200090E00E94688160E087EC92E00E941FA404
:104730000C949E2B109265020C949E2B81E080932A
:1047400065020C949E2B83E50E94A3338823A1F07D
:104750000E94293320E030E04AE754E40E94CADC9A
:104760000E94B8D560934A0170934B0180934C012D
:1047700090934D010C949E2B88E50E945C3381112F
:104780000C94F62F89E50E945C3381110C94F62F6E
:104790008AE50E945C3381110C94F62F85E40E9417
:1047A0005C3381110C94F62F0E942DB00C949E2B3B
:1047B00083E50E945C33882311F40C949E2B0E94A5
:1047C000293320E030E04AE754E40E94CADC0E942A
:1047D000B8D56093991270939A1280939B1290931C
:1047E0009C120C949E2B14E5C12E11E0D12E09EFE2
:1047F000E02E0FE0F02E10E0D6018D916D010E94A9
:104800005C33882309F46DC0133009F063C00E9443
:1048100029334B015C0120E030E040EA51E40E9482
:1048200064DC87FF4EC0A501940160910510709172
:10483000061080910710909108100E943FD52B011F
:104840003C019B01AC016091CD0A7091CE0A809130
:10485000CF0A9091D00A0E94CADC6093CD0A70936F
:10486000CE0A8093CF0A9093D00AA301920160915F
:10487000FD0A7091FE0A8091FF0A9091000B0E9440
:10488000CADC6093FD0A7093FE0A8093FF0A90933E
:10489000000B6091DD0A7091DE0A8091DF0A909131
:1048A000E00A0E9469DCA30192010E94CADC0E9416
:1048B000B8D56093DD0A7093DE0A8093DF0A909387
:1048C000E00A8092051090920610A0920710B09214
:1048D000081007C00E942933F70160837183828327
:1048E00093831F5FF4E0EF0EF11C143009F084CFC6
:1048F0000E94387323C70E944D720E94463D1EC716
:1049000084918F010F5F1F4F882321F00E943B3459
:10491000F801F6CF60E086EA93E00E948D3C61E00A
:104920008FE993E00E948D3C61E084E993E00E946E
:104930008D3C61E084E893E00E948D3C60E08BE771
:1049400093E00E948D3C61E081E793E00E948D3C02
:1049500060E087E693E00E948D3C60E08FE593E0A5
:104960000E948D3C60E081E593E00E948D3C60E018
:1049700083E493E00E948D3C60E084E393E00E9436
:104980008D3C60E086E293E00E948D3C60E080E137
:1049900093E00E948D3C60E08FEF92E00E948D3C9E
:1049A00060E08AEE92E00E948D3C61E087ED92E04B
:1049B0000E948D3CC3C680910E1290910F12DC01B3
:1049C0002C91211103C00E94A4C8B8C660E00E94C7
:1049D00059A4B4C600910E1210910F1283E0D12C8D
:1049E00040E08150E1F0F8019081292F2B7F2134A4
:1049F000C1F721812133A9F7913421F0953421F4B5
:104A000041E002C0DD24D39498012E5F3F4F89011D
:104A10002F5F3F4FD8019C919032C9F3E2CF4423DE
:104A200069F0E6E4F8E184917F01BFEFEB1AFB0A3D
:104A3000882321F00E943B34F701F5CFDD2069F097
:104A4000ECE7F4E084917F012FEFE21AF20A882369
:104A500021F00E943B34F701F5CFD8018D918D01F3
:104A6000882309F4CBCA0E943B34F7CFE8E9F4E08D
:104A700084918F010F5F1F4F882321F00E943B34E8
:104A8000F801F6CFE0E9F4E084918F010F5F1F4F4A
:104A9000882321F00E943B34F801F6CF329B03C0FB
:104AA0000EE112E002C003E212E0F80181918F01F1
:104AB000882319F00E943B34F8CF8AE00E943B34EF
:104AC000E8E8F4E084918F010F5F1F4F882321F005
:104AD0000E943B34F801F6CF339B03C00EE112E095
:104AE00002C003E212E0D8018D918D01882319F0F4
:104AF0000E943B34F8CF8AE00E943B34E0E8F4E0C7
:104B000084918F010F5F1F4F882321F00E943B3457
:104B1000F801F6CF349B03C00EE112E002C003E2BD
:104B200012E0F80181918F01882309F467CA0E947D
:104B30003B34F7CF81E080930D0780930C07FEC5CF
:104B400010920D0710920C07F9C583E50E94A3335C
:104B5000882319F00E94F53202C060E070E08B01FA
:104B6000112702301105CCF0EBE2F8E184918F01BE
:104B70000F5F1F4F882321F00E943B34F801F6CFCE
:104B8000E2EBF4E084918F010F5F1F4F882309F45B
:104B9000D5C50E943B34F801F5CF88E40E94A333C9
:104BA0008823A9F00E94F5326A3A71053CF065301D
:104BB000F1E07F072CF064E071E002C06AEA70E087
:104BC000F801EE0FFF1FEB5EFC4F7183608386E4FC
:104BD0000E94A3338823A9F00E94F532F801EE0F5A
:104BE000FF1FE75EFC4F718360836F3F710519F013
:104BF00014F06FEF70E077FF02C060E070E0718347
:104C0000608382E40E94A333882309F497C50E943D
:104C1000F5326530710534F0683871052CF067E8BD
:104C200070E002C065E070E0000F111FF801EF5E58
:104C3000FC4F7183608382C588EC90E00E949837B6
:104C400081117CC584E40E945C338823C1F10E94F9
:104C5000293311E020E030E0A9010E9464DC8111D9
:104C600001C010E010931410112349F10E94293360
:104C7000E091711024E0E29FF0011124E05FFF4E0B
:104C8000608371838283938320E030E0A901609187
:104C900010107091111080911210909113100E94B9
:104CA00064DC81110CC080E090E0A0EEBFE3809353
:104CB000101090931110A0931210B09313100E9433
:104CC000C8AF3CC560EEE62E61E1F62E04E511E0CA
:104CD00074E0D72ED00ED8018D918D010E945C33E7
:104CE000882349F00E9429330E94B8D5F7016083D8
:104CF000718382839383F4E0EF0EF11CD012EBCF2B
:104D00000E9485711BC541EFE42E4AE0F42E04E5B4
:104D100011E054E0D52ED00ED8018D918D010E9466
:104D20005C33882339F00E942933F7016083718353
:104D300082839383F4E0EF0EF11CD012EDCFFEC41A
:104D400083E50E94A3338823A1F00E942933609356
:104D5000E90A7093EA0A8093EB0A9093EC0A609355
:104D6000E50A7093E60A8093E70A9093E80A10E058
:104D700001C011E080E50E94A333882359F00E940E
:104D800029336093E90A7093EA0A8093EB0A9093BF
:104D9000EC0A10E082E50E94A333882359F00E94B8
:104DA00029336093ED0A7093EE0A8093EF0A909393
:104DB000F00A10E084E50E94A333882359F00E9492
:104DC00029336093E50A7093E60A8093E70A90938B
:104DD000E80AB4C4112309F4B1C44091E90A50911E
:104DE000EA0A6091EB0A7091EC0A8AED94E00E9465
:104DF00028714091ED0A5091EE0A6091EF0A70918E
:104E0000F00A87ED94E00E9428714091E50A5091E4
:104E1000E60A6091E70A7091E80A84ED94E00E9446
:104E200028718AE00E943B3489C482E40E945C338A
:104E3000882351F00E94E5326093050B7093060BB6
:104E40008093070B9093080B83E50E945C338823C3
:104E500051F00E94293360931D0B70931E0B8093B9
:104E60001F0B9093200B84E50E945C33882351F044
:104E70000E9429336093190B70931A0B80931B0BBC
:104E800090931C0B88E50E945C33882351F00E94AC
:104E900029336093C10A7093C20A8093C30A909326
:104EA000C40A89E50E945C33882351F00E942933AB
:104EB0006093C50A7093C60A8093C70A9093C80A84
:104EC0008AE50E945C33882351F00E942933609365
:104ED000C90A7093CA0A8093CB0A9093CC0A85E4DE
:104EE0000E945C33882309F429C40E94293360930B
:104EF000CD0A7093CE0A8093CF0A9093D00A1EC435
:104F000024E5C22E21E0D22E3FE0E32E37E0F32E3F
:104F100010E0D6018D916D010E945C33882351F021
:104F20000E942933F7016083718382839383812FE9
:104F30000E9402311F5FF4E0EF0EF11C133049F7BD
:104F40000C94221D80911510082F017011E001278B
:104F500081FBFF24F0F8F12682FB882780F91827CF
:104F6000011102C0FF2019F0E6E4F8E115C01111AB
:104F7000FBCF9CE6892E97E2992E2BE137E03DA7E7
:104F80002CA7AE014F5F5F4F5A0105EC17E21A01E3
:104F900053E0500F58AB7BC084916F012FEFC21AC2
:104FA000D20A882321F00E943B34F601F5CFEAE0D3
:104FB000F5E084916F013FEFC31AD30A882321F0F3
:104FC0000E943B34F601F5CF002369F0E8E0F5E0FC
:104FD00084916F014FEFC41AD40A882321F00E94F4
:104FE0003B34F601F5CFFF2069F0E6E0F5E084916F
:104FF0006F015FEFC51AD50A882321F00E943B3468
:10500000F601F5CF111103C0ECEFF4E00DC0E4E0C0
:10501000F5E084916F019FEFC91AD90A8823A1F3A3
:105020000E943B34F601F5CF84916F01AFEFCA1AAD
:10503000DA0A882321F00E943B34F601F5CF1111E2
:1050400003C047E452E002C04DE252E0F11003C059
:1050500027E432E002C02FE232E0011103C087E40E
:1050600092E002C081E392E05F934F933F932F93CE
:105070009F938F938AEE94E09F938F931F920E9449
:105080002C900FB6F894DEBF0FBECDBF57C3F4010E
:105090006591759185919491ACA5BDA5CD90DD905C
:1050A000ED90FD90BDA7ACA7A70196010E9444D446
:1050B0002B013C0120E030E040EA51EC0E94A5D6F3
:1050C00087FD10C020E030E040EA51E4C301B201A6
:1050D0000E9464DC181634F0F10140825182628231
:1050E00073820EC0F80184911816B4F7F7FAF094A1
:1050F000F7F8F094D101CD92DD92ED92FC921397E6
:10510000D101CD90DD90ED90FD901D0120E030E0CB
:1051100040EA51ECC701B6010E94A5D687FF03C043
:10512000EBE2F8E10BC020E030E040EA51E4C701D7
:10513000B6010E9464DC181674F5F2CF84918F01D9
:105140000F5F1F4F882321F00E943B34F801F6CFF8
:10515000EEE2F5E084918F010F5F1F4F882321F06D
:105160000E943B34F801F6CF61E080E295E00E94B6
:105170001FA40E94279E88E290E099A388A388EC50
:1051800090E09DA38CA3BE01605E7F4FCE0184960C
:105190000E94C679D3C2B4E08B0E911C0F5F1F4FE3
:1051A000E8A9E01374CF8FE0E82E87E0F82E10E036
:1051B000F50181919191A191B1915F01F7018193E5
:1051C0009193A193B1937F01812F0E9402311F5FC0
:1051D000133071F70E94463D60E080E195E00E9447
:1051E0001FA483E992E09DA38CA304E610E019A319
:1051F00008A3BE016C5D7F4FCE0180960E94C679E8
:105200008AEB92E09DA38CA319A308A3BE016C5D59
:105210007F4FCE0180960E94C67990C284918F0103
:105220000F5F1F4F882321F00E943B34F801F6CF17
:1052300083E50E945C33882321F00E941933809318
:105240001401E4E7F5E084918F010F5F1F4F88237D
:1052500021F00E943B34F801F6CF809114018111B6
:1052600003C0E0E7F5E002C0ECE6F5E084918F01D1
:105270000F5F1F4F882321F00E943B34F801F6CFC7
:10528000E4E6F5E084918F010F5F1F4F882321F042
:105290000E943B34F801F6CF2091E6023091E702FC
:1052A0004091E8025091E9026091F2027091F3029C
:1052B0008091F4029091F5020E9445D4AB01BC01AB
:1052C00082E695E00E9428712091EA023091EB027B
:1052D0004091EC025091ED026091F6027091F7025C
:1052E0008091F8029091F9020E9445D4AB01BC0173
:1052F0008FE595E00E9428712091EE023091EF0237
:105300004091F0025091F1026091FA027091FB021B
:105310008091FC029091FD020E9445D4AB01BC013A
:105320008CE595E00E942871E4E5F5E084918F0119
:105330000F5F1F4F882321F00E943B34F801F6CF06
:105340002091E6023091E7024091E8025091E90293
:10535000609108017091090180910A0190910B01FF
:105360000E9445D4AB01BC0182E595E00E94287102
:105370002091EA023091EB024091EC025091ED0253
:1053800060910C0170910D0180910E0190910F01BF
:105390000E9445D4AB01BC018FE495E00E942871C6
:1053A0002091EE023091EF024091F0025091F10213
:1053B000609110017091110180911201909113017F
:1053C0000E9445D4AB01BC018CE495E00E94287199
:1053D0008AE00E943B34B2C183E50E94A333882354
:1053E00009F4ACC10E94F532709307016093060185
:1053F000A5C180E50E945C33882309F49FC10E9407
:10540000F5326B017C0183E50E94A333882321F0F0
:105410000E94F5328B0102C00FEF1FEFC801019609
:10542000039708F08BC1D7FC89C19C2DE4E8F5E017
:105430008DE28E0F2491921709F425C631968E13B2
:10544000F9CFF9C583E50E94A333882319F00E94A0
:10545000F53202C064E071E079A368A380E50E94A0
:10546000A333882339F00E94F5326938F3E17F07CE
:1054700030F402C068EE73E07A83698304C088E880
:1054800093E19A838983BE01605E7F4FCE010196CE
:105490000E94C67953C185E40E94A333811110C0D4
:1054A00080E50E945C33882391F00E942933609349
:1054B000040370930503809306039093070307C0CA
:1054C0000E940533882361F3EBE2F8E16EC089E4C2
:1054D0000E945C33882381F00E9429332CEA35EC4A
:1054E00047E25EE30E94CADC60930C0370930D03F5
:1054F00080930E0390930F0384E40E945C3388230F
:1055000081F00E9429332CEA35EC47E25EE30E94E9
:105510003FD5609308037093090380930A03909327
:105520000B03E6E4F8E184918F010F5F1F4F88239E
:1055300021F00E943B34F801F6CF409104035091D2
:105540000503609106037091070389EB95E00E94C3
:1055500028712CEA35EC47E25EE360910C03709110
:105560000D0380910E0390910F030E943FD5AB0174
:10557000BC0185EB95E00E9428712CEA35EC47E2EE
:105580005EE3609108037091090380910A03909192
:105590000B030E94CADCAB01BC0181EB95E00E94C9
:1055A00028718AE00E943B34C9C084918F010F5F4B
:1055B0001F4F882321F00E943B34F801F6CFEDEB1A
:1055C000F5E084918F010F5F1F4F882309F4B6C067
:1055D0000E943B34F801F5CF0E944534AFC00E94D1
:1055E0006B38ACC0EBE2F8E184918F010F5F1F4F85
:1055F000882321F00E943B34F801F6CFEFECF5E070
:1056000084918F010F5F1F4F882309F497C00E9478
:105610003B34F801F5CF0E943A5490C00E942C54BC
:105620008DC083E50E945C33882321F00E941933EA
:1056300091E089270E94B0B281C081E08093260367
:105640000E94E64E10922603882309F477C0E6E410
:10565000F8E184918F010F5F1F4F882321F00E9492
:105660003B34F801F6CFEEEDF5E084918F010F5F4A
:105670001F4F882309F462C00E943B34F801F5CF24
:1056800081E0809338011092C00A83E50E94A33321
:10569000882339F00E941933811150C00E94D0C66E
:1056A0004DC083E50E945C33F7CF0E94556446C02D
:1056B000F09010120E944D72FF2029F1E6E4F8E10B
:1056C00084918F010F5F1F4F882321F00E943B348C
:1056D000F801F6CF84E50E943B346F2D70E080E046
:1056E00090E04AE00E94303780E20E943B34EBEFCA
:1056F000F5E084918F010F5F1F4F8823F9F00E941E
:105700003B34F801F6CF10925710E6E4F8E18491AB
:105710008F010F5F1F4F882321F00E943B34F80157
:10572000F6CF6091571070E089EE95E00E944571C8
:105730008AE00E943B3402C00E9455640E94B3C6B6
:10574000A5C40E94B03380911401882321F080ED1C
:1057500091E10E94BFBC8091F80F83FDA5C0C0906D
:10576000DC11D090DD11E090DE11F090DF1120917E
:105770002707309128074091290750912A07C70130
:10578000B6010E9464DC882309F48EC06091240B6A
:105790007091250B8091260B9091270B2091230B64
:1057A000211129C00E94B1D52091340130913501D9
:1057B0006217730704F5C0922707D0922807E0927A
:1057C0002907F0922A07E6E4F8E184918F010F5F40
:1057D0001F4F882321F00E943B34F801F6CFE5E407
:1057E000F1E084918F010F5F1F4F882321F00E9409
:1057F0003B34F801F6CF8090DC119090DD11A09041
:10580000DE11B090DF1120912707309128074091D9
:10581000290750912A07C501B4010E9444D46B01A5
:105820007C0120E030E0A9010E94A5D687FF04C0DA
:10583000F7FAF094F7F8F094E091571024E0E29F23
:10584000F0011124E05DFE4F2081318142815381BE
:10585000C701B6010E94CADC20E030E048E453E40E
:105860000E94A5D6181604F5809227079092280763
:10587000A0922907B0922A07E6E4F8E184918F010B
:105880000F5F1F4F882321F00E943B34F801F6CFB1
:10589000E6E2F1E084918F010F5F1F4F882321F032
:1058A0000E943B34F801F6CF609106017091070128
:1058B000072E000C880B990B0E946BDC20910001D5
:1058C0003091010140910201509103010E94CADC14
:1058D0002AE037ED43E25CE30E94CADC69837A8305
:1058E0008B839C83E090571018A619A61AA61BA6B6
:1058F000AE01485D5F4F6A018E010F5F1F4F2CEDB7
:1059000031E148ED51E164ED71E180ED91E10E94FA
:10591000BF8280E1E0EDF1E1ABE1B7E001900D92F3
:105920008A95E1F70BCF11110C94F71E0C94F01E21
:105930000E94F532AB01BC014093E5065093E606A8
:105940006093E7067093E80684E396E00E94195C92
:10595000F5CE0E9429330E94B1D57093490360931C
:10596000480380E00E9418AA0E94293320E030E01A
:105970004AEA52E40E9464DC18162CF00E94856901
:105980000E94A4C802C00E9479AF60914803709140
:105990004903072E000C880B990B0E946BDC2091A9
:1059A000240B3091250B4091260B5091270B0E9420
:1059B000A5D6181634F05CA5511108C08BE892E00A
:1059C00002C088E992E060E00E941FA40E94A5CD79
:1059D00081E080932E011CAA1DAA1EAA1FAA689608
:1059E0001CAE1DAE1EAE1FAE689718AA29961FAE3C
:1059F00029978CE32D968FAF2D979CE169969FAFE9
:105A00006997A6E46196AFAF6197C12CD12C20E8CD
:105A1000E22E3FEBF32E812C912C54016091480330
:105A200070914903072E000C880B990B0E946BDCC8
:105A3000162F072F782E692E262F372F482F592FF4
:105A4000B601C7010E9464DC8823C1F02091240BB9
:105A50003091250B4091260B5091270B612F702F11
:105A6000872D962D0E9464DC881F8827881F88ABAD
:105A7000BCA5BB2339F0882329F0A1C11C2D0D2D15
:105A80007E2C6F2C0E94CE676B017C01DC01CB0168
:105A900068962CAD3DAD4EAD5FAD6897821B930B04
:105AA000A40BB50BB7FD3DC0D701C60188519C4F73
:105AB000AF4FBF4F68968CAF9DAFAEAFBFAF68978B
:105AC0000E9410A9E7E8F2E084912F019FEF491AA4
:105AD000590A882321F00E943B34F201F5CF81144A
