:100000000C9406150C9430150C9430150C94301586
:100010000C9430150C9430150C9430150C9430154C
:100020000C9430150C9430150C9430150C9430153C
:100030000C9430150C94EA720C9430150C94301515
:100040000C9430150C948AB20C9487CA0C94301519
:100050000C94423E0C9430150C9430150C943015D1
:100060000C9430150C9430150C9430150C943015FC
:100070000C9430150C9430150C9430150C943015EC
:100080000C9430150C9430150C943015276C2A6C98
:100090001D6C216C416C416C2E6C326C386C3C6C6C
:1000A0003E70437048705270807080705C706470F5
:1000B0006C707670084AD73B3BCE016E84BCBFFDA6
:1000C000C12F3D6C74319ABD56833DDA3D00C77F28
:1000D00011BED9E4BB4C3E916BAAAABE00000080C1
:1000E0003F05A84CCDB2D44EB93836A9020C50B950
:1000F000918688083CA6AAAA2ABE000000803F007C
:10010000434F4D4D554E49434154494F4E00445283
:100110005952554E004552524F525300494E464F88
:10012000004543484F0020746F6F206C6F6E67204E
:10013000657874727573696F6E2070726576656E1E
:100140007465640A0020636F6C642065787472754E
:1001500073696F6E2070726576656E7465640A00EF
:1001600047322F47332062616420706172616D6590
:10017000746572730A00536C6565702E2E2E0043F1
:100180006C69636B20746F20726573756D652E2EBC
:100190002E004E6F206D6F76652E00456E642066D2
:1001A000696C65206C6973740A00426567696E202A
:1001B00066696C65206C6973740A00286E6F20662E
:1001C000696C6529005344207072696E74696E67AA
:1001D000206279746520004E6F7420534420707241
:1001E000696E74696E670A0043757272656E742079
:1001F00066696C653A20002569730025696D2025C4
:100200006973002569682025696D202569730025BB
:100210006964202569682025696D2025697300259A
:10022000697920256964202569682025696D202564
:100230006973005072696E742074696D653A2000AC
:1002400021011C0115010E0100016F666600444585
:100250004255473A004B494C4C45442E20006F6BA9
:100260000020573A004520436F6F6C696E672E2E51
:100270002E00452048656174696E672E2E2E002081
:10028000573A0042656420636F6F6C696E672E2E6B
:100290002E004265642068656174696E672E2E2E9B
:1002A000003344205072696E746572204F66662E6A
:1002B00000544845524D414C5F50524F54454354B1
:1002C000494F4E004155544F5245504F52545F5381
:1002D000445F53544154555300454D455247454E94
:1002E00043595F50415253455200434153455F4C7F
:1002F000494748545F4252494748544E455353007A
:10030000544F47474C455F4C494748545300534F5F
:100310004654574152455F504F5745520042554948
:100320004C445F50455243454E54004C4556454C55
:10033000494E475F44415441005A5F50524F424535
:10034000004155544F4C4556454C005052494E546F
:100350005F4A4F420050524F475245535300415558
:10036000544F5245504F52545F54454D5000564FD4
:100370004C554D455452494300454550524F4D0050
:1003800053455249414C5F584F4E5F584F464600C7
:100390004649524D574152455F4E414D453A4D6198
:1003A000726C696E20312E312E39202847697468AD
:1003B00075622920534F555243455F434F44455F73
:1003C00055524C3A68747470733A2F2F6769746889
:1003D00075622E636F6D2F4D61726C696E46697226
:1003E0006D776172652F4D61726C696E2050524F4E
:1003F000544F434F4C5F56455253494F4E3A312E5E
:1004000030204D414348494E455F545950453A3399
:1004100044205072696E7465722045585452554498
:1004200045525F434F554E543A3120555549443A51
:1004300063656465326132662D343161322D343743
:1004400034382D396231322D6335356336326633B7
:10045000363766660A002F2F20007A5F6D696E3A84
:100460002000795F6D696E3A2000785F6D696E3AA1
:1004700020005265706F7274696E6720656E6473D8
:10048000746F70207374617475730A004D31343564
:1004900020533C696E6465783E206F7574206F66EA
:1004A0002072616E67652028302D31290A002054A2
:1004B00000205200416363656C65726174696F6E00
:1004C0003A205000486F6D652025732573257320F1
:1004D0006669727374002066697273740A005A0048
:1004E00059005800486F6D6520004F66667365744B
:1004F00073206170706C696564004572723A2054B3
:100500006F6F206661722100546F6F2066617220E8
:1005100066726F6D207265666572656E63652070C8
:100520006F696E740A00205A00205900580020207C
:100530004D61783A2000205A0020590058002020B0
:100540004D696E3A20004F6E20004F666600536F73
:10055000667420656E6473746F70733A2000204671
:100560006C6F773A200000010F150E12FFFFFFFF9E
:1005700016170E13FFFFFFFF03021A14FFFFFFFF02
:10058000FFFFFF0C04FFFFFF01000EFFFFFF0C1930
:100590000DFF1820643A0020693A0020703A0049A3
:1005A0006E76616C69642065787472756465720A30
:1005B0000043290A0061626C656420286D696E2021
:1005C00074656D702000436F6C642065787472757B
:1005D000646573206172652000454550524F4D207F
:1005E0004F4B0A00416374697665204578747275D3
:1005F0006465723A2000496E76616C6964206578A2
:100600007472756465720A004E6F20436865636B8F
:1006100073756D2077697468206C696E65206E75DE
:100620006D6265722C204C617374204C696E653A62
:1006300020004B494C4C45442E200053544F505001
:1006400045442E20005072696E7465722073746F79
:10065000707065642064756520746F206572726FB8
:1006600072732E2046697820746865206572726FF7
:100670007220616E6420757365204D39393920749C
:100680006F20726573746172742E202854656D70CA
:100690006572617475726520697320726573657423
:1006A0002E2053657420697420616674657220720F
:1006B000657374617274696E67290A004E6F204316
:1006C0006865636B73756D2077697468206C696EFB
:1006D00065206E756D6265722C204C617374204CC0
:1006E000696E653A2000636865636B73756D206D94
:1006F00069736D617463682C204C617374204C695C
:100700006E653A20004C696E65204E756D626572AB
:10071000206973206E6F74204C617374204C696E75
:1007200065204E756D6265722B312C204C6173749F
:10073000204C696E653A20004D313130004D333127
:100740000053442072656164206572726F720A0002
:10075000446F6E65207072696E74696E6720666999
:100760006C650A0020496E76616C69642065787456
:1007700072756465722000000020C1000020C10075
:100780000000000000484300003E43000070434862
:100790006F6D696E67206661696C65640046696C9F
:1007A000652064656C657465643A0044656C6574C5
:1007B000696F6E206661696C65642C2046696C65A2
:1007C0003A200050726F7465637465642050696EDE
:1007D0000A00205A3A0020593A0020436F756E747F
:1007E00020583A0020453A00205A3A0020593A0051
:1007F000583A003A004361703A0023646566696EB6
:10080000652044454641554C545F4B6420002364A9
:100810006566696E652044454641554C545F4B6999
:10082000200023646566696E652044454641554C49
:10083000545F4B702000504944204175746F7475AB
:100840006E652066696E69736865642120507574F1
:1008500020746865206C617374204B702C204B6988
:1008600020616E64204B6420636F6E7374616E74DC
:10087000732066726F6D2062656C6F7720696E748D
:100880006F20436F6E66696775726174696F6E2E53
:10089000680A00504944204175746F74756E652074
:1008A0006661696C6564212074696D656F75740A91
:1008B00000453120544845524D414C2052554E413F
:1008C00057415900546865726D616C2052756E61B4
:1008D0007761790045312048656174696E672066EB
:1008E00061696C65640048656174696E6720666162
:1008F000696C656400504944204175746F74756E6D
:1009000065206661696C6564212054656D7065724F
:10091000617475726520746F6F20686967680A007A
:10092000204B643A2000204B693A2000204B703A5B
:1009300020000A20436C617373696320504944208E
:100940000A002054753A2000204B753A2000206D93
:1009500061783A2000206D696E3A200020643A20C8
:100960000020626961733A20005049442041757447
:100970006F74756E65206661696C656421204261E3
:1009800064206578747275646572206E756D626539
:10099000720A00504944204175746F74756E652069
:1009A00073746172740A004E6F2063617365206C0A
:1009B000696768740A00526573656E643A20006F57
:1009C0006B004B494C4C45442E20004B494C4C206D
:1009D00063617573656420627920746F6F206D7533
:1009E000636820696E6163746976652074696D65FA
:1009F000202D2063757272656E7420636F6D6D615A
:100A00006E643A2000506C65617365207265736591
:100A100074005052494E5445522048414C5445446C
:100A2000005072696E7465722068616C7465642E22
:100A3000206B696C6C28292063616C6C6564210AE9
:100A400000656E7175657565696E6720220000002E
:100A500020C1000020C1000000000000C8420000CA
:100A6000C84200008040000000005761726E696E4D
:100A7000673A20486F6D696E672042756D7020443B
:100A8000697669736F72203C20310A00020204000B
:100A900000A0400000A040000000400000524300C1
:100AA00000484300007043FFFFFF466C6F7700462D
:100AB0006C6F770046616E207370656564004661F7
:100AC0006E20737065656400426564004265640071
:100AD0004E6F7A7A6C65004E6F7A7A6C650053704F
:100AE000656564005370656564004D61696E005012
:100AF00072656865617420504C4120456E640050F9
:100B000072656865617420504C41204265640050F4
:100B100072656865617420504C4100507265706167
:100B200072650050726568656174204142532045CA
:100B30006E640050726568656174204142532042C2
:100B400065640050726568656174204142530050CD
:100B5000726570617265004D34323800507265689C
:100B600065617420504C4100436F6F6C646F776E09
:100B70000050726568656174204142530044697396
:100B800061626C65207374657070657273004D38B6
:100B9000340053657420686F6D65206F66667365F9
:100BA0007473004175746F20686F6D65004732384B
:100BB000004D6F76652061786973004D61696E0044
:100BC0004D6F76652058004D6F76652059004D6F4A
:100BD0007665205A004578747275646572004D6FB1
:100BE000766520302E316D6D004D6F766520316D4C
:100BF0006D004D6F76652031306D6D004D6F7665FF
:100C00002061786973004578747275646572004D6F
:100C10006F7665205A004D6F76652059004D6F76CE
:100C2000652058004578747275646572004D6F7662
:100C300065205A004D6F76652059004D6F7665200E
:100C400058005072657061726500496E697469611F
:100C50006C697A6520454550524F4D00436F6E7464
:100C6000726F6C00526573746F7265206661696C97
:100C700073616665004C6F61642073657474696E9E
:100C8000677300496E697469616C697A65204545CE
:100C900050524F4D0053746F7265207365747469C0
:100CA0006E67730046696C616D656E74004D6F749C
:100CB000696F6E0054656D70657261747572650060
:100CC0004D61696E005072656865617420414253E0
:100CD00020636F6E66005072656865617420504CC9
:100CE0004120636F6E66005049442D4400504944D2
:100CF0002D44005049442D49005049442D4900508D
:100D000049442D50005049442D5000200820466190
:100D100063740020082046616374002008204D6140
:100D200078002008204D6178002008204D6178006F
:100D30002008204D696E002008204D696E002008B3
:100D4000204D696E004F6666004F6E20004175743D
:100D50006F74656D700046616E2073706565640028
:100D600046616E207370656564004265640042658B
:100D700064004E6F7A7A6C65004E6F7A7A6C65000B
:100D8000436F6E74726F6C0053746F72652073657D
:100D90007474696E67730042656400426564004E56
:100DA0006F7A7A6C65004E6F7A7A6C650046616E78
:100DB0002073706565640046616E207370656564BC
:100DC0000054656D706572617475726500454550BB
:100DD000524F4D206461746173697A652065727247
:100DE0006F722E0A00290A002062797465733B2015
:100DF000637263200053657474696E677320537463
:100E00006F726564202800290A0020627974657376
:100E10003B2063726320002073746F7265642073DB
:100E2000657474696E67732072657472696576653E
:100E300064202800202863616C63756C61746564AC
:100E400029210A0020213D2000454550524F4D20C8
:100E5000435243206D69736D61746368202D2028AF
:100E600073746F7265642920002053697A653A2093
:100E700000496E6465783A2000204D61726C696E9D
:100E80003D563535290A0028454550524F4D3D0005
:100E9000454550524F4D2076657273696F6E206DD7
:100EA00069736D61746368200048617264636F6484
:100EB00065642044656661756C742053657474695B
:100EC0006E6773204C6F616465640A00D007000090
:100ED000D007000064000000102700000000C84395
:100EE0000000C84300000041000048420000C84222
:100EF0000000C8420000C8430000BE427C3C3E5E89
:100F00002B3D3F2F5B5D3B2C2A225C004572726FAC
:100F1000722077726974696E6720746F204545503E
:100F2000524F4D210A0000002100240027002A0012
:100F300000002200250028002B00000020002300D4
:100F40002600290002020202020202020404040432
:100F50000404040403030303030303030101010165
:100F6000010101010102040810204080010204086F
:100F70001020408001020408102040808040201092
:100F8000080402010000000102000000000000004F
:100F9000040308070000000000000000000000003B
:100FA000000000004D3234004D32332025730055CF
:100FB0006E6B6E6F776E20636F6D6D616E643A203D
:100FC000220053442063617264206F6B0A006F70CB
:100FD000656E526F6F74206661696C65640A007695
:100FE0006F6C756D652E696E6974206661696C65DC
:100FF000640A00534420696E6974206661696C0A52
:101000000024F4D43050C38E20C2A24017828B70CB
:1010100011127A910D816CD90AA861E108C758664E
:1010200007615143061E4B5D05C145A7041A4111D6
:1010300004093D9803713931034036DB0265339171
:1010400002D4305402802E1D02632CEE01752AC595
:1010500001B028A001102781018F2564012B244BAA
:1010600001E0223401AC211F018D200D01801FFC05
:1010700000841EED00971DDF00B81CD200E61BC6E1
:1010800000201BBC00641AB200B219A8000A19A003
:10109000006A189900D117910040178B00B516848B
:1010A0000031167E00B31579003A157300C7146F2E
:1010B0000058146A00EE1366008813630025135E5F
:1010C00000C7125B006C12570015125400C1115179
:1010D0000070114F0021114B00D61049008D1047B0
:1010E000004610440002104200C00F4000800F3E36
:1010F00000420F3C00060F3B00CB0E3800930E372A
:10110000005C0E3500270E3400F30D3200C10D31A6
:1011100000900D3000600D2E00320D2D00050D2CBD
:1011200000D90C2B00AE0C2900850C29005C0C2783
:1011300000350C27000E0C2600E80B2400C40B24FD
:1011400000A00B23007D0B23005A0B2100390B213B
:1011500000180B2000F80A1F00D90A1E00BB0A1E47
:10116000009D0A1D00800A1D00630A1C00470A1B1F
:10117000002C0A1B00110A1A00F7091A00DD0919D0
:1011800000C4091900AB091900920917007B09185E
:1011900000630917004C09160036091600200916CD
:1011A000000A091500F5081500E0081400CC081421
:1011B00000B8081400A4081400900813007D081259
:1011C000006B08130058081200460812003408117A
:1011D00000230811001208110001081100F0071087
:1011E00000E0071000D0071000C0071000B0070F84
:1011F00000A107100091070E0083070F0074070F6E
:101200000065070E0057070E0049070E003B070D4B
:10121000002E070E0020070D0013070D0006070D16
:1012200000F9060C00ED060D00E0060C00D4060CDB
:1012300000C8060C00BC060C00B0060C00A4060B8F
:101240000099060C008D060B0082060B0077060B3A
:10125000006C060B0061060A0057060B004C060ADC
:101260000042060A0038060A002E060A0024060A72
:10127000001A060A001006090007060A00FD050903
:1012800000F4050900EB050900E2050900D905098C
:1012900000D0050900C7050900BE050900B505080D
:1012A00000AD050800A50509009C05080094050887
:1012B000008C050800840508007C050800740508FA
:1012C000006C050700650508005D05070056050868
:1012D000004E0507004705070040050800380507D0
:1012E00000310507002A050700230507001C050635
:1012F00000160507000F0507000805060002050790
:1013000000FB040600F5040700EE040600E80406EE
:1013100000E2040700DB040600D5040600CF040643
:1013200000C9040600C3040600BD040600B7040695
:1013300000B1040500AC040600A6040600A00405E4
:10134000009B04060095040500900406008A04052D
:101350000085040500800406007A04050075040574
:1013600000700405006B04050066040500610405B7
:10137000005C04050057040500520405004D0405F7
:101380000048040500430405003E0404003A040537
:101390000035040500300404002C04050027040473
:1013A00000230405001E0404001A040400160405AA
:1013B00000110404000D04040009040500040404E1
:1013C0000000040400FC030400F8030400F4030418
:1013D00000F0030400EC030400E8030400E4030449
:1013E00000E0030400DC030400D8030400D4030479
:1013F00000D0030400CC030400C8030300C50303AA
:101400000024F404D9201BC40C5C0E9804C4095FAA
:101410000265077101F405F900FB04B30048048775
:1014200000C10369005803550003034500BE023A9A
:10143000008402310053022A002902250004022000
:1014400000E4011C00C8011900AF01170098011445
:101450000084011300710110006101100051010EA0
:101460000043010D0036010B002B010B0020010B86
:1014700000150109000C01090003010800FB000828
:1014800000F3000800EB000700E4000600DE0006A1
:1014900000D8000600D2000600CC000500C70005F9
:1014A00000C2000500BD000400B9000400B500043E
:1014B00000B1000400AD000400A9000400A5000371
:1014C00000A20003009F0004009B0003009800039B
:1014D000009500020093000300900003008D0002BD
:1014E000008B0003008800020086000200840003D5
:1014F00000810002007F0002007D0002007B0002EC
:1015000000790002007700010076000200740002FA
:101510000072000100710002006F0002006D000106
:10152000006C0002006A000100690002006700010F
:101530000066000100650001006400020062000115
:101540000061000100600001005F0002005D000119
:10155000005C0001005B0001005A0001005900011D
:10156000005800010057000100560001005500011D
:10157000005400010053000000530001005200011C
:101580000051000100500001004F0001004E00001A
:10159000004E0001004D0001004C0001004B000016
:1015A000004B0001004A0001004900010048000012
:1015B000004800010047000100460000004600010D
:1015C0000045000000450001004400010043000008
:1015D0000043000100420000004200010041000001
:1015E0000041000100400001003F0000003F0001F9
:1015F000003E0000003E0001003D0000003D0001F3
:10160000003C0000003C0000003C0001003B0000EA
:10161000003B0001003A0000003A000100390000E0
:1016200000390001003800000038000000380001D7
:1016300000370000003700010036000000360000CF
:1016400000360001003500000035000000350001C3
:1016500000340000003400000034000100330000BA
:1016600000330000003300010032000000320000AF
:1016700000320001003100000031000000310001A3
:10168000003000000030000000300001002F00009A
:10169000002F0000002F0000002F0001002E00008E
:1016A000002E0000002E0001002D0000002D000083
:1016B000002D0000002D0001002C0000002C000077
:1016C000002C0000002C0001002B0000002B00006B
:1016D000002B0000002B0001002A0000002A00005F
:1016E000002A0000002A0001002900000029000053
:1016F0000029000000290000002900010028000046
:101700000028000000280000002800000028000138
:10171000002700000027000000270000002700002D
:10172000002700010026000000260000002600001F
:101730000026000000260001002500000025000012
:101740000025000000250000002500000025000104
:1017500000240000002400000024000000240000F9
:1017600000240001002300000023000000230000EB
:1017700000230000002300000023000000230001DC
:1017800000220000002200000022000000220000D1
:1017900000220000002200010021000000210000C2
:1017A00000210000002100000021000000210000B5
:1017B00000210001002000000020000000200000A7
:1017C0000020000000200000002000000020000099
:1017D00000200001001F0000001F0000001F00008B
:1017E000001F0000001F0000001F0000001F00017C
:1017F000001E0000001E0000001E0000001E000071
:1018000000043700001E290000511B000058100082
:101810000010090000CC0400007802000041010023
:101820000057726974696E6720746F2066696C6511
:101830003A20006F70656E206661696C65642C20CB
:1018400046696C653A20006F70656E206661696C50
:1018500065642C2046696C653A200046696C6520F9
:1018600073656C65637465640A002053697A653A30
:10187000200046696C65206F70656E65643A2000D3
:101880002066696C653A2000646F696E6700667255
:10189000657368004E6F772000454E4420535542D3
:1018A000524F5554494E450A002220706F73002252
:1018B00020706172656E743A2200535542524F5542
:1018C00054494E452043414C4C2074617267657405
:1018D0003A22004B494C4C45442E200074727969E1
:1018E0006E6720746F2063616C6C207375622D6766
:1018F000636F64652066696C65732077697468201E
:10190000746F6F206D616E79206C6576656C732ED7
:10191000204D4158206C6576656C2069733A00450E
:1019200072726F723A0043616E6E6F74206F7065F1
:101930006E2073756264697220006563686F3A0097
:101940006F70656E206661696C65642C2046696CF9
:10195000653A200000060900FE0701920321207F5E
:10196000FF07FF07FF00000006000001070706024F
:101970000080808080800080030202060105A0A014
:101980000507070600005050F850F85050050707AB
:101990000600002078A07028F02005070706000048
:1019A000C0C810204098180507070600006090A0E6
:1019B00040A89068020303060104C04080030707A3
:1019C00006010020408080804020030707060100B8
:1019D0008040202020408005050506000120A870D9
:1019E000A8200505050600012020F8202002030399
:1019F0000602FFC04080050101060003F802020252
:101A0000060200C0C0050505060001081020408040
:101A10000507070600007088888888887003070714
:101A200006010040C040404040E0050707060000B6
:101A3000708808708080F8050707060000F81020FD
:101A4000100808F005070706000010305090F81045
:101A500010050707060000F880F0080888700507E1
:101A600007060000708080F0888870050707060070
:101A700000F80810202020200507070600007088C5
:101A800088708888700507070600007088887808C5
:101A90000870020505060200C0C000C0C0020606AC
:101AA0000602FFC0C000C040800407070600001007
:101AB000204080402010050303060002F800F804CF
:101AC0000707060100804020102040800507070618
:101AD000000070880810200020050707060000702D
:101AE000880868A8A870050707060000708888F8AD
:101AF000888888050707060000F08888F08888F045
:101B00000507070600007088808080887005070739
:101B1000060000F08888888888F00507070600001E
:101B2000F88080F08080F8050707060000F88080C4
:101B3000F0808080050707060000708880B88888DC
:101B400070050707060000888888F88888880107DC
:101B500007060200808080808080800507070600DD
:101B600000381010101090600507070600008890DC
:101B7000A0C0A090880507070600008080808080B4
:101B800080F805070706000088D8A8888888880597
:101B900007070600008888C8A898888805070706F0
:101BA000000070888888888870050707060000F0A4
:101BB0008888F08080800507070600007088888884
:101BC000A89068050707060000F08888F0A09088B4
:101BD000050707060000788080700808F0050707F1
:101BE000060000F82020202020200507070600001E
:101BF0008888888888887005070706000088888894
:101C0000888850200507070600008888888888A8EB
:101C1000500507070600008888502050888805076F
:101C20000706000088888850202020050707060046
:101C300000F80810204080F8030707060100E08044
:101C400080808080E00505050600018040201008A6
:101C5000030707060100E02020202020E005030301
:101C6000060004205088050101060000F802020267
:101C70000602058040050505060000700878887892
:101C80000507070600008080B0C88888F0050505B4
:101C900006000070808088700507070600000808AD
:101CA00068988888780505050600007088F88070B7
:101CB0000507070600003048E040404040050606A2
:101CC0000600FF7088887808700507070600008006
:101CD00080B0C888888801070706020080008080DD
:101CE0008080800308080601FF200020202020A01B
:101CF00040040707060000808090A0C0A090030762
:101D000007060100C04040404040E00505050600D0
:101D100000D0A8A8A8A8050505060000B0C88888B6
:101D20008805050506000070888888700506060687
:101D300000FFF08888F080800506060600FF78889E
:101D400088780808050505060000B0C88080800571
:101D5000050506000070807008F004070706000003
:101D60004040E04040403005050506000088888876
:101D70009868050505060000888888502005050537
:101D80000600008888A8A8500505050600008850B0
:101D90002050880506060600FF88888878087005A8
:101DA0000505060000F8102040F8030707060100AB
:101DB00020404080404020010707060200808080CC
:101DC000808080800307070601008040402040405B
:101DD0008005020206000268900000000600004B29
:101DE000494C4C45442E2000202D20496E76616CD4
:101DF0006964206578747275646572206E756D62B1
:101E0000657220210A001FFFFFFFFFFFFF60000037
:101E1000000001FF400000000000FF800000000003
:101E2000007F83CF00000C303F87FF80000C301F05
:101E3000867980000C000F8C30C7838C30E78C30A3
:101E4000CFC7CC31F38C30DCECEC33B98C30D86CB0
:101E50006C33198C30D06C0C33198C30D86C0C333B
:101E6000198C30DC6C0E3B198C30CF7C079F198CA1
:101E700030C77C038F1940000000000002600000A2
:101E8000000000061FFFFFFFFFFFF82020506C61DD
:101E90006E6E657242756666657242797465733AF4
:101EA00020002046726565204D656D6F72793A207D
:101EB00000436F6D70696C65643A204F6374202035
:101EC0003320323031380A00207C20417574686F2D
:101ED000723A20284F70656E6661622C206C6F75B7
:101EE0006973290A00323031382D30382D303100F5
:101EF000204C61737420557064617465643A2000ED
:101F0000312E312E390A004D61726C696E002053FA
:101F10006F6674776172652052657365740A00207C
:101F20005761746368646F672052657365740A0053
:101F30002042726F776E206F7574205265736574DE
:101F40000A002045787465726E616C205265736575
:101F5000740A00506F77657255700A00737461726D
:101F6000740A006175746F25692E67006572726F5F
:101F7000722077726974696E6720746F2066696C6D
:101F8000650A00456E6473746F70732025632025A5
:101F90006320256320256300205A3A0020593A0027
:101FA00020583A00656E6473746F707320686974AA
:101FB0003A2000446F6E6520736176696E67206613
:101FC000696C652E0A004D32390020746F6F206CE9
:101FD0006F6E6720657874727573696F6E207072AA
:101FE0006576656E7465640A0020636F6C642065B5
:101FF0007874727573696F6E2070726576656E7431
:1020000065640A0056652D6A65726B0056652D6A17
:1020100065726B0056652D6A65726B00567A2D6A83
:1020200065726B00567A2D6A65726B0056792D6A5F
:1020300065726B0056792D6A65726B0056792D6A50
:1020400065726B0056782D6A65726B0056782D6A42
:1020500065726B0056782D6A65726B004D6F7469FE
:102060006F6E004573746570732F6D6D00457374EA
:102070006570732F6D6D005A73746570732F6D6D7D
:10208000005A73746570732F6D6D005973746570A9
:10209000732F6D6D005973746570732F6D6D0058DB
:1020A00073746570732F6D6D005873746570732F42
:1020B0006D6D004D6F74696F6E0053746570732F92
:1020C0006D6D004A65726B00416363656C6572619A
:1020D00074696F6E0056656C6F6369747900436F45
:1020E0006E74726F6C0046696C2E204469612E001C
:1020F00046696C2E204469612E004F6666004F6E63
:1021000020004520696E206D6D3300436F6E747240
:102110006F6C0043616E6E6F7420656E7465722023
:102120007375626469723A2000022E2E00015265B6
:102130006672657368004D61696E0025753A2530D9
:10214000327500253032753A2530327500257564B8
:1021500020253032753A253032750020202020208D
:1021600020005A005900202020200058000920009B
:102170000000000000000000000000003FFFF00031
:1021800000000000000000000000003800700000A7
:102190000000000000000000000030FC30000000E3
:1021A00000000000000000000020FC100000000003
:1021B0000000000000000000207810000000000077
:1021C00000000000000000203010000000000000AF
:1021D0000000000000002C00D03FC0000000000004
:1021E00000002082002E31D07FE0000000000000BF
:1021F000001041002F7BD07FE000000000000000B5
:102200001041002F7BD07FE0000000000000002084
:1022100082002E31D03FC0000000000000004104C9
:10222000002C00D03FC00000000000000082080029
:102230002030107FE0000000000000008208002035
:1022400078107FE00000000000000041040020FC46
:10225000107FE00000000000000020820030FC3011
:102260001F80000000000000000000003800700F18
:102270000000000000000000FFFFC03FFFF006006C
:1022800000000000000000FFFFC000000000000090
:102290000000000000000000003FFFF00000000010
:1022A0000000000000000000380070000000000086
:1022B0000000000000000031863000000000000037
:1022C0000000000000002387100000000000000054
:1022D00000000000002787900000000000000000C0
:1022E000000000002F87D000000000000000000068
:1022F0000000002F03D03FC00000000000000020BD
:1023000082002030107FE00000000000000010413B
:10231000002078107FE00000000000000010410065
:102320002078107FE00000000000000020820020E4
:1023300030103FC0000000000000004104002F03E7
:10234000D03FC0000000000000008208002F87D0AE
:102350007FE0000000000000008208002787907FD7
:10236000E0000000000000004104002387107FE02F
:10237000000000000000002082003186301F800035
:102380000000000000000000003800700F00000096
:102390000000000000FFFFC03FFFF006000000004B
:1023A00000000000FFFFC000000000060900FE0062
:1023B0000000000001090008FE00000508080600F2
:1023C0000040F0C88888987810050808060000C00A
:1023D000F88888888888F80505050600012030F807
:1023E00030200508080600002070F820202020E09A
:1023F0000509090600FF2070A8A8B8888870200584
:1024000009090600FFE080C0B0A828302828050987
:10241000090600FFF8A88888888888A8F8050A0AAD
:102420000600FE205050505088A8A888700303036F
:1024300006000340A0406265640A002C2073797393
:1024400074656D2073746F707065642120486561D8
:102450007465725F49443A20004265642068656192
:1024600074696E67206661696C65640048656174B3
:10247000696E67206661696C656400453120486556
:102480006174696E67206661696C656400486561A6
:1024900074696E67206661696C656400453120541B
:1024A0004845524D414C2052554E415741590042EA
:1024B000454420544845524D414C2052554E4157B9
:1024C000415900546865726D616C2052756E617778
:1024D0006179004531204572723A204D415854458A
:1024E0004D50004572723A204D415854454D502090
:1024F000424544004D415854454D5020747269671F
:102500006765726564004531204572723A204D4915
:102510004E54454D50004572723A204D494E544537
:102520004D5020424544004D494E54454D50207475
:102530007269676765726564004D383420582059A8
:10254000205A204500202F002042403A0020403AE7
:102550000020286D6D290020440020490020204DD6
:102560003330312050005049442073657474696ED3
:1025700067733A0A002046002042002048002020CD
:102580004D3134352053004D6174657269616C20A2
:1025900068656174757020706172616D65746572D3
:1025A000733A0A00205A0020590020204D3230365C
:1025B000205800486F6D65206F66667365743A0A2F
:1025C00000204500205A00205900205800205400C7
:1025D00020530020204D32303520420020453C6DF4
:1025E00061785F655F6A65726B3E0020583C6D6183
:1025F000785F785F6A65726B3E20593C6D61785FE9
:10260000795F6A65726B3E205A3C6D61785F7A5FD4
:102610006A65726B3E00416476616E6365643A2060
:10262000423C6D696E5F7365676D656E745F74695A
:102630006D655F75733E20533C6D696E5F666565C1
:1026400064726174653E20543C6D696E5F747261A2
:1026500076656C5F66656564726174653E002054E2
:102660000020520020204D3230342050004163635E
:10267000656C65726174696F6E2028756E6974731C
:102680002F7332293A20503C7072696E745F616317
:1026900063656C3E20523C726574726163745F6165
:1026A0006363656C3E20543C74726176656C5F6157
:1026B0006363656C3E0A00204500205A00205900E3
:1026C00020204D3230312058004D6178696D756D94
:1026D00020416363656C65726174696F6E20287553
:1026E0006E6974732F7332293A0A00204500205A0C
:1026F0000020590020204D3230332058004D6178A1
:10270000696D756D206665656472617465732028F6
:10271000756E6974732F73293A0A00204500205A98
:102720000020590020204D39322058005374657024
:10273000732070657220756E69743A0A0020204D0E
:102740003230302044300A0020204D3230302044D6
:10275000002044697361626C65640A0046696C61BB
:102760006D656E742073657474696E67733A0020CA
:10277000204D3134392043203B20556E697473203D
:10278000696E2043656C736975730A0020204732B7
:1027900031202020203B001000C90210012C0140F4
:1027A00001220170011801B0010E01F00104015075
:1027B00002FA00B002F0003003E600D003DC009023
:1027C00004D2007005C800A006BE000008B400B026
:1027D00009AA00D00BA000600E960060118C0000CA
:1027E00015820020197800C01D6E00A0226400B080
:1027F000275A00902C500000314600E0343C001075
:10280000383200903A2800603C1E00A03D14008041
:102810003E0A00203F00005654726176206D696EBA
:10282000005654726176206D696E0056547261765E
:10283000206D696E00566D696E00566D696E0056AA
:102840006D696E00566D6178204500566D61782087
:102850004500566D6178204500566D6178205A001C
:10286000566D6178205A00566D6178205A00566D79
:102870006178205900566D6178205900566D617855
:10288000205900566D6178205800566D61782058A7
:1028900000566D61782058004D6F74696F6E00416D
:1028A0006D6178204500416D6178204500416D6182
:1028B00078205A00416D6178205A00416D6178207E
:1028C0005900416D6178205900416D6178205800B0
:1028D000416D6178205800412D74726176656C00FD
:1028E000412D74726176656C00412D726574726160
:1028F000637400412D726574726163740041636397
:10290000656C00416363656C004D6F74696F6E00A8
:102910003344205072696E74657220526561647927
:102920002E005072696E74696E672E2E2E005072E2
:10293000696E7420706175736564005072696E749D
:102940002061626F72746564004D3231004E6F20F9
:1029500053442063617264004368616E676520536D
:10296000442063617264004D3231005072696E74AC
:102970002066726F6D2053440053746F7020707224
:10298000696E7400496E69742E205344206361722D
:102990006400526573756D65207072696E740050C5
:1029A00061757365207072696E7400436F6E747226
:1029B0006F6C00507265706172650054756E6500D1
:1029C000496E666F2073637265656E004E414E49B5
:1029D0004E495459494E46CDCCCC3D0AD7233C17DD
:1029E000B7D13877CC2B329595E6241FB14F0A002A
:1029F0000020410000C84200401C4620BCBE4CCA1A
:102A00001B0E5AAEC59D7400CECDECCA11241FBE5C
:102A1000CFEFD0E4DEBFCDBF12E0A0E0B1E0E2EF47
:102A2000F0EC01E00BBF02C007900D92A236B10797
:102A3000D9F722E1A2E6B2E001C01D92AD3AB20799
:102A4000E1F715E1C5E0D5E104C02197FE010E9440
:102A50000BD4C430D107C9F70E9484CE0C946CE02B
:102A60000C9400002F923F924F925F926F927F9250
:102A70008F929F92AF92BF92CF92DF92EF92FF928E
:102A80000F931F93CF93DF93CDB7DEB7C356D10912
:102A90000FB6F894DEBF0FBECDBF809104038D3416
:102AA00009F4D8C7843511F40C94672B873411F0DE
:102AB0000C94AB2B80910203909103038430910519
:102AC00009F466C544F497FDC1C720913C018230EA
:102AD000910524F51EC08A35910509F4F8C624F441
:102AE0004C9709F493C5B2C78B35910509F4F3C629
:102AF0008C35910509F0AAC7B4E52B2EB1E03B2E29
:102B000014E9C12E13E0D12EE12CF12C00E010E0ED
:102B100020C721110C94B02B0C94AD2B222311F45F
:102B20000C94AD2B11E0029709F010E00E94BF3326
:102B300082E50E94B233882309F436C10E943833FB
:102B40006B017C014090ED075090EE076090EF071D
:102B50007090F0078091F1079091F207A091F30730
:102B6000B091F4078CA79DA7AEA7BFA72091A003A3
:102B70003091A1034091A2035091A30328AB39AB3C
:102B80004AAB5BAB8091A4039091A503A091A603EF
:102B9000B091A7038CAB9DABAEABBFAB20E030E0F8
:102BA000A901C701B6010E943CDC882309F4D6C400
:102BB000A301920168A979A98AA99BA90E943CDC7A
:102BC00081110DC02CA53DA54EA55FA56CA97DA9C1
:102BD0008EA99FA90E943CDC882309F4BFC420E091
:102BE00030E0A901C701B6010E943CDC881F88279C
:102BF000881F18130BC020E030E040E85FE3289600
:102C00002CAF3DAF4EAF5FAF28970AC080E090E099
:102C1000A0E8BFEB28968CAF9DAFAEAFBFAF2897B3
:102C2000A301920168A979A98AA99BA90E941CD431
:102C30006CAF7DAF8EAF9FAF2CA53DA54EA55FA518
:102C40006CA97DA98EA99FA90E941CD424966CAF63
:102C50007DAF8EAF9FAF24972CAD3DAD4EAD5FAD38
:102C6000CA01B9010E94A2DC4B015C0124962CAD83
:102C70003DAD4EAD5FAD2497CA01B9010E94A2DC03
:102C80009B01AC01C501B4010E941DD40E94CBD6AA
:102C900068AF79AF8AAF9BAF20E030E040E05FE300
:102CA0000E94A2DC4B015C01A7019601C701B6019D
:102CB0000E94A2DC6B017C01A5019401C501B40155
:102CC0000E94A2DC9B01AC01C701B6010E941CD48A
:102CD0000E94CBD69B01AC0128966CAD7DAD8EAD2C
:102CE0009FAD28970E94A2DC4B015C0128A939A95D
:102CF0004AA95BA9C301B2010E941DD420E030E0C3
:102D000040E05FE30E94A2DC6B017C0124966CAD85
:102D10007DAD8EAD9FAD2497905828AD39AD4AADAD
:102D20005BAD0E9417D59B01AC01C501B4010E94A7
:102D3000A2DC9B01AC01C701B6010E941DD4A30116
:102D400092010E941CD46B017C012CA93DA94EA9C3
:102D50005FA96CA57DA58EA59FA50E941DD420E02E
:102D600030E040E05FE30E94A2DC2B013C0128AD93
:102D700039AD4AAD5BAD6CAD7DAD8EAD9FAD0E9402
:102D800017D59B01AC01C501B4010E94A2DC9B01D7
:102D9000AC01C301B2010E941DD42CA53DA54EA5D6
:102DA0005FA50E941CD414C089E40E94B23388231A
:102DB00029F00E9438336B017C0103C0C12CD12C57
:102DC00076018AE40E94B2338823D9F00E94383316
:102DD0006CAB7DAB8EAB9FAB20E030E0A901C701AF
:102DE000B6010E943CDC81111AC020E030E0A9014C
:102DF0006CA97DA98EA99FA90E943CDC81110FC0FE
:102E0000ADC320E030E0A901C701B6010E943CDC5F
:102E1000882309F4A3C31CAA1DAA1EAA1FAAA701DE
:102E2000960150582CA73DA74EA75FA78CA99DA936
:102E3000AEA9BFA9B05888AB99ABAAABBBABCA01CE
:102E4000B9010E94A2DC4B015C0128A939A94AA959
:102E50005BA9CA01B9010E94A2DC9B01AC01C501BA
:102E6000B4010E941DD40E94CBD664966CAF7DAF96
:102E70008EAF9FAF64972091ED073091EE074091A0
:102E8000EF075091F00728AF39AF4AAF5BAFA7010A
:102E9000960168AD79AD8AAD9BAD0E941DD4289690
:102EA0006CAF7DAF8EAF9FAF28978091F107909167
:102EB000F207A091F307B091F4078CAF9DAFAEAFCE
:102EC000BFAF2CA93DA94EA95FA9BC01CD010E94AD
:102ED0001DD468966CAF7DAF8EAF9FAF6897209181
:102EE000A0033091A1034091A2035091A303249623
:102EF0002CAF3DAF4EAF5FAF249728962CAD3DADC4
:102F00004EAD5FAD289724966CAD7DAD8EAD9FAD77
:102F100024970E941CD46B017C018091A4039091A2
:102F2000A503A091A603B091A7032C968CAF9DAFEB
:102F3000AEAFBFAF2C9768962CAD3DAD4EAD5FAD3B
:102F40006897BC01CD010E941CD44B015C0120910B
:102F5000F5073091F6074091F7075091F807609612
:102F60002CAF3DAF4EAF5FAF60976091A8037091FB
:102F7000A9038091AA039091AB030E941CD42B015A
:102F80003C018091AC039091AD03A091AE03B09150
:102F9000AF03A0968CAF9DAFAEAFBFAFA09720910F
:102FA000F9073091FA074091FB075091FC076C96A6
:102FB0002CAF3DAF4EAF5FAF6C97A70196016CA5EC
:102FC0007DA58EA59FA50E94A2DCA4966CAF7DAFC7
:102FD0008EAF9FAFA497A501940168A979A98AA98A
:102FE0009BA90E94A2DC9B01AC01A4966CAD7DADB7
:102FF0008EAD9FADA4970E941DD4A4966CAF7DAFFB
:103000008EAF9FAFA497A50194016CA57DA58EA559
:103010009FA50E94A2DC4B015C01A701960168A953
:1030200079A98AA99BA90E94A2DC9B01AC01C501D8
:10303000B4010E941CD4A4962CAD3DAD4EAD5FAD45
:10304000A4970E949CD46B017C0120E030E0A90190
:103050000E943CDC87FF0AC02BED3FE049EC50E4C6
:10306000C701B6010E941DD46B017C01112351F0F0
:103070002BED3FE049EC50E4C701B6010E941CD49F
:103080006B017C0120E030E0A901C701B6010E947C
:103090003CDC811124C024962CAD3DAD4EAD5FAD1E
:1030A000249768AD79AD8AAD9BAD0E943CDC81115F
:1030B00016C02C962CAD3DAD4EAD5FAD2C976CADD2
:1030C0007DAD8EAD9FAD0E943CDC811108C02BED23
:1030D000C22E2FE0D22E29ECE22E20E4F22EA70100
:1030E000960164966CAD7DAD8EAD9FAD64970E94E8
:1030F000A2DC4B015C0120E030E0A901C301B20178
:103100000E943CDC8823C9F0A5019401C501B401EB
:103110000E94A2DC4B015C01A3019201C301B20138
:103120000E94A2DC9B01AC01C501B4010E941DD428
:103130000E94CBD64B015C010DC020E030E0A9011C
:10314000C501B4010E947DD687FF04C0B7FAB094D0
:10315000B7F8B0942FE632E143E85AE3C501B40171
:103160000E943CDC87FF02C00C94AD2BC501B4016A
:103170000E94BFD50E9490D51B01672B19F4222411
:103180002394312CB10180E090E00E9441DC4B019E
:103190005C019B01AC01C701B6010E9417D568AF65
:1031A00079AF8AAF9BAFA5019401C301B2010E9420
:1031B00017D564966CAF7DAF8EAF9FAF64976C965A
:1031C0002CAD3DAD4EAD5FAD6C97A0966CAD7DADB9
:1031D0008EAD9FADA0970E941CD4A50194010E94C2
:1031E00017D5A0966CAF7DAF8EAF9FAFA09728ADDF
:1031F00039AD4AAD5BADCA01B9010E94A2DC20E045
:1032000030E040E05FE30E94A2DC9B01AC0160E0A3
:1032100070E080E89FE30E941CD42C966CAF7DAFD9
:103220008EAF9FAF2C9760968CAD9DADAEADBFAD10
:10323000609789879A87AB87BC876C962CAD3DAD2C
:103240004EAD5FAD6C972D873E874F87588B609151
:103250000A0170910B01072E000C880B990B0E943C
:1032600043DC209100013091010140910201509115
:1032700003010E94A2DC2AE037ED43E25CE30E94F6
:10328000A2DC68A779A78AA79BA70E94C3709B01AD
:10329000AC0128533F4F4F4F5F4F60962CAF3DAF6F
:1032A0004EAF5FAF60974CA45DA46EA47FA441E0D5
:1032B00050E022965FAF4EAF229759E15CAF229665
:1032C0002EAD3FAD22972215330509F41CC10E9493
:1032D000DBB60E94C370DC01CB0160962CAD3DAD26
:1032E0004EAD5FAD6097821B930BA40BB50BB7FD82
:1032F00010C00E94C3709B01AC0128533F4F4F4F39
:103300005F4F60962CAF3DAF4EAF5FAF60970E94AE
:103310005C433CAD31503CAF332309F441C02C96A3
:103320002CAD3DAD4EAD5FAD2C9768A979A98AA9AA
:103330009BA90E94A2DC6B017C0128AD39AD4AAD8E
:103340005BADB201C3010E94A2DCA70196010E94FD
:103350001DD47B018C012C962CAD3DAD4EAD5FADE7
:103360002C97B201C3010E94A2DC4B015C0128AD85
:1033700039AD4AAD5BAD68A979A98AA99BA90E941C
:10338000A2DC9B01AC01C501B4010E941CD42B013D
:103390003C01C701D80188AB99ABAAABBBAB53C00A
:1033A00022964EAD5FAD2297BA0180E090E00E9478
:1033B00041DC28AD39AD4AAD5BAD0E94A2DC4B01CA
:1033C0005C010E9412D56B017C01C501B4010E9411
:1033D000BDD64B015C01A70196016CA57DA58EA50C
:1033E0009FA50E94A2DC2B013C01A50194016CA9C0
:1033F0007DA98EA99FA90E94A2DC9B01AC01C301FB
:10340000B2010E941DD42B013C01A50194016CA5C1
:103410007DA58EA59FA50E94A2DC4B015C01A701A2
:1034200096016CA97DA98EA99FA90E94A2DC9B018F
:10343000AC01C501B4010E941CD468AB79AB8AAB66
:103440009BAB59E15CAF9201A30128966CAD7DADB9
:103450008EAD9FAD28970E941DD469837A838B839C
:103460009C8328A939A94AA95BA968966CAD7DAD52
:103470008EAD9FAD68970E941DD46D837E838F8330
:10348000988764962CAD3DAD4EAD5FAD6497698570
:103490007A858B859C850E941DD469877A878B8766
:1034A0009C87A0962CAD3DAD4EAD5FADA0976D85D0
:1034B0007E858F8598890E941DD46D877E878F8732
:1034C000988B80911801882321F0CE0101960E94EB
:1034D0003B41E090291118A219A21AA21BA2CE0109
:1034E00080966C018E01085D1F4F9E01235F3F4F48
:1034F000AE01475F5F4FBE016B5F7F4F4F970E94EA
:10350000B48B811121C0E09029111CA21DA21EA222
:103510001FA2DE0194966D018E01085D1F4F2CEAFB
:1035200033E048EA53E064EA73E080EA93E00E9403
:10353000B48B80E1E0EAF3E0ADEEB7E001900D92EC
:103540008A95E1F70C94AD2B2296EEADFFAD229754
:1035500031962296FFAFEEAF2297B1CEEFE1F9E1BF
:1035600084918F010F5F1F4F882321F00E944A34FE
:10357000F801F6CFE0E6F1E084918F010F5F1F4F75
:10358000882311F40C94AD2B0E944A34F801F4CF37
:1035900080E50E94B233882329F00E94F4326B0147
:1035A0007C0103C0C12CD12C760183E50E94B2338B
:1035B000882361F00E94383320E030E04AE754E489
:1035C0000E94A2DC0E9490D56B017C010E94427B8C
:1035D00080919E04811105C060E086E791E00E9421
:1035E00014AD0E94C370C60ED71EE81EF91E0E94BD
:1035F000C370DC01CB018C199D09AE09BF09B7FD71
:1036000002C00C94AD2B0E945C43F1CF8091E00787
:103610008770873071F48FE40E94B233882319F0E9
:103620000E94283303C08FE40E946B3381110C94F5
:10363000AD2B0E94427B8091000190910101A091ED
:103640000201B09103018093690290936A02A093F2
:103650006B02B0936C0280910A0190910B019093E0
:1036600068028093670284E690E090930B01809358
:103670000A0111E01093DF0788E50E946B33282EC2
:1036800089E50E946B33082F8AE50E946B33382E40
:10369000211004C0011104C0182705C0011102C087
:1036A00010E001C0182F80E1EDEEF7E0A0EAB3E0F2
:1036B00001900D928A95E1F782E50E94B23388234A
:1036C00069F00E9438336B017C0120E030E0A901F1
:1036D0000E943CDC882309F4BFC006C0C12CD12C59
:1036E00080EAE82E80E4F82E111105C0211003C0F5
:1036F000002309F4C2C0C092A803D092A903E092AB
:10370000AA03F092AB038090F5079090F607A09083
:10371000F707B090F807A5019401C701B6010E9410
:103720007DD618160CF098C08091F1079091F207A1
:10373000A091F307B091F4078CA79DA7AEA7BFA7F0
:103740002091ED073091EE074091EF075091F0077F
:1037500028AB39AB4AAB5BAB809100019091010182
:10376000A0910201B09103018CAB9DABAEABBFAB9E
:10377000E2E6FAE04590559065907490A7019601B5
:10378000C501B4010E943CDC87FF12C040920001D9
:10379000509201016092020170920301C092F507FC
:1037A000D092F607E092F707F092F8070E94E53012
:1037B00080E090E0A8ECB2E48093000190930101D6
:1037C000A0930201B093030128A939A94AA95BA9D2
:1037D0002093ED073093EE074093EF075093F007E7
:1037E0008CA59DA5AEA5BFA58093F1079093F20788
:1037F000A093F307B093F4070E94E530A701960168
:103800006091F5077091F6078091F7079091F8079E
:103810000E947DD6181694F4409200015092010146
:103820006092020170920301C092F507D092F607F0
:10383000E092F707F092F8070E94E5300E94427B81
:103840002CA93DA94EA95FA9209300013093010145
:103850004093020150930301111105C0211003C0D0
:10386000011106C00AC080E00E94CD411123C1F3BE
:1038700081E00E94CD41111102C0332019F082E095
:103880000E94CD410E94CE318091DE078093DF07F8
:103890008091690290916A02A0916B02B0916C02D2
:1038A0008093000190930101A0930201B093030162
:1038B000809167029091680290930B0180930A01B6
:1038C00083E0809333010E94553D0C94AD2B109200
:1038D00066020C94AD2B81E0809366020C94AD2BB4
:1038E0000E9438332B013C01133059F0F701E854A2
:1038F000FC4F20813181428153810E941CD42B01D5
:103900003C01F701E351F84F20813181428153811D
:10391000C301B2010E941CD44B015C012DEB37E3C3
:1039200046E855EB0E947DD687FD1BC02DEB37E3A3
:1039300046E855E3C501B4010E943CDC18168CF042
:103940001F5FB4E0CB0ED11CE4E0EE0EF11C14308E
:1039500039F1D1018D911D010E94B233882381F389
:10396000BFCF133051F44092F9075092FA0760929A
:10397000FB077092FC0701E0E3CFA5019401F6017B
:1039800060817181828193810E941DD4D6016D93E3
:103990007D938D939C931397812F0E941131D0CFEB
:1039A000002309F44FC020E030E0A9016091F9073D
:1039B0007091FA078091FB079091FC070E941DD43B
:1039C0002091D7103091D8104091D9105091DA1031
:1039D0000E94A2DC0E948AD660931A0570931B0590
:1039E00080931C0590931D059091F8048091F90433
:1039F000981719F00E94E47A25C00E94427B8091BA
:103A00006F0081FB992790F981FF05C080916F00BD
:103A10008D7F80936F0040911A0550911B05609136
:103A20001C0570911D054093480450934904609310
:103A30004A0470934B04992329F080916F008260AF
:103A400080936F000E94553D0C94AD2B0E944A6DEF
:103A50000C94AD2B80910203909103038237910562
:103A600009F4AFC60CF0B9C08A32910509F407C455
:103A70000CF05BC08831910509F44EC2ACF582317F
:103A8000910509F4C5C5BCF497FF02C00C94642BE2
:103A9000823091050CF46FC1419711F00C94642BA6
:103AA00060E082E991E00E9414AD5E985E981598FE
:103AB0005E980C94AD2B8531910509F412C23CF44B
:103AC000449711F00C94642BEAEAF1E0C9C1863105
:103AD000910509F40AC2479711F00C94642BE09108
:103AE0000003F09101030BC28C31910509F4C7C2A8
:103AF00064F48A31910509F41AC20CF026C21092BE
:103B00003E050E94A8B80C94AD2B8E31910509F4A6
:103B1000C0C214F40C94AD2B8F31910509F409C384
:103B2000809709F4BAC20C94642B8C35910509F482
:103B3000BFC534F58135910509F44CC58CF48C343E
:103B4000910509F4E5C38D34910509F4E5C38B347F
:103B5000910511F00C94642B0E946EB80C94AD2B5F
:103B60008335910509F44FC50CF449C58435910599
:103B700009F44EC58535910509F47FC50C94642B75
:103B80008C36910509F45CC4ACF48936910509F4CE
:103B90005FC434F48836910509F4C2C30C94642BD5
:103BA0008A36910509F4E6C48B36910509F400C5FF
:103BB0000C94642B8E36910509F4E1C30CF489C48E
:103BC0008F36910509F4EEC38037910511F00C94FE
:103BD000642B85E592E00E94EC428C3D910511F446
:103BE0000C9452290CF052C08B39910509F44AC447
:103BF0001CF58737910509F4A0C674F48537910543
:103C000009F440C60CF04DC68337910511F00C94B1
:103C1000642BE0E9F3E0DBC58937910509F4F7C6C9
:103C20000CF4EFC68C38910509F46FC48139910505
:103C300009F4F2C60C94642B8B3C910511F40C949E
:103C4000EA2574F4883C910509F45DC7893C910527
:103C500009F49FC78E3B910511F00C94642B73C43B
:103C60008D3C910511F40C947C2614F40C940726D9
:103C70008E3C910511F40C94E726833D910511F0DB
:103C80000C94642BEAE3F9E10C9474288A39F1E08E
:103C90009F0709F4D9C38CF58D3231E0930711F4F5
:103CA0000C941F2A94F4823E910511F40C94CD29B2
:103CB0008C3251E0950711F40C94F6298D3D910555
:103CC00011F00C94642B0C945F298F32A1E09A07B9
:103CD00011F40C94142B14F40C94C02A8336E1E0F4
:103CE0009E0711F40C94172B8039914011F00C941D
:103CF000642B0E94427B0C94AD2B873F21E09207FE
:103D000011F40C94202BECF4843F41E0940711F45F
:103D10000C941A2B3CF48C3A914011F40C94092722
:103D20000C94642B853FB1E09B0711F40C941D2B80
:103D3000863F914011F00C94642B0E94CA560C945B
:103D4000AD2B8B38F3E09F0711F40C94AD2B3CF4B2
:103D5000883F914011F40C942C2B0C94642B803AE6
:103D600043E0940709F4D8C1873E934011F40C94C2
:103D70004F2B0C94642BA0900003B090010380E5BE
:103D80000E94B233882359F00E94F4326B017C0107
:103D900011E0672B682B692B31F410E004C010E0B0
:103DA000C12CD12C760183E50E94B233882311F413
:103DB0000C94A22C0E94383320E030E04AE754E40F
:103DC0000E94A2DC0E9490D56B017C0111110BC0F6
:103DD000672B682B692B39F4A114B10421F0D501AC
:103DE0008C91811102C010E001C011E00E94427B61
:103DF000112329F061E0C5010E944EAD05C060E0CD
:103E00008FE791E00E9414AD81E080933511C114D9
:103E1000D104E104F104E9F00E94C370C60ED71E7C
:103E2000E81EF91E0E94C370DC01CB018C199D09AC
:103E3000AE09BF09B7FD06C00E947CC810923511BB
:103E40000C94AD2B809135118823B1F30E945C4313
:103E5000E9CF80913511882379F30E945C43F9CF33
:103E600084918F010F5F1F4F882321F00E944A34F5
:103E7000F801F6CF1092BB0740E050E0BA018EE6A1
:103E800095E00E940E658BE1EEE6F5E0DE01159609
:103E900001900D928A95E1F780916C0590916D05E6
:103EA0009C838B8382EE91E09A83898340E050E08B
:103EB000BE016F5F7F4F80E090E00E949F7ECE0149
:103EC00001960E94D042EBE9F1E084918F010F5FEF
:103ED0001F4F882311F40C94AD2B0E944A34F80133
:103EE000F4CF0E9489710C94AD2B10923E05109274
:103EF0003F050C94AD2B803209F4108231968081FD
:103F00008111F9CF40E061E08091000390910103BD
:103F10000E94CA800C94AD2B80913F05882319F034
:103F200081E080933E050E946EB80C94AD2B809189
:103F30003F05882311F40C94AD2B83E50E94B23326
:103F400081110C94A72C0C94AD2B83E40E946B334D
:103F5000882309F454C0E8EEF1E084918F010F5FEB
:103F60001F4F882321F00E944A34F801F6CF809138
:103F70000907882391F0BE016F5F7F4F86E097E0CD
:103F80000E946C3E8E010F5F1F4FF80181918F01DF
:103F9000882381F10E944A34F8CFEBEBF1E0849161
:103FA0008F010F5F1F4F882329F10E944A34F801C7
:103FB000F6CF8091CA10882309F435C2F0E4CF2EE1
:103FC000F2E0DF2EE12CF12C20E08091CA1090E08D
:103FD0000E2C02C0959587950A94E2F780FD0BC2DE
:103FE000FFEFEF1AFF0A32E0C30ED11C45E0E416E2
:103FF000F10459F78AE00E944A340C94AD2B809169
:104000003F05882371F180913E05882351F1E5EC4D
:10401000F1E084918F010F5F1F4F882321F00E94F0
:104020004A34F801F6CF6091B7077091B8078091D4
:10403000B9079091BA074AE00E94B4378FE20E9414
:104040004A346091B3077091B4078091B50790919D
:10405000B6074AE00E94B4378AE00E944A340C94C2
:10406000AD2BE7EDF1E084918F010F5F1F4F8823A7
:1040700011F40C94AD2B0E944A34F801F4CF40E0C7
:1040800060E080910003909101030E94CA800C942B
:10409000AD2B0E946F340C94AD2B80913E058111A5
:1040A0000E94427B80913F05882311F40C94AD2B34
:1040B00080E50E94B233882319F00E94283303C0A0
:1040C00080E50E946B33182F482F61E08091000338
:1040D000909101030E94CA8083E50E94B233882335
:1040E00081F00E940433AB01BC014093B7075093A9
:1040F000B8076093B9077093BA0786E097E00E940B
:104100000E6580913F05882319F081E080933E057C
:1041100011110C94AD2B07CF8091000390910103F6
:1041200021E020933D0540E060E00E94CA800C94AD
:10413000AD2B0E943AB8ACE3CA2ED12CE12CF12C65
:10414000A70196010E9430E0762E672ECA01B901C0
:10415000A70196010E9430E06B017C01CA01B90100
:1041600028E130E040E050E00E9430E04B015C018B
:10417000C9016DE671E00E94C4D38E010F5F1F4F2D
:104180006115710599F06F927F92DF92CF929F92A5
:104190008F929F938F937F936F938FE192E09F9382
:1041A0008F931F930F930E94D3DB12C00097B1F03F
:1041B0006F927F92DF92CF929F928F929F938F9375
:1041C0008FE092E09F938F931F930F930E94D3DB16
:1041D0000FB6F894DEBF0FBECDBF36C08114910478
:1041E000A104B10479F06F927F92DF92CF929F92F7
:1041F0008F9283E092E09F938F931F930F930E947F
:10420000D3DBE6CFC114D104E104F10469F06F926D
:104210007F92DF92CF928BEF91E09F938F931F93CA
:104220000F930E94D3DBD4CF6F927F9287EF91E000
:104230009F938F931F930F930E94D3DB0F900F9048
:104240000F900F900F900F9060E0C8010E944EAD4C
:10425000EAE3F9E184917F01BFEFEB1AFB0A8823BF
:1042600021F00E944A34F701F5CFB80183E392E0D0
:104270000E94537A8AE00E944A340C94AD2B83E565
:104280000E94B233882311F40C94AD2B0E94143396
:10429000E82E80E50E94B233882311F40C94AD2BF4
:1042A0000E941433182F87FF02C00C94AD2B89E4B1
:1042B0000E94B233882349F00E942833811111C033
:1042C000E6E6F5E08DE28E0F07C089E40E946B33CD
:1042D000F5CF31968E1729F094911913FACF0C94DB
:1042E0002A3061E0812F0E94DB6F6E2D812F0E94AA
:1042F000AB6FF12CB701812F0E941770143011F0B1
:104300000C94AD2BF092F40BE092F30B0C94AD2BCC
:104310000E94A8B80C94AD2B0E947A720C94AD2B1D
:1043200088E690E00E941C3881110C94AD2B80919E
:10433000CA1083FF02C00C94AD2B83E50E94B233F8
:104340008823C9F00E9438330E9489D570931B04DA
:1043500060931A0480E00E940DB30E94383320E07D
:1043600030E04AEA52E40E943CDC181624F00E9435
:104370007A720E947CC80E949ECD0C94AD2B8EE474
:104380000E94B233882311F40C94AD2B0E940433A5
:1043900060939A0470939B0480939C0490939D0473
:1043A0000C94AD2B83E50E946B33882359F083E591
:1043B0000E94B233882319F00E94143301C080E0B8
:1043C0008093CA10EAE3F9E184918F010F5F1F4FD8
:1043D000882321F00E944A34F801F6CFEEE4F2E09F
:1043E00084918F010F5F1F4F882309F4E2CD0E9453
:1043F0004A34F801F5CFBB24B394B20E222319F04E
:104400008CE20E944A34F60125913491F90184919D
:1044100089010F5F1F4F882321F00E944A349801C1
:10442000F5CF2B2DDDCDEAE4F2E084918F010F5F13
:104430001F4F882309F4DECD0E944A34F801F5CFDE
:10444000109232010C94AD2B0E94D8310C94AD2BFC
:1044500089E690E00E941C3881110C945530EEE5FD
:10446000F2E084918F010F5F1F4F882321F00E949B
:104470004A34F801F6CF0E9405B28AE00E944A341D
:104480000C94553083E50E94B233882311F40C94C8
:10449000AD2B0E941433182F8D3308F01CE31093BA
:1044A00093030E94C3706B017C01212F30E0A8EEC2
:1044B000B3E00E945DE0C60ED71EE81EF91EC09252
:1044C0008F03D0929003E0929103F09292030C94A8
:1044D000AD2B8DE690E00E941C3881110C94AD2B21
:1044E0008091CA1083FF02C00C94AD2B83E50E941B
:1044F000B2338CA781110C94B82C82E50E94B233A0
:1045000081110C94B82C0C94AD2B8091CA1083FFB0
:1045100002C00C94AD2B83E50E94B233882311F4C2
:104520000C94AD2B0E9438330E9489D566397105F1
:1045300014F066E970E070931904609318040E9407
:10454000C2B20C94AD2B8091CA1083FF02C00C94B0
:10455000AD2B83E50E94B23325968FAF259781114D
:104560000C945D2E82E50E94B23381110C945D2E75
:104570000C94AD2B80E50E94B233811106C083E517
:104580000E94B233882361F006C00E941433811167
:104590000C94AD2BF4CF0E9404336F3F710510F0E3
:1045A0006FEF70E07093F40B6093F30B0C94AD2BF2
:1045B00080E50E94B233811106C01092F40B109274
:1045C000F30B0C94AD2B0E940433672B11F00C9469
:1045D000AD2BF3CF0E9458B30E9422B91092F40B76
:1045E0001092F30B68EE73E080E090E00E945D8A29
:1045F00060E081EA92E00E9414AD0C94AD2B109221
:1046000065020C94AD2B81E0809365020C94AD2B78
:1046100083E50E94B2338823A1F00E94383320E062
:1046200030E04AE754E40E94A2DC0E9490D56093F7
:1046300004017093050180930601909307010C9487
:10464000AD2B88E50E946B3381110C94053089E510
:104650000E946B3381110C9405308AE50E946B3304
:1046600081110C94053085E40E946B3381110C9408
:1046700005300E9422B90C94AD2B83E50E946B3368
:10468000882311F40C94AD2B0E94383320E030E0E5
:104690004AE754E40E94A2DC0E9490D560938B0309
:1046A00070938C0380938D0390938E030C94AD2BA9
:1046B00034E5C32E31E0D32E4BECE42E40E1F42E52
:1046C00010E0D6018D916D010E946B33882309F4AF
:1046D0006DC0133009F063C00E9438334B015C0198
:1046E00020E030E040EA51E40E943CDC87FF4EC00D
:1046F000A50194016091D7107091D8108091D910C4
:104700009091DA100E9417D52B013C019B01AC015E
:1047100060919F0B7091A00B8091A10B9091A20BC7
:104720000E94A2DC60939F0B7093A00B8093A10B5F
:104730009093A20BA30192016091CF0B7091D00BCB
:104740008091D10B9091D20B0E94A2DC6093CF0B91
:104750007093D00B8093D10B9093D20B6091AF0BE1
:104760007091B00B8091B10B9091B20B0E9441DC23
:10477000A30192010E94A2DC0E9490D56093AF0B2E
:104780007093B00B8093B10B9093B20B8092D710C3
:104790009092D810A092D910B092DA1007C00E945F
:1047A0003833F70160837183828393831F5FF4E062
:1047B000EF0EF11C143009F084CF0E942D7C0C9474
:1047C000AD2B0E94427B0E94553D0C94AD2B8491F1
:1047D0008F010F5F1F4F882321F00E944A34F80198
:1047E000F6CF60E080E893E00E949C3C61E089E7BE
:1047F00093E00E949C3C61E08EE693E00E949C3C2A
:1048000061E08EE593E00E949C3C60E085E593E0EA
:104810000E949C3C61E08BE493E00E949C3C60E041
:1048200081E493E00E949C3C60E089E393E00E9475
:104830009C3C60E08BE293E00E949C3C60E08DE158
:1048400093E00E949C3C60E08EE093E00E949C3CE0
:1048500060E080E093E00E949C3C60E08AEE92E0A1
:104860000E949C3C60E089ED92E00E949C3C60E0EC
:1048700084EC92E00E949C3C61E081EB92E00E941B
:104880009C3C6BC78091000390910103DC012C914B
:10489000211103C00E947CC860C760E00E944EAD39
:1048A0005CC7009100031091010383E0D12C40E02C
:1048B0008150E1F0F8019081292F2B7F2134C1F73D
:1048C00021812133A9F7913421F0953421F441E07D
:1048D00002C0DD24D39498012E5F3F4F89012F5FE2
:1048E0003F4FD8019C919032C9F3E2CF442369F045
:1048F000EAE3F9E184917F01BFEFEB1AFB0A882319
:1049000021F00E944A34F701F5CFDD2069F0E6E599
:10491000F4E084917F012FEFE21AF20A882321F05C
:104920000E944A34F701F5CFD8018D918D0188237B
:1049300009F460CB0E944A34F7CFE2E7F4E08491B7
:104940008F010F5F1F4F882321F00E944A34F80126
:10495000F6CFEAE6F4E084918F010F5F1F4F8823C2
:1049600021F00E944A34F801F6CF329B03C00EE1D9
:1049700012E002C003E212E0F80181918F01882366
:1049800019F00E944A34F8CF8AE00E944A34E2E6E5
:10499000F4E084918F010F5F1F4F882321F00E9464
:1049A0004A34F801F6CF339B03C00EE112E002C097
:1049B00003E212E0D8018D918D01882319F00E9445
:1049C0004A34F8CF8AE00E944A34EAE5F4E0849160
:1049D0008F010F5F1F4F882321F00E944A34F80196
:1049E000F6CF349B03C00EE112E002C003E212E0F6
:1049F000F80181918F01882309F4FCCA0E944A348E
:104A0000F7CF81E08093DF078093DE07A6C6109280
:104A1000DF071092DE07A1C683E50E94B233882328
:104A200019F00E94043302C060E070E08B0111278E
:104A300002301105CCF0EFE1F9E184918F010F5FB5
:104A40001F4F882321F00E944A34F801F6CFECE88A
:104A5000F4E084918F010F5F1F4F882309F47DC616
:104A60000E944A34F801F5CF88E40E94B2338823CB
:104A7000A9F00E9404336A3A71053CF06530F1E018
:104A80007F072CF064E071E002C06AEA70E0F80190
:104A9000EE0FFF1FE951FC4F7183608386E40E9493
:104AA000B2338823A9F00E940433F801EE0FFF1FF0
:104AB000E551FC4F718360836F3F710519F014F06D
:104AC0006FEF70E077FF02C060E070E07183608399
:104AD00082E40E94B233882309F43FC60E94043363
:104AE0006530710534F0683871052CF067E870E0C6
:104AF00002C065E070E0000F111FF801ED51FC4F9E
:104B0000718360832AC688EC90E00E941C38811172
:104B100024C684E40E946B338823C1F10E94383399
:104B200011E020E030E0A9010E943CDC811101C0CD
:104B300010E01093E610112349F10E943833E09100
:104B4000431124E0E29FF0011124EE51FF4E6083F7
:104B500071838283938320E030E0A9016091E210A9
:104B60007091E3108091E4109091E5100E943CDC7C
:104B700081110CC080E090E0A0EEBFE38093E210D2
:104B80009093E310A093E410B093E5100E94BDB899
:104B9000E4C5A6E9EA2EA2E1FA2E04E511E0B4E0AC
:104BA000DB2ED00ED8018D918D010E946B338823AE
:104BB00049F00E9438330E9490D5F70160837183D9
:104BC00082839383F4E0EF0EF11CD012EBCF0E94AE
:104BD0007A7AC3C5E3ECEE2EEBE0FE2E04E511E09D
:104BE000F4E0DF2ED00ED8018D918D010E946B3341
:104BF000882339F00E943833F70160837183828300
:104C00009383F4E0EF0EF11CD012EDCFA6C583E53F
:104C10000E94B2338823A1F00E9438336093BB0B0B
:104C20007093BC0B8093BD0B9093BE0B6093B70B3E
:104C30007093B80B8093B90B9093BA0B10E001C03E
:104C400011E080E50E94B233882359F00E94383386
:104C50006093BB0B7093BC0B8093BD0B9093BE0B0A
:104C600010E082E50E94B233882359F00E94383365
:104C70006093BF0B7093C00B8093C10B9093C20BDA
:104C800010E084E50E94B233882359F00E94383343
:104C90006093B70B7093B80B8093B90B9093BA0BDA
:104CA0005CC5112309F459C54091BB0B5091BC0B55
:104CB0006091BD0B7091BE0B84EB94E00E941D7A55
:104CC0004091BF0B5091C00B6091C10B7091C20B12
:104CD00081EB94E00E941D7A4091B70B5091B80B84
:104CE0006091B90B7091BA0B8EEA94E00E941D7A24
:104CF0008AE00E944A3431C582E40E946B338823E3
:104D000051F00E94F4326093D70B7093D80B8093CC
:104D1000D90B9093DA0B83E50E946B33882351F013
:104D20000E9438336093EF0B7093F00B8093F10B7C
:104D30009093F20B84E50E946B33882351F00E941C
:104D400038336093EB0B7093EC0B8093ED0B9093E7
:104D5000EE0B88E50E946B33882351F00E943833B4
:104D60006093930B7093940B8093950B9093960B99
:104D700089E50E946B33882351F00E943833609399
:104D8000970B7093980B8093990B90939A0B8AE5ED
:104D90000E946B33882351F00E94383360939B0B41
:104DA00070939C0B80939D0B90939E0B85E40E94C7
:104DB0006B33882309F4D1C40E94383360939F0B6E
:104DC0007093A00B8093A10B9093A20BC6C464E5D3
:104DD000C62E61E0D62E71EEE72E77E0F72E10E0BA
:104DE000D6018D916D010E946B33882351F00E9492
:104DF0003833F7016083718382839383812F0E940C
:104E000011311F5FF4E0EF0EF11C133049F70C94E1
:104E1000221D8091E710082F017011E0012781FB0E
:104E2000FF24F0F8F12682FB882780F9182701116A
:104E300002C0FF2019F0EAE3F9E115C01111FBCF20
:104E40005EE4852E5AE0952E2DEE37E03DA72CA787
:104E5000AE014F5F5F4F5A0107EA1AE01A0153E0B3
:104E6000500F58AB7BC084916F012FEFC21AD20A4A
:104E7000882321F00E944A34F601F5CFE4EEF4E0F5
:104E800084916F013FEFC31AD30A882321F00E9457
:104E90004A34F601F5CF002369F0E2EEF4E08491A4
:104EA0006F014FEFC41AD40A882321F00E944A34BC
:104EB000F601F5CFFF2069F0E0EEF4E084916F0198
:104EC0005FEFC51AD50A882321F00E944A34F60103
:104ED000F5CF111103C0E6EDF4E00DC0EEEDF4E006
:104EE00084916F019FEFC91AD90A8823A1F30E9408
:104EF0004A34F601F5CF84916F01AFEFCA1ADA0A8E
:104F0000882321F00E944A34F601F5CF111103C025
:104F100047E452E002C04DE252E0F11003C027E442
:104F200032E002C02FE232E0011103C087E492E0D8
:104F300002C081E392E05F934F933F932F939F933F
:104F40008F9384EC94E09F938F931F920E942199FA
:104F50000FB6F894DEBF0FBECDBFFFC3F40165915D
:104F6000759185919491ACA5BDA5CD90DD90ED9006
:104F7000FD90BDA7ACA7A70196010E941CD42B01F0
:104F80003C0120E030E040EA51EC0E947DD687FDF4
:104F900010C020E030E040EA51E4C301B2010E94B9
:104FA0003CDC181634F0F101408251826282738237
:104FB0000DC0F80184911816B4F7F7FAF094F7F8D9
:104FC000F094F101C082D182E282F382D101CD90CE
:104FD000DD90ED90FD901D0120E030E040EA51ECC5
:104FE000C701B6010E947DD687FF03C0EFE1F9E15A
:104FF0000BC020E030E040EA51E4C701B6010E9456
:105000003CDC181674F5F2CF84918F010F5F1F4FAF
:10501000882321F00E944A34F801F6CFE8E0F5E059
:1050200084918F010F5F1F4F882321F00E944A3423
:10503000F801F6CF61E08AEF94E00E9414AD0E947F
:105040001CA788E290E099A388A388EC90E09DA338
:105050008CA3BE01605E7F4FCE0184960E94BB820E
:105060007CC3B4E08B0E911C0F5F1F4FE8A9E013C7
:1050700075CF41EEE42E47E0F42E10E0F50181916A
:105080009191A191B1915F01F70181939193A193C6
:10509000B1937F01812F0E9411311F5F133071F78F
:1050A0000E94553D60E08AEE94E00E9414AD83E9D1
:1050B00092E09DA38CA304E610E019A308A3BE010F
:1050C0006C5D7F4FCE0180960E94BB828AEB92E09E
:1050D0009DA38CA319A308A3BE016C5D7F4FCE01D5
:1050E00080960E94BB8239C384918F010F5F1F4F4E
:1050F000882321F00E944A34F801F6CF83E50E940C
:105100006B33882321F00E94283380931801EEE44A
:10511000F5E084918F010F5F1F4F882321F00E94DB
:105120004A34F801F6CF80911801811103C0EAE4F6
:10513000F5E002C0E6E4F5E084918F010F5F1F4FB8
:10514000882321F00E944A34F801F6CFEEE3F5E01F
:1051500084918F010F5F1F4F882321F00E944A34F2
:10516000F801F6CF2091B8033091B9034091BA030A
:105170005091BB036091C4037091C5038091C60335
:105180009091C7030E941DD4AB01BC018CE395E054
:105190000E941D7A2091BC033091BD034091BE0353
:1051A0005091BF036091C8037091C9038091CA03F5
:1051B0009091CB030E941DD4AB01BC0189E395E023
:1051C0000E941D7A2091C0033091C1034091C20317
:1051D0005091C3036091CC037091CD038091CE03B5
:1051E0009091CF030E941DD4AB01BC0186E395E0F2
:1051F0000E941D7AEEE2F5E084918F010F5F1F4F50
:10520000882321F00E944A34F801F6CF2091B80398
:105210003091B9034091BA035091BB0360910C01E6
:1052200070910D0180910E0190910F010E941DD48B
:10523000AB01BC018CE295E00E941D7A2091BC0379
:105240003091BD034091BE035091BF0360911001A6
:105250007091110180911201909113010E941DD44F
:10526000AB01BC0189E295E00E941D7A2091C00348
:105270003091C1034091C2035091C3036091140166
:105280007091150180911601909117010E941DD413
:10529000AB01BC0186E295E00E941D7A8AE00E9483
:1052A0004A345BC283E50E94B233882309F455C2B5
:1052B0000E94043370930B0160930A014EC28DED7E
:1052C00090E00E941C38811148C283E50E94B233ED
:1052D0008823D9F10091431110E00E940433000F9C
:1052E000111FF801E85FFE4F7183608380914311C5
:1052F00090E08C01000F111F000F111F98012C5C12
:105300003E4F7901880F991FFC01E85FFE4F6081D5
:105310007181072E000C880B990B0E9443DC2AE058
:1053200037ED43E25CE30E94A2DCF801EC54FC4F51
:1053300020813181428153810E94A2DCD7016D938B
:105340007D938D939C93139708C2EAE3F9E18491CE
:105350008F010F5F1F4F882321F00E944A34F8010C
:10536000F6CF85E40E944A3480914311805D0E940B
:105370004A34E0914311F0E0EE0FFF1FE85FFE4F6B
:10538000608171818EE595E00E943A7A85E20E9403
:105390004A348AE00E944A34E0C180E50E946B33BF
:1053A000882309F4DAC10E9404336B017C0183E590
:1053B0000E94B233882321F00E9404338B0102C083
:1053C0000FEF1FEFC8010196039708F0C6C1D7FC85
:1053D000C4C19C2DE6E6F5E08DE28E0F2491921774
:1053E00009F438C631968E13F9CF37C683E50E948B
:1053F000B233882319F00E94043302C064E071E0E4
:1054000079A368A380E50E94B233882339F00E9413
:1054100004336938B3E17B0730F402C068EE73E00F
:105420007A83698304C088E893E19A838983BE0103
:10543000605E7F4FCE0101960E94BB828EC185E4E3
:105440000E94B233811110C080E50E946B33882323
:1054500091F00E9438336093D6037093D703809302
:10546000D8039093D90307C00E941433882361F3B3
:10547000EFE1F9E16EC089E40E946B33882381F08B
:105480000E9438332CEA35EC47E25EE30E94A2DC4E
:105490006093DE037093DF038093E0039093E10356
:1054A00084E40E946B33882381F00E9438332CEA15
:1054B00035EC47E25EE30E9417D56093DA03709300
:1054C000DB038093DC039093DD03EAE3F9E184914D
:1054D0008F010F5F1F4F882321F00E944A34F8018B
:1054E000F6CF4091D6035091D7036091D8037091C5
:1054F000D9038BE995E00E941D7A2CEA35EC47E24E
:105500005EE36091DE037091DF038091E003909190
:10551000E1030E9417D5AB01BC0187E995E00E9429
:105520001D7A2CEA35EC47E25EE36091DA03709174
:10553000DB038091DC039091DD030E94A2DCAB01D0
:10554000BC0183E995E00E941D7A8AE00E944A34FA
:1055500004C184918F010F5F1F4F882321F00E94A7
:105560004A34F801F6CFEFE9F5E084918F010F5F3F
:105570001F4F882309F4F1C00E944A34F801F5CF87
:1055800083E50E946B33182F882371F00E94383313
:105590000E9489D5709339016093380121E0672B0F
:1055A00009F020E02093F50B80E50E946B338823FF
:1055B00059F02091380130913901232B11F00E94CC
:1055C00028338093F50BC9C01111C7C0EAE3F9E194
:1055D00084918F010F5F1F4F882321F00E944A346E
:1055E000F801F6CF8091F50B811103C063E372E0FF
:1055F00002C060E272E086EC95E00E94537A60910E
:1056000038017091390185EB95E00E943A7AE1EB1F
:10561000F5E084918F010F5F1F4F882309F49DC02F
:105620000E944A34F801F5CF0E947A3896C00E9451
:10563000543493C00E942F5D90C00E94215D8DC0A4
:1056400083E50E946B33882321F00E94283391E088
:1056500089270E94A5BB81C081E08093F8030E9446
:10566000DB571092F803882309F477C0EAE3F9E1E5
:1056700084918F010F5F1F4F882321F00E944A34CD
:10568000F801F6CFE9EDF5E084918F010F5F1F4F30
:10569000882309F462C00E944A34F801F5CF81E002
:1056A00080933C011092920B83E50E94B2338823D1
:1056B00039F00E942833811150C00E949F454DC08F
:1056C00083E50E946B33F7CF0E944A6D46C0F0908D
:1056D00002030E94427BFF2029F1EAE3F9E1849171
:1056E0008F010F5F1F4F882321F00E944A34F80179
:1056F000F6CF84E50E944A346F2D70E080E090E0A0
:105700004AE00E94B43780E20E944A34E6EFF5E0B6
:1057100084918F010F5F1F4F8823F9F00E944A3454
:10572000F801F6CF10922911EAE3F9E184918F0193
:105730000F5F1F4F882321F00E944A34F801F6CFF3
:105740006091291170E084EE95E00E943A7A8AE037
:105750000E944A3402C00E944A6D0E948245A5C43C
:105760000E94BF3380911801882321F080EA93E0E2
:105770000E943B418091CA1083FDA5C0C090AC033C
:10578000D090AD03E090AE03F090AF032091F90705
:105790003091FA074091FB075091FC07C701B60111
:1057A0000E943CDC882309F48EC06091F60B709156
:1057B000F70B8091F80B9091F90B2091F50B2111CB
:1057C00029C00E9489D52091380130913901621792
:1057D000730704F5C092F907D092FA07E092FB072D
:1057E000F092FC07EAE3F9E184918F010F5F1F4F0C
:1057F000882321F00E944A34F801F6CFE5E4F1E075
:1058000084918F010F5F1F4F882321F00E944A343B
:10581000F801F6CF8090AC039090AD03A090AE035A
:10582000B090AF032091F9073091FA074091FB0740
:105830005091FC07C501B4010E941CD46B017C018E
:1058400020E030E0A9010E947DD687FF04C0F7FA6E
:10585000F094F7F8F094E091291124E0E29FF00130
:105860001124EC5CFE4F2081318142815381C701BC
:10587000B6010E94A2DC20E030E048E453E40E943C
:105880007DD6181604F58092F9079092FA07A09237
:10589000FB07B092FC07EAE3F9E184918F010F5F07
:1058A0001F4F882321F00E944A34F801F6CFE6E228
:1058B000F1E084918F010F5F1F4F882321F00E9438
:1058C0004A34F801F6CF60910A0170910B01072E5E
:1058D000000C880B990B0E9443DC20910001309151
:1058E000010140910201509103010E94A2DC2AE0D3
:1058F00037ED43E25CE30E94A2DC69837A838B8309
:105900009C83E090291118A619A61AA61BA6AE0121
:10591000485D5F4F6A018E010F5F1F4F2CEA33E035
:1059200048EA53E064EA73E080EA93E00E94B48BB3
:1059300080E1E0EAF3E0ADEEB7E001900D928A95E8
:10594000E1F70BCF11110C94F31E0C94EC1E0E9486
:105950000433AB01BC014093B7075093B807609381
:10596000B9077093BA0786E097E00E940E65F5CEFE
:105970000E9438330E9489D570931B0460931A04E7
:1059800080E00E940DB30E94383320E030E04AEA04
:1059900052E40E943CDC18162CF00E947A720E949D
:1059A0007CC802C00E946EB860911A0470911B04FA
:1059B000072E000C880B990B0E9443DC2091F60BFC
:1059C0003091F70B4091F80B5091F90B0E947DD666
:1059D000181634F05CA5511108C085E692E002C0AB
:1059E00082E792E060E00E9414AD0E949ECD81E0CB
:1059F000809332011CAA1DAA1EAA1FAA68961CAE7B
:105A00001DAE1EAE1FAE689718AA29961FAE299725
:105A10008CE32D968FAF2D979CE169969FAF699788
:105A2000A6E46196AFAF6197C12CD12C70E8E72E48
:105A3000EFEBFE2E812C912C540160911A04709191
:105A40001B04072E000C880B990B0E9443DC162FB9
:105A5000072F782E692E262F372F482F592FB60162
:105A6000C7010E943CDC8823C1F02091F60B3091E5
:105A7000F70B4091F80B5091F90B612F702F872D88
:105A8000962D0E943CDC881F8827881F88ABBCA508
:105A9000BB2339F0882329F0A1C11C2D0D2D7E2CAC
:105AA0006F2C0E94C3706B017C01DC01CB016896F6
:105AB0002CAD3DAD4EAD5FAD6897821B930BA40B33
:105AC000B50BB7FD3DC0D701C60188519C4FAF4F04
:105AD000BF4F68968CAF9DAFAEAFBFAF68970E94C7
