:100000000C943A170C9464170C9464170C946417AE
:100010000C9439580C9411580C94E9570C94C1570E
:100020000C9464170C9464170C9464170C94641764
:100030000C9464170C94897D0C9464170C946417C9
:100040000C9464170C9430700C9430CF0C9464179B
:100050000C94553D0C9464170C9464170C9464171D
:100060000C9464170C9464170C9464170C94641724
:100070000C9464170C9464170C9464170C94641714
:100080000C9464170C9464170C946417F1CDF4CDA0
:10009000E7CDEBCD0BCE0BCEF8CDFCCD02CE06CE10
:1000A0009FCEA4CEA9CEB3CEE1CEE1CEBDCEC5CEFD
:1000B000CDCED7CE084AD73B3BCE016E84BCBFFD28
:1000C000C12F3D6C74319ABD56833DDA3D00C77F28
:1000D00011BED9E4BB4C3E916BAAAABE00000080C1
:1000E0003F05A84CCDB2D44EB93836A9020C50B950
:1000F000918688083CA6AAAA2ABE000000803F007C
:10010000434F4D4D554E49434154494F4E00445283
:100110005952554E004552524F525300494E464F88
:10012000004543484F0047322F4733206261642027
:10013000706172616D65746572730A00536C6565F8
:10014000702E2E2E00486F6D6520585920666972FA
:1001500073740A00486F6D65205859206669727380
:1001600074004E6F206D6F76652E00456E642066BC
:10017000696C65206C6973740A00426567696E205A
:1001800066696C65206C6973740A00286E6F20665E
:10019000696C6529005344207072696E74696E67DA
:1001A000206279746520004E6F7420534420707271
:1001B000696E74696E670A0043757272656E7420A9
:1001C00066696C653A200046696C652064656C65FB
:1001D0007465643A0044656C6574696F6E2066618D
:1001E000696C65642C2046696C653A20002569734A
:1001F0000025696D20256973002569682025696DD2
:100200002025697300256964202569682025696DAA
:10021000202569730025697920256964202569688E
:100220002025696D20256973005072696E742074F1
:10023000696D653A200021011C0115010E010001C4
:100240006F66660044454255473A004B494C4C4561
:10025000442E20004D3131332053006F6B00205766
:100260003A004520436F6F6C696E672E2E2E004555
:100270002048656174696E672E2E2E0020573A0063
:1002800042656420636F6F6C696E672E2E2E00428C
:1002900065642068656174696E672E2E2E00414E7C
:1002A00045545F453130204F66662E005448455214
:1002B0004D414C5F50524F54454354494F4E0041BD
:1002C00055544F5245504F52545F53445F5354411D
:1002D00054555300454D455247454E43595F504193
:1002E0005253455200434153455F4C494748545F80
:1002F0004252494748544E45535300544F47474C88
:10030000455F4C494748545300534F465457415258
:10031000455F504F574552004255494C445F504548
:100320005243454E54004C4556454C494E475F4458
:10033000415441005A5F50524F4245004155544F7D
:100340004C4556454C005052494E545F4A4F42006E
:1003500050524F4752455353004155544F52455008
:100360004F52545F54454D5000564F4C554D4554D7
:1003700052494300454550524F4D00534552494163
:100380004C5F584F4E5F584F4646004649524D57B6
:100390004152455F4E414D453A4D61726C696E2048
:1003A000312E312E3920284769746875622920530F
:1003B0004F555243455F434F44455F55524C3A6851
:1003C000747470733A2F2F6769746875622E636F47
:1003D0006D2F4D61726C696E4669726D77617265E1
:1003E0002F4D61726C696E2050524F544F434F4CE9
:1003F0005F56455253494F4E3A312E30204D4143BE
:1004000048494E455F545950453A414E45545F4521
:1004100031302045585452554445525F434F554E54
:10042000543A3120555549443A6365646532613226
:10043000662D343161322D343734382D3962313202
:100440002D6335356336326633363766660A007A91
:100450005F6D696E3A2000795F6D696E3A200078B1
:100460005F6D696E3A20005265706F7274696E67D5
:1004700020656E6473746F70207374617475730A91
:10048000004D31343520533C696E6465783E206FF1
:100490007574206F662072616E67652028302D317B
:1004A000290A00205400205200416363656C657284
:1004B0006174696F6E3A205000486F6D6520257336
:1004C00025732573206669727374002066697273E0
:1004D000740A005A0059005800486F6D6520004F9B
:1004E000666673657473206170706C69656400453D
:1004F00072723A20546F6F206661722100546F6FE0
:10050000206661722066726F6D2072656665726525
:100510006E636520706F696E740A00205A0020595E
:1005200000580020204D61783A2000205A002059C0
:1005300000580020204D696E3A20004F6E20004F79
:10054000666600536F667420656E6473746F7073B3
:100550003A200020466C6F773A200000010F150EFC
:1005600012FFFFFFFF16170E13FFFFFFFF03021A14
:1005700014FFFFFFFFFFFFFF0C04FFFFFF01000E52
:10058000FFFFFF0C190DFF1820643A0020693A00A4
:1005900020703A00496E76616C69642065787472E7
:1005A000756465720A0043290A0061626C65642003
:1005B000286D696E2074656D702000436F6C642037
:1005C00065787472756465732061726520002364B8
:1005D0006566696E652044454641554C545F4B64E1
:1005E000200023646566696E652044454641554C8C
:1005F000545F4B69200023646566696E652044453D
:100600004641554C545F4B70200050494420417581
:10061000746F74756E652066696E697368656421B0
:100620002050757420746865206C617374204B7061
:100630002C204B6920616E64204B6420636F6E73C5
:1006400074616E74732066726F6D2062656C6F7773
:1006500020696E746F20436F6E666967757261748E
:10066000696F6E2E680A00504944204175746F749A
:10067000756E65206661696C6564212074696D65BD
:100680006F75740A00453120544845524D414C2045
:1006900052554E4157415900546865726D616C2046
:1006A00052756E61776179004531204865617469E2
:1006B0006E67206661696C65640048656174696E87
:1006C00067206661696C6564005049442041757417
:1006D0006F74756E65206661696C65642120546570
:1006E0006D706572617475726520746F6F206869D2
:1006F00067680A00204B643A2000204B693A2000CA
:10070000204B703A20000A20436C617373696320A8
:10071000504944200A002054753A2000204B753A75
:100720002000206D61783A2000206D696E3A20002B
:1007300020643A200020626961733A2000504944E5
:10074000204175746F74756E65206661696C6564AF
:100750002120426164206578747275646572206E30
:10076000756D6265720A00504944204175746F745A
:10077000756E652073746172740A004E6F20636138
:100780007365206C696768740A00454550524F4D87
:10079000204F4B0A00416374697665204578747276
:1007A000756465723A2000496E76616C69642065F3
:1007B000787472756465720A004E6F2043686563D1
:1007C0006B73756D2077697468206C696E65206E37
:1007D000756D6265722C204C617374204C696E6576
:1007E0003A20004B494C4C45442E200053544F5066
:1007F0005045442E20005072696E746572207374E7
:100800006F707065642064756520746F2065727206
:100810006F72732E20466978207468652065727245
:100820006F7220616E6420757365204D39393920EF
:10083000746F20726573746172742E202854656D14
:100840007065726174757265206973207265736575
:10085000742E20536574206974206166746572205B
:1008600072657374617274696E67290A004E6F2035
:10087000436865636B73756D2077697468206C6974
:100880006E65206E756D6265722C204C61737420EC
:100890004C696E653A2000636865636B73756D2003
:1008A0006D69736D617463682C204C617374204CA6
:1008B000696E653A20004C696E65204E756D626503
:1008C00072206973206E6F74204C617374204C69C0
:1008D0006E65204E756D6265722B312C204C6173F4
:1008E00074204C696E653A20004D313130004D3333
:1008F000310053442072656164206572726F720A20
:1009000000446F6E65207072696E74696E67206650
:10091000696C650A0020496E76616C6964206578AF
:100920007472756465722000000020C1000070C1FF
:10093000000000000000664300808E4300009643E4
:10094000486F6D696E67206661696C65640020742C
:100950006F6F206C6F6E6720657874727573696F46
:100960006E2070726576656E7465640A0020636F30
:100970006C6420657874727573696F6E207072652F
:1009800076656E7465640A00436C69636B20746FEE
:1009900020726573756D652E2E2E0050726F746512
:1009A000637465642050696E0A00205A3A00205929
:1009B0003A0020436F756E7420583A0020453A0083
:1009C000205A3A0020593A00583A003A00436170E0
:1009D0003A002F2F20004B494C4C45442E2000203C
:1009E0002D20496E76616C69642065787472756437
:1009F0006572206E756D62657220210A000000002C
:100A000000000000000000000000000000000000E6
:100A100000000000000000000000000000000000D6
:100A200000000000000000000000000000000000C6
:100A300000000000000000000000000000000000B6
:100A400000000000000000000000000000000000A6
:100A50000000000000000000000000000000000096
:100A60000000000000000000000000000000000086
:100A70000000000000000000000000000000000076
:100A80000000000000000000000000000000000066
:100A90000000000000000000000000000000000056
:100AA0000000000000000000000000000000000046
:100AB0000000000000000000000000000000000036
:100AC0000000000000000000000000000000000026
:100AD0000000000000000000000000000000000016
:100AE0000000000000000000000000000000000006
:100AF00000000000000000000000000000000000F6
:100B000000000000000000000000000000000000E5
:100B100000000000000000000000000000000000D5
:100B200000000000000000000000000000000000C5
:100B3000000000000000000000000000000000783D
:100B4000000000000000000000000000000007E0BE
:100B500000000000000000000000007000001F0006
:100B60000C007F00000000001FF8007000007801FA
:100B7000F000E380000000001DD000700001801F25
:100B80008001C1C00000000018000070000000FCDF
:100B9000000380E33807833C1800F073800007E00F
:100BA000000380E3FE1FC3FE1803FC7FC0001F008C
:100BB0000F0380E38E38E38E18071C70E000780086
:100BC000F80380E3073863061FF00C70E001C00FE4
:100BD000E00380E3073FE3071C007C706006007FB2
:100BE000000380E3073FE3071803FC70600001F88F
:100BF000000380E30738030718070C7060000FC07C
:100C00000381C1C30638030718060C70E0003E00DC
:100C10007C00F783DE1E630718073C7DE000F003CD
:100C2000F0007F03FC0FE3071803CE77C003001F1B
:100C3000800000030000000000000000000000FC35
:100C4000000000030000000000000000000003E0BE
:100C500000000003000000000000000000001F0072
:100C60001C0000030080000008000000000070016C
:100C7000F000000000020000000000000000000F73
:100C80008000000000800201200000000000007EC3
:100C9000000000000000000100000000000001E072
:100CA00000000000008050840000000000000000F0
:100CB0000000000000000000000000000000000034
:100CC0000000000000000000000000000000000024
:100CD0000000000000000000000000000000000014
:100CE0000000000000000000000000000000000004
:100CF00000000000000000000000000000000000F4
:100D000000000000000000000000000000000000E3
:100D100000000000000000000000000000000000D3
:100D200000000000000000000000000000000000C3
:100D300000000000000000000000000000000000B3
:100D400000000000000000000000000000000000A3
:100D50000000000000000000000000000000000093
:100D60000000000000000000000000000000000083
:100D70000000000000000000000000000000000073
:100D80000000000000000000000000000000000063
:100D90000000000000000000000000000000000053
:100DA0000000000000000000000000000000000043
:100DB0000000000000000000000000000000000033
:100DC0000000000000000000000000000000000023
:100DD0000000000000000000000000000000000013
:100DE0000000000000000000000000000000000003
:100DF000000000000000000000000000001FFFFFD6
:100E0000FFFFFFFF600000000001FF400000000046
:100E100000FF8000000000007F83CF00000C303F07
:100E200087FF80000C301F867980000C000F8C300B
:100E3000C7838C30E78C30CFC7CC31F38C30DCECFF
:100E4000EC33B98C30D86C6C33198C30D06C0C33DB
:100E5000198C30D86C0C33198C30DC6C0E3B198C2F
:100E600030CF7C079F198C30C77C038F194000005E
:100E700000000002600000000000061FFFFFFFFFEF
:100E8000FFF82020506C616E6E6572427566666573
:100E90007242797465733A20002046726565204D70
:100EA000656D6F72793A2000436F6D70696C65648F
:100EB0003A204F637420203320323031380A00202A
:100EC0007C20417574686F723A20284C6F75697385
:100ED000204F70656E6661622C20414E455420653E
:100EE0003130290A00323031382D30382D30310080
:100EF000204C61737420557064617465643A2000FD
:100F0000312E312E390A004D61726C696E0020530A
:100F10006F6674776172652052657365740A00208C
:100F20005761746368646F672052657365740A0063
:100F30002042726F776E206F7574205265736574EE
:100F40000A002045787465726E616C205265736585
:100F5000740A00506F77657255700A00737461727D
:100F6000740A006175746F25692E67006572726F6F
:100F7000722077726974696E6720746F2066696C7D
:100F8000650A00456E6473746F70732025632025B5
:100F90006320256320256300205A3A0020593A0037
:100FA00020583A00656E6473746F707320686974BA
:100FB0003A2000446F6E6520736176696E67206623
:100FC000696C652E0A004D3239007C3C3E5E2B3D3B
:100FD0003F2F5B5D3B2C2A225C004572726F7220B2
:100FE00077726974696E6720746F20454550524F5F
:100FF0004D210A00454550524F4D20646174617384
:10100000697A65206572726F722E0A0000002000F6
:101010002300260029000202020202020202040446
:10102000040404040404030303030303030301018E
:1010300001010101010101020408102040800102A8
:1010400004081020408001020408102040808040E5
:10105000201008040201000000010200000000004E
:10106000000004030807000000000000000000006A
:101070000000000000004D3234004D323320257353
:1010800000556E6B6E6F776E20636F6D6D616E6471
:101090003A20220053442063617264206F6B0A007F
:1010A0006F70656E526F6F74206661696C65640A5B
:1010B00000766F6C756D652E696E69742066616966
:1010C0006C65640A00534420696E69742066616926
:1010D0006C0A0020286D6D29002044002049002062
:1010E000204D3330312050005049442073657474D2
:1010F000696E67733A0A00204600204200204800CB
:1011000020204D3134352053004D61746572696182
:101110006C2068656174757020706172616D6574B2
:101120006572733A0A00205A0020590020204D327F
:101130003036205800486F6D65206F6666736574A1
:101140003A0A00204500205A00205900205800206B
:10115000540020530020204D3230352042002045DD
:101160003C6D61785F655F6A65726B3E0020583C3C
:101170006D61785F785F6A65726B3E20593C6D6186
:10118000785F795F6A65726B3E205A3C6D61785F6B
:101190007A5F6A65726B3E00416476616E63656476
:1011A0003A20423C6D696E5F7365676D656E745F72
:1011B00074696D655F75733E20533C6D696E5F6643
:1011C000656564726174653E20543C6D696E5F7440
:1011D000726176656C5F66656564726174653E0018
:1011E00020540020520020204D3230342050004145
:1011F0006363656C65726174696F6E2028756E69D2
:1012000074732F7332293A20503C7072696E745F88
:10121000616363656C3E20523C72657472616374F5
:101220005F616363656C3E20543C74726176656CEB
:101230005F616363656C3E0A00204500205A002010
:10124000590020204D3230312058004D6178696DB1
:10125000756D20416363656C65726174696F6E20A2
:1012600028756E6974732F7332293A0A002045007D
:10127000205A0020590020204D3230332058004D94
:101280006178696D756D20666565647261746573FA
:101290002028756E6974732F73293A0A002045005F
:1012A000205A0020590020204D3932205800537414
:1012B0006570732070657220756E69743A0A00203B
:1012C000204D3230302044300A0020204D32303062
:1012D0002044002044697361626C65640A004669B9
:1012E0006C616D656E742073657474696E67733AB2
:1012F0000020204D3134392043203B20556E697445
:101300007320696E2043656C736975730A00202031
:10131000473231202020203B0025753A2530327598
:1013200000253032753A2530327500257564202548
:101330003032753A253032750020202020202000E0
:101340005A005900202020200058000920000000E9
:10135000000000000000000000003FFFF00000005F
:1013600000000000000000000038007000000000D5
:10137000000000000000000030FC30000000000011
:101380000000000000000020FC1000000000000031
:1013900000000000000020781000000000000000A5
:1013A00000000000002030100000000000000000DD
:1013B000000000002C00D03FC00000000000000032
:1013C0002082002E31D07FE00000000000000010DD
:1013D00041002F7BD07FE0000000000000001041A2
:1013E000002F7BD07FE00000000000000020820082
:1013F0002E31D03FC0000000000000004104002C4E
:1014000000D03FC000000000000000820800203033
:10141000107FE0000000000000008208002078102B
:101420007FE00000000000000041040020FC107F6D
:10143000E00000000000000020820030FC301F802F
:10144000000000000000000000003800700F0000E5
:10145000000000000000FFFFC03FFFF0060000009A
:101460000000000000FFFFC00000000000000000BE
:10147000000000000000003FFFF00000000000003E
:1014800000000000000038007000000000000000B4
:101490000000000000318630000000000000000065
:1014A0000000000023871000000000000000000082
:1014B00000000027879000000000000000000000EE
:1014C00000002F87D0000000000000000000000096
:1014D000002F03D03FC00000000000000020820069
:1014E0002030107FE00000000000000010410020CC
:1014F00078107FE00000000000000010410020781C
:10150000107FE0000000000000002082002030106A
:101510003FC0000000000000004104002F03D03F46
:10152000C0000000000000008208002F87D07FE08C
:10153000000000000000008208002787907FE00084
:101540000000000000004104002387107FE000003D
:1015500000000000002082003186301F8000000063
:10156000000000000000003800700F0000000000C4
:10157000000000FFFFC03FFFF00600000000000079
:101580000000FFFFC000000000060900FE00000090
:10159000000001090008FE000005080806000040E0
:1015A000F0C88888987810050808060000C0F888F8
:1015B00088888888F80505050600012030F8302065
:1015C0000508080600002070F820202020E005090A
:1015D000090600FF2070A8A8B888887020050909AE
:1015E0000600FFE080C0B0A82830282805090906B9
:1015F00000FFF8A88888888888A8F8050A0A0600E5
:10160000FE205050505088A8A8887003030306009D
:101610000340A04000060900FE0701920321207F3D
:10162000FF07FF07FF000000060000010707060292
:101630000080808080800080030202060105A0A057
:101640000507070600005050F850F85050050707EE
:101650000600002078A07028F0200507070600008B
:10166000C0C810204098180507070600006090A029
:1016700040A89068020303060104C04080030707E6
:1016800006010020408080804020030707060100FB
:101690008040202020408005050506000120A8701C
:1016A000A8200505050600012020F82020020303DC
:1016B0000602FFC04080050101060003F802020295
:1016C000060200C0C0050505060001081020408084
:1016D0000507070600007088888888887003070758
:1016E00006010040C040404040E0050707060000FA
:1016F000708808708080F8050707060000F8102041
:10170000100808F005070706000010305090F81088
:1017100010050707060000F880F008088870050724
:1017200007060000708080F08888700507070600B3
:1017300000F8081020202020050707060000708808
:101740008870888870050707060000708888780808
:101750000870020505060200C0C000C0C0020606EF
:101760000602FFC0C000C04080040707060000104A
:10177000204080402010050303060002F800F80412
:10178000070706010080402010204080050707065B
:101790000000708808102000200507070600007070
:1017A000880868A8A870050707060000708888F8F0
:1017B000888888050707060000F08888F08888F088
:1017C000050707060000708880808088700507077D
:1017D000060000F08888888888F005070706000062
:1017E000F88080F08080F8050707060000F8808008
:1017F000F0808080050707060000708880B8888820
:1018000070050707060000888888F888888801071F
:101810000706020080808080808080050707060020
:10182000003810101010906005070706000088901F
:10183000A0C0A090880507070600008080808080F7
:1018400080F805070706000088D8A88888888805DA
:1018500007070600008888C8A89888880507070633
:10186000000070888888888870050707060000F0E7
:101870008888F080808005070706000070888888C7
:10188000A89068050707060000F08888F0A09088F7
:10189000050707060000788080700808F005070734
:1018A000060000F820202020202005070706000061
:1018B00088888888888870050707060000888888D7
:1018C000888850200507070600008888888888A82F
:1018D00050050707060000888850205088880507B3
:1018E000070600008888885020202005070706008A
:1018F00000F80810204080F8030707060100E08088
:1019000080808080E00505050600018040201008E9
:10191000030707060100E02020202020E005030344
:10192000060004205088050101060000F8020202AA
:1019300006020580400505050600007008788878D5
:101940000507070600008080B0C88888F0050505F7
:1019500006000070808088700507070600000808F0
:1019600068988888780505050600007088F88070FA
:101970000507070600003048E040404040050606E5
:101980000600FF7088887808700507070600008049
:1019900080B0C88888880107070602008000808020
:1019A0008080800308080601FF200020202020A05E
:1019B00040040707060000808090A0C0A0900307A5
:1019C00007060100C04040404040E0050505060014
:1019D00000D0A8A8A8A8050505060000B0C88888FA
:1019E00088050505060000708888887005060606CB
:1019F00000FFF08888F080800506060600FF7888E2
:101A000088780808050505060000B0C880808005B4
:101A1000050506000070807008F004070706000046
:101A20004040E040404030050505060000888888B9
:101A3000986805050506000088888850200505057A
:101A40000600008888A8A8500505050600008850F3
:101A50002050880506060600FF88888878087005EB
:101A60000505060000F8102040F8030707060100EE
:101A7000204040804040200107070602008080800F
:101A8000808080800307070601008040402040409E
:101A900080050202060002689000000006000010A7
:101AA00000C90210012C014001220170011801B08F
:101AB000010E01F00104015002FA00B002F0003002
:101AC00003E600D003DC009004D2007005C800A03B
:101AD00006BE000008B400B009AA00D00BA0006048
:101AE0000E960060118C000015820020197800C04D
:101AF0001D6E00A0226400B0275A00902C500000F8
:101B0000314600E0343C0010383200903A28006042
:101B10003C1E00A03D1400803E0A00203F0000450E
:101B20003120544845524D414C2052554E41574169
:101B3000590042454420544845524D414C2052558D
:101B40004E4157415900546865726D616C20527561
:101B50006E61776179004531204572723A204D41BE
:101B60005854454D50004572723A204D41585445E5
:101B70004D5020424544004D415854454D5020742D
:101B80007269676765726564004531204572723A13
:101B9000204D494E54454D50004572723A204D49F2
:101BA0004E54454D5020424544004D494E54454DFC
:101BB0005020747269676765726564004D3834201F
:101BC000582059205A204500202F002042403A003A
:101BD00020403A0057726974696E6720746F2066FE
:101BE000696C653A20006F70656E206661696C658E
:101BF000642C2046696C653A20006F70656E206623
:101C000061696C65642C2046696C653A2000466900
:101C10006C652073656C65637465640A00205369A4
:101C20007A653A200046696C65206F70656E656460
:101C30003A20002066696C653A2000646F696E671F
:101C4000006672657368004E6F772000454E442031
:101C5000535542524F5554494E450A002220706F49
:101C600073002220706172656E743A2200535542EF
:101C7000524F5554494E452043414C4C207461729B
:101C80006765743A22004B494C4C45442E20007441
:101C90007279696E6720746F2063616C6C20737554
:101CA000622D67636F64652066696C657320776970
:101CB000746820746F6F206D616E79206C65766535
:101CC0006C732E204D4158206C6576656C206973CD
:101CD0003A004572726F723A0043616E6E6F742003
:101CE0006F70656E20737562646972200065636849
:101CF0006F3A006F70656E206661696C65642C20B8
:101D000046696C653A200024F4D43050C38E20C25A
:101D1000A24017828B7011127A910D816CD90AA89A
:101D200061E108C7586607615143061E4B5D05C156
:101D300045A7041A411104093D9803713931034044
:101D400036DB0265339102D4305402802E1D0263CB
:101D50002CEE01752AC501B028A001102781018F42
:101D60002564012B244B01E0223401AC211F018D9D
:101D7000200D01801FFC00841EED00971DDF00B8C0
:101D80001CD200E61BC600201BBC00641AB200B2C5
:101D900019A8000A19A0006A189900D117910040EB
:101DA000178B00B516840031167E00B31579003A02
:101DB000157300C7146F0058146A00EE136600888C
:101DC00013630025135E00C7125B006C12570015E9
:101DD000125400C111510070114F0021114B00D657
:101DE0001049008D1047004610440002104200C008
:101DF0000F4000800F3E00420F3C00060F3B00CB1F
:101E00000E3800930E37005C0E3500270E3400F3B9
:101E10000D3200C10D3100900D3000600D2E0032EA
:101E20000D2D00050D2C00D90C2B00AE0C290085C2
:101E30000C29005C0C2700350C27000E0C2600E84E
:101E40000B2400C40B2400A00B23007D0B23005A9D
:101E50000B2100390B2100180B2000F80A1F00D9B4
:101E60000A1E00BB0A1E009D0A1D00800A1D006399
:101E70000A1C00470A1B002C0A1B00110A1A00F753
:101E8000091A00DD091900C4091900AB09190092EB
:101E90000917007B091800630917004C0916003662
:101EA000091600200916000A091500F5081500E0BA
:101EB000081400CC081400B8081400A408140090FA
:101EC0000813007D0812006B081300580812004622
:101ED0000812003408110023081100120811000133
:101EE000081100F0071000E0071000D0071000C034
:101EF000071000B0070F00A107100091070E008324
:101F0000070F0074070F0065070E0057070E004902
:101F1000070E003B070D002E070E0020070D0013D3
:101F2000070D0006070D00F9060C00ED060D00E098
:101F3000060C00D4060C00C8060C00BC060C00B051
:101F4000060C00A4060B0099060C008D060B0082FF
:101F5000060B0077060B006C060B0061060A0057A3
:101F6000060B004C060A0042060A0038060A002E3C
:101F7000060A0024060A001A060A001006090007CD
:101F8000060A00FD050900F4050900EB050900E259
:101F9000050900D9050900D0050900C7050900BEDB
:101FA000050900B5050800AD050800A50509009C58
:101FB000050800940508008C050800840508007CCD
:101FC000050800740508006C050700650508005D3C
:101FD000050700560508004E0507004705070040A5
:101FE00005080038050700310507002A050700230A
:101FF0000507001C050600160507000F0507000869
:1020000005060002050700FB040600F5040700EEC4
:10201000040600E8040600E2040700DB040600D51D
:10202000040600CF040600C9040600C3040600BD70
:10203000040600B7040600B1040500AC040600A6BF
:10204000040600A00405009B04060095040500900A
:102050000406008A04050085040500800406007A51
:1020600004050075040500700405006B0405006696
:10207000040500610405005C0405005704050052D6
:102080000405004D04050048040500430405003E16
:102090000404003A04050035040500300404002C53
:1020A00004050027040400230405001E0404001A8C
:1020B00004040016040500110404000D04040009C2
:1020C0000405000404040000040400FC030400F8F8
:1020D000030400F4030400F0030400EC030400E82C
:1020E000030400E4030400E0030400DC030400D85C
:1020F000030400D4030400D0030400CC030400C88C
:10210000030300C503030024F404D9201BC40C5CA2
:102110000E9804C4095F0265077101F405F900FB1C
:1021200004B30048048700C1036900580355000345
:10213000034500BE023A008402310053022A0029FE
:1021400002250004022000E4011C00C8011900AFB0
:10215000011700980114008401130071011000613F
:1021600001100051010E0043010D0036010B002B40
:10217000010B0020010B00150109000C01090003EF
:10218000010800FB000800F3000800EB000700E472
:10219000000600DE000600D8000600D2000600CCD3
:1021A000000500C7000500C2000500BD000400B91D
:1021B000000400B5000400B1000400AD000400A953
:1021C000000400A5000300A20003009F0004009B80
:1021D00000030098000300950002009300030090A4
:1021E0000003008D0002008B0003008800020086BF
:1021F00000020084000300810002007F0002007DD5
:102200000002007B000200790002007700010076E6
:102210000002007400020072000100710002006FF1
:102220000002006D0001006C0002006A00010069FC
:102230000002006700010066000100650001006403
:102240000002006200010061000100600001005F07
:102250000002005D0001005C0001005B0001005A0B
:10226000000100590001005800010057000100560C
:10227000000100550001005400010053000000530C
:102280000001005200010051000100500001004F08
:102290000001004E0000004E0001004D0001004C06
:1022A0000001004B0000004B0001004A0001004902
:1022B00000010048000000480001004700010046FE
:1022C00000000046000100450000004500010044F8
:1022D00000010043000000430001004200000042F2
:1022E0000001004100000041000100400001003FEA
:1022F0000000003F0001003E0000003E0001003DE4
:102300000000003D0001003C0000003C0000003CDB
:102310000001003B0000003B0001003A0000003AD1
:1023200000010039000000390001003800000038C9
:1023300000000038000100370000003700010036BF
:1023400000000036000000360001003500000035B6
:1023500000000035000100340000003400000034AB
:1023600000010033000000330000003300010032A0
:102370000000003200000032000100310000003196
:10238000000000310001003000000030000000308B
:102390000001002F0000002F0000002F0000002F80
:1023A0000001002E0000002E0000002E0001002D74
:1023B0000000002D0000002D0000002D0001002C69
:1023C0000000002C0000002C0000002C0001002B5D
:1023D0000000002B0000002B0000002B0001002A51
:1023E0000000002A0000002A0000002A0001002945
:1023F0000000002900000029000000290000002939
:10240000000100280000002800000028000000282B
:10241000000000280001002700000027000000271E
:102420000000002700000027000100260000002611
:102430000000002600000026000000260001002504
:1024400000000025000000250000002500000025F8
:1024500000000025000100240000002400000024EA
:1024600000000024000000240001002300000023DD
:1024700000000023000000230000002300000023D0
:1024800000000023000100220000002200000022C2
:1024900000000022000000220000002200010021B4
:1024A00000000021000000210000002100000021A8
:1024B0000000002100000021000100200000002099
:1024C000000000200000002000000020000000208C
:1024D00000000020000000200001001F0000001F7D
:1024E0000000001F0000001F0000001F0000001F70
:1024F0000000001F0001001E0000001E0000001E62
:102500000000001E000000043700001E29000051DA
:102510001B00005810000010090000CC04000078D7
:10252000020000410100006265640A002C207379FA
:102530007374656D2073746F7070656421204865D5
:10254000617465725F49443A2000426564206865A1
:102550006174696E67206661696C656400486561D5
:1025600074696E67206661696C6564004531204856
:10257000656174696E67206661696C6564004865B1
:102580006174696E67206661696C656400290A0080
:102590002062797465733B20637263200053657415
:1025A00074696E67732053746F7265642028002904
:1025B0000A002062797465733B20637263200020F7
:1025C00073746F7265642073657474696E677320C9
:1025D00072657472696576656420280020286361DD
:1025E0006C63756C6174656429210A0020213D20AB
:1025F00000454550524F4D20435243206D69736D45
:1026000061746368202D202873746F7265642920BB
:10261000002053697A653A2000496E6465783A2053
:1026200000204D61726C696E3D563535290A0028CF
:10263000454550524F4D3D00454550524F4D207637
:10264000657273696F6E206D69736D617463682064
:102650000048617264636F646564204465666175F7
:102660006C742053657474696E6773204C6F616479
:1026700065640A002823000088130000320000006F
:10268000102700000000C8430000C843000080403D
:102690000000C8410000A0420000A0420000C84362
:1026A0000000BE42496E697469616C697A652045B3
:1026B0004550524F4D00436F6E74726F6C005265FF
:1026C00073746F7265206661696C73616665004C36
:1026D0006F61642073657474696E677300496E6915
:1026E0007469616C697A6520454550524F4D0053BD
:1026F000746F72652073657474696E6773004669E0
:102700006C616D656E74004D6F74696F6E00546519
:102710006D7065726174757265004D61696E00500F
:102720007265686561742041425320636F6E660074
:102730005072656865617420504C4120636F6E660D
:10274000005049442D44005049442D440050494410
:102750002D49005049442D49005049442D50005006
:1027600049442D5000200820466163740020082051
:1027700046616374002008204D6178002008204DD8
:102780006178002008204D6178002008204D696E96
:10279000002008204D696E002008204D696E004F12
:1027A0006666004F6E20004175746F74656D700031
:1027B00046616E2073706565640046616E207370BB
:1027C0006565640042656400426564004E6F7A7A14
:1027D0006C65004E6F7A7A6C6500436F6E74726F31
:1027E0006C0053746F72652073657474696E6773DF
:1027F0000042656400426564004E6F7A7A6C650041
:102800004E6F7A7A6C650046616E20737065656400
:102810000046616E2073706565640054656D706577
:10282000726174757265006F6B00627573793A201E
:1028300070617573656420666F7220696E7075745F
:102840000A00627573793A20706175736564206659
:102850006F7220757365720A00627573793A207021
:10286000726F63657373696E670A004B494C4C4520
:10287000442E20004B494C4C2063617573656420E5
:10288000627920746F6F206D75636820696E616373
:10289000746976652074696D65202D206375727288
:1028A000656E7420636F6D6D616E643A2000506CCC
:1028B00065617365207265736574005052494E54AA
:1028C00045522048414C544544005072696E74652D
:1028D000722068616C7465642E206B696C6C2829A9
:1028E0002063616C6C6564210A00656E71756575A5
:1028F00065696E67202200000020C1000070C100E1
:102900000000005761726E696E673A20486F6D690A
:102910006E672042756D702044697669736F72200E
:102920003C20310A000202040000A0400000A04048
:1029300000000040000070430000964300009643F2
:10294000FFFFFF56652D6A65726B0056652D6A653F
:10295000726B0056652D6A65726B00567A2D6A653A
:10296000726B00567A2D6A65726B0056792D6A6516
:10297000726B0056792D6A65726B0056792D6A6507
:10298000726B0056782D6A65726B0056782D6A65F9
:10299000726B0056782D6A65726B004D6F74696FAB
:1029A0006E004573746570732F6D6D0045737465AB
:1029B00070732F6D6D005A73746570732F6D6D0099
:1029C0005A73746570732F6D6D00597374657073ED
:1029D0002F6D6D005973746570732F6D6D00587392
:1029E000746570732F6D6D005873746570732F6DFF
:1029F0006D004D6F74696F6E0053746570732F6D49
:102A00006D004A65726B00416363656C6572617449
:102A1000696F6E0056656C6F6369747900436F6E01
:102A200074726F6C0046696C2E204469612E0046FA
:102A3000696C2E204469612E004F6666004F6E203F
:102A4000004520696E206D6D3300436F6E74726FA8
:102A50006C0043616E6E6F7420656E7465722073D6
:102A600075626469723A2000022E2E00015265667A
:102A700072657368004D61696E000000C842000015
:102A8000C842000080400000000020746F6F206C7E
:102A90006F6E6720657874727573696F6E207072DF
:102AA0006576656E7465640A0020636F6C642065EA
:102AB0007874727573696F6E2070726576656E7466
:102AC00065640A005654726176206D696E00565432
:102AD000726176206D696E005654726176206D6960
:102AE0006E00566D696E00566D696E00566D696EAA
:102AF00000566D6178204500566D6178204500567E
:102B00006D6178204500566D6178205A00566D61E0
:102B100078205A00566D6178205A00566D617820F1
:102B20005900566D6178205900566D617820590022
:102B3000566D6178205800566D6178205800566DAA
:102B400061782058004D6F74696F6E00416D617837
:102B5000204500416D6178204500416D6178205A23
:102B600000416D6178205A00416D61782059004123
:102B70006D6178205900416D6178205800416D6188
:102B800078205800412D74726176656C00412D7477
:102B9000726176656C00412D7265747261637400B8
:102BA000412D7265747261637400416363656C00EA
:102BB000416363656C004D6F74696F6E00414E45F3
:102BC000545F4531302052656164792E005072693E
:102BD0006E74696E672E2E2E005072696E742070AE
:102BE0006175736564005072696E742061626F7202
:102BF000746564004D3231004E6F20534420636190
:102C00007264004368616E6765205344206361729B
:102C100064004D3231005072696E742066726F6DBF
:102C20002053440053746F70207072696E740049B1
:102C30006E69742E20534420636172640052657380
:102C4000756D65207072696E7400506175736520D2
:102C50007072696E7400436F6E74726F6C005072A4
:102C600065706172650054756E6500496E666F200F
:102C700073637265656E00466C6F7700466C6F77A4
:102C80000046616E2073706565640046616E207356
:102C9000706565640042656400426564004E6F7A49
:102CA0007A6C65004E6F7A7A6C6500537065656466
:102CB000005370656564004D61696E00507265680F
:102CC00065617420504C4120456E64005072656807
:102CD00065617420504C4120426564005072656803
:102CE00065617420504C41005072657061726500DE
:102CF000507265686561742041425320456E6400DE
:102D000050726568656174204142532042656400D9
:102D1000507265686561742041425300507265705D
:102D2000617265004D3432380050726568656174B7
:102D300020504C4100436F6F6C646F776E0050728F
:102D40006568656174204142530044697361626C37
:102D500065207374657070657273004D383400536C
:102D6000657420686F6D65206F66667365747300A7
:102D70004175746F20686F6D6500473238004D6F84
:102D800076652061786973004D61696E004D6F76DC
:102D9000652058004D6F76652059004D6F7665208F
:102DA0005A004578747275646572004D6F766520BF
:102DB000302E316D6D004D6F766520316D6D004D9B
:102DC0006F76652031306D6D004D6F7665206178CE
:102DD0006973004578747275646572004D6F76652D
:102DE000205A004D6F76652059004D6F766520584A
:102DF000004578747275646572004D6F7665205A6F
:102E0000004D6F76652059004D6F76652058005053
:102E100072657061726500526573656E643A200078
:102E200000002100240027002A00000022002500C5
:102E300028002B004E414E494E495459494E46CD2B
:102E4000CCCC3D0AD7233C17B7D13877CC2B329561
:102E500095E6241FB14F0A000020410000C842003F
:102E6000401C4620BCBE4CCA1B0E5AAEC59D740009
:102E7000FDD7EAD811241FBECFEFD0E4DEBFCDBF0F
:102E800012E0A0E0B1E0E0E8FBEC01E00BBF02C023
:102E900007900D92A436B107D9F722E1A4E6B2E07B
:102EA00001C01D92A43BB207E1F717E1C9E3D7E1E6
:102EB00004C02197FE010E9452D9C833D107C9F737
:102EC0000E9495CF0C94B3E50C9400002F923F9292
:102ED0004F925F926F927F928F929F92AF92BF922A
:102EE000CF92DF92EF92FF920F931F93CF93DF93D6
:102EF000CDB7DEB7CF56D1090FB6F894DEBF0FBEFF
:102F0000CDBF11E010932F0C809122128D3409F463
:102F1000F4C3843511F40C94D02C873411F00C9444
:102F2000142D80912012909121128430910509F482
:102F3000BBC14CF497FDDDC38230910514F50E94AE
:102F400038370C94162D8A35910509F415C324F4ED
:102F50004C9709F4E7C1CDC38B35910509F410C333
:102F60008C35910509F0C5C3B5E52B2EB1E03B2E9C
:102F70001DE3C12E1CE0D12EE12CF12C00E010E06D
:102F80003CC320912301222311F40C94162D11E04F
:102F9000029709F010E00E94513619821A821B82B2
:102FA0001C821D821E821F82188682E50E948F3538
:102FB000882309F42CC10E9415356B017C012091F6
:102FC0006F0C3091700C4091710C5091720C2CA3CD
:102FD0003DA34EA35FA38090730C9090740CA090BF
:102FE000750CB090760C8091BD049091BE04A091B8
:102FF000BF04B091C00488A799A7AAA7BBA7209136
:10300000C1043091C2044091C3045091C4042CA760
:103010003DA74EA75FA720E030E0A901C701B60198
:103020000E9483E1882309F408C12CA13DA14EA18F
:103030005FA168A579A58AA59BA50E9483E181115E
:103040000BC0A50194016CA57DA58EA59FA50E942E
:1030500083E1882309F4F1C020E030E0A901C70131
:10306000B6010E9483E1881F8827881F181309C0B2
:1030700080E090E0A0E8BFE38CAF9DAFAEAFBFAF04
:1030800008C020E030E040E85FEB2CAF3DAF4EAF32
:103090005FAF2CA13DA14EA15FA168A579A58AA52E
:1030A0009BA50E9463D96CAB7DAB8EAB9FABA5019A
:1030B00094016CA57DA58EA59FA50E9463D968AFDC
:1030C00079AF8AAF9BAF2CA93DA94EA95FA9CA01D0
:1030D000B9010E94E9E12B013C0128AD39AD4AADAF
:1030E0005BADCA01B9010E94E9E19B01AC01C301DA
:1030F000B2010E9464D90E9412DC68AB79AB8AAB42
:103100009BAB20E030E040E05FE30E94E9E12B016F
:103110003C01A7019601C701B6010E94E9E16B01DC
:103120007C01A3019201C301B2010E94E9E19B016C
:10313000AC01C701B6010E9463D90E9412DC9B0159
:10314000AC016CAD7DAD8EAD9FAD0E94E9E16B0130
:103150007C0128A539A54AA55BA56CA17DA18EA1FE
:103160009FA10E9464D920E030E040E05FE30E942C
:10317000E9E12B013C0168AD79AD8AAD9BAD90587A
:1031800028A939A94AA95BA90E945EDA9B01AC0172
:10319000C701B6010E94E9E19B01AC01C301B20184
:1031A0000E9464D92CA13DA14EA15FA10E9463D9C8
:1031B00069837A838B839C832CA53DA54EA55FA54F
:1031C000C501B4010E9464D920E030E040E05FE333
:1031D0000E94E9E12B013C0128A939A94AA95BA970
:1031E0006CA97DA98EA99FA90E945EDA9B01AC0102
:1031F000C701B6010E94E9E19B01AC01C301B20124
:103200000E9464D9A50194010E9463D912C089E487
:103210000E948F35882331F00E94153569837A83A7
:103220008B839C838AE40E948F35882331F00E942F
:1032300015356D837E838F83988720E030E0A90168
:1032400069817A818B819C810E9483E181110BC00D
:1032500020E030E0A9016D817E818F8198850E94F8
:1032600083E1882339F0612FCE0101960E94F74B4C
:103270000C94162DE2EDFCE184918F010F5F1F4F3E
:10328000882321F00E94DC36F801F6CFE6E2F1E077
:1032900084918F010F5F1F4F882311F40C94162D1A
:1032A0000E94DC36F801F4CF80E50E948F35882338
:1032B00029F00E94D1346B017C0103C0C12CD12CB8
:1032C000760183E50E948F35882361F00E941535D1
:1032D00020E030E04AE754E40E94E9E10E94D7DAB6
:1032E0006B017C010E94CA5380915508811105C071
:1032F00060E08CE391E00E9420AA0E9424CFC60ED9
:10330000D71EE81EF91E0E9424CFDC01CB018C19C8
:103310009D09AE09BF09B7FD02C00C94162D0E948D
:10332000D79AF1CF8091FA028770873071F48FE4D9
:103330000E948F35882319F00E94053503C08FE461
:103340000E94483581110C94162D0E94CA53809119
:10335000370190913801A0913901B0913A018093E1
:103360006B0290936C02A0936D02B0936E028091F9
:103370000A0190910B0190936A028093690284E69E
:1033800090E090930B0180930A0111E01093F902F1
:103390000E94645788E50E944835882E89E50E947E
:1033A0004835A82E8AE50E944835982E811005C020
:1033B000A11005C0B82EB12605C0A11002C0B12CC5
:1033C00001C0B82E90E1EFE6FCE0ADEBB4E0019077
:1033D0000D929A95E1F782E50E948F35882369F076
:1033E0000E9415352B013C0120E030E0A9010E942C
:1033F00083E1882309F43FC006C0412C512C00EA28
:10340000602E00E4702EB11005C0811003C0AA2008
:1034100009F442C04092C5045092C6046092C704A9
:103420007092C8042091770C3091780C4091790CFF
:1034300050917A0CC301B2010E94C4DB1816DCF46F
:1034400019821A821B821C822091730C3091740C99
:103450004091750C5091760C60916F0C7091700CCE
:103460008091710C9091720CDE0111966D018301B7
:1034700072010E94F0BAB11005C0811003C0A11002
:1034800006C00AC080E00E945799BB20C1F381E0CA
:103490000E945799B11003C0992009F446C0809149
:1034A000FA0283708330E9F060E084E591E00E94E5
:1034B00020AAEDEEFCE184918F010F5F1F4F88235E
:1034C00021F00E94DC36F801F6CFE5E4F1E08491CA
:1034D0008F010F5F1F4F882341F10E94DC36F801F6
:1034E000F6CF0E94AB331092BD041092BE0410922E
:1034F000BF041092C0041092C1041092C204109232
:10350000C3041092C4048091770C9091780CA09120
:10351000790CB0917A0C8093C5049093C604A09363
:10352000C704B093C8040E94B3D80E94AB33809103
:10353000F8028093F9020E94645780916B02909187
:103540006C02A0916D02B0916E028093370190934E
:103550003801A0933901B0933A01809169029091AA
:103560006A0290930B0180930A0183E080930C011F
:103570000E94683C0C94162D109268020C94162D33
:10358000109368020C94162D0E9415352B013C01F6
:10359000133059F0F701EE51FE4E20813181428106
:1035A00053810E9463D92B013C01F701E159F34F8C
:1035B0002081318142815381C301B2010E9463D9CC
:1035C0004B015C012DEB37E346E855EB0E94C4DB71
:1035D00087FD1BC02DEB37E346E855E3C501B40179
:1035E0000E9483E118168CF01F5FF4E0CF0ED11C0F
:1035F00024E0E20EF11C143031F1F10181911F0140
:103600000E948F35882381F3BFCF133051F440924D
:103610007B0C50927C0C60927D0C70927E0C01E0D1
:10362000E3CFA5019401D6016D917D918D919C917F
:103630000E9464D9F6016083718382839383812F12
:103640000E94EE32D1CF002309F44FC020E030E0D9
:10365000A90160917B0C70917C0C80917D0C909104
:103660007E0C0E9464D92091C3113091C411409105
:10367000C5115091C6110E94E9E10E94D1DB60930F
:10368000D1087093D2088093D3089093D408909176
:10369000AF088091B008981719F00E946C5325C0AC
:1036A0000E94CA5380916F0081FB992790F981FF96
:1036B00005C080916F008D7F80936F004091D1088D
:1036C0005091D2086091D3087091D4084093940B24
:1036D0005093950B6093960B7093970B992329F059
:1036E00080916F00826080936F000E94683C0C9410
:1036F000162D0E94C24F0C94162D8091201290918D
:1037000021128137910509F40DC50CF0BBC08A3236
:10371000910509F41EC40CF05AC08831910509F4D2
:10372000DAC1A4F58231910509F4DBC5BCF497FF39
:1037300002C00C94CD2C823091050CF47DC14197D0
:1037400011F00C94CD2C60E082E691E00E9420AA5A
:103750005E985E9815985E980C94162D85319105AB
:1037600009F4AFC13CF4449711F00C94CD2CEAE776
:10377000F1E066C18631910509F4A7C1479711F0C0
:103780000C94CD2C0E94AE320C94162D8C319105E8
:1037900009F452C264F48A31910509F4A5C10CF010
:1037A000B1C11092F5080E94047D0C94162D8E3143
:1037B000910509F44BC214F40C94162D8F31910528
:1037C00009F421C3809709F4D2C20C94CD2C8C3516
:1037D000910509F4D6C534F58135910509F463C521
:1037E0008CF48C34910509F4FDC38D34910509F4F2
:1037F000FDC38B34910511F00C94CD2C0E94CA7C32
:103800000C94162D8335910509F466C50CF460C53A
:103810008435910509F465C58535910509F496C58A
:103820000C94CD2C8C36910509F474C4C4F48936FB
:10383000910509F4A3C434F48836910509F4DAC378
:103840000C94CD2C8A36910509F429C58B36910547
:1038500011F00C94CD2C0E949C350C94162D8E36B4
:10386000910509F4F6C30CF4CBC48F36910509F425
:1038700003C48037910511F00C94CD2C8BE492E0B9
:103880000E94769A8C3D910511F40C9482270CF0DD
:103890005EC08139910509F4EBC60CF586379105B8
:1038A00009F46DC664F48337910509F4F9C50CF485
:1038B000F1C58537910509F451C60C94CD2C883794
:1038C000910509F4C4C60CF45EC68937910509F464
:1038D000C7C68C38910509F4AFC40C94CD2C8B3C31
:1038E000910509F4A0C7F4F48E3B910509F4C2C414
:1038F00034F48B39910509F45CC40C94CD2C883CCC
:10390000910509F42FC7893C910511F00C94CD2C39
:10391000AEECEA2EA1E1FA2E05E511E0B4E0DB2ED3
:10392000D00E68C78D3C910511F40C94A9240CF4B9
:1039300098C78E3C910511F40C941625833D910592
:1039400011F00C94CD2CEDEEFCE10C94A4268A39F8
:1039500031E0930709F4E2C38CF58D3251E095070D
:1039600011F40C94512894F4823E910511F40C94B6
:10397000FD278C32B1E09B0711F40C9428288D3D73
:10398000910511F00C94CD2C0C948F278F32E1E02F
:103990009E0711F40C94462914F40C94F2288336F3
:1039A00021E0920711F40C946B2C8039914011F0B6
:1039B0000C94CD2C0E94CA530C94162D873F41E0E5
:1039C000940711F40C948A2CECF4843FA1E09A073C
:1039D00011F40C94842C3CF48C3A914011F40C9426
:1039E00038250C94CD2C853FF1E09F0711F40C9401
:1039F000872C863F914011F00C94CD2C0E949C8422
:103A00000C94162D8B3833E0930711F40C94162D7B
:103A10003CF4883F914011F40C94952C0C94CD2CDF
:103A2000803AA3E09A0709F4E1C1873E934011F47C
:103A30000C94B82C0C94CD2C0E94C7350C94162DE8
:103A400084918F010F5F1F4F882321F00E94DC3685
:103A5000F801F6CF1092720B40E050E0BA0185E217
:103A600099E00E9458418BE1E5E2F9E0DE0115960C
:103A700001900D928A95E1F7809123099091240994
:103A80009C838B838BE791E09A83898340E050E0AD
:103A9000BE016F5F7F4F80E090E00E947374CE01A3
:103AA00001960E945A9AEBE6F1E084918F010F5F34
:103AB0001F4F882311F40C94162D0E94DC36F80158
:103AC000F4CF0E94D44A0C94162D1092F50810924F
:103AD000F6080C94162D8091F60881111093F508C4
:103AE0000E94CA7C0C94162D8091F608882311F44C
:103AF0000C94162D83E50E948F3581110C941B2D9B
:103B00000C94162D83E40E944835882309F454C090
:103B1000E8EBF1E084918F010F5F1F4F882321F0C4
:103B20000E94DC36F801F6CF8091C00A882391F01C
:103B3000BE016F5F7F4F8DEB9AE00E941B968E0156
:103B40000F5F1F4FF80181918F01882381F10E943F
:103B5000DC36F8CFEBE8F1E084918F010F5F1F4F67
:103B6000882329F10E94DC36F801F6CF8091B61146
:103B7000882309F4C2C2F6E3CF2EF2E0DF2EE12C57
:103B8000F12C20E08091B61190E00E2C02C09595AA
:103B900087950A94E2F780FD98C2FFEFEF1AFF0ABB
:103BA00032E0C30ED11C45E0E416F10459F78AE077
:103BB0000E94DC360C94162D8091F608882371F152
:103BC0008091F508882351F1E5E9F1E084918F01B6
:103BD0000F5F1F4F882321F00E94DC36F801F6CFDB
:103BE00060916E0B70916F0B8091700B9091710BC7
:103BF0004AE00E94E93A8FE20E94DC3660916A0B4B
:103C000070916B0B80916C0B90916D0B4AE00E9450
:103C1000E93A8AE00E94DC360C94162DE7EAF1E0DE
:103C200084918F010F5F1F4F882311F40C94162D80
:103C30000E94DC36F801F4CF40E060E080911E1273
:103C400090911F120E949E760C94162D8091F6087A
:103C5000882311F40C94162D8DEB9AE00E942541D7
:103C60008DEB9AE00E94F6951092F4081092F308FA
:103C700000911E1210911F128091F608882311F4F2
:103C80000C94162D0E947A73B801CE0180960E9482
:103C9000C2728C01892B11F40C94162D68A179A1A4
:103CA0006115710511F06C5F7F4F19821C8222E053
:103CB000A801CE0101960E945247811102C0F12C49
:103CC00014C0CE0101960E9430728823C1F361E0D6
:103CD000CE0101960E94FF95009789F325EEDC0145
:103CE0002C931C820E94323FF82ECE0101960E9436
:103CF000D636FF2011F1E7ECF1E084917F01BFEFB0
:103D0000EB1AFB0A882321F00E94DC36F701F5CF7D
:103D1000F80181918F01882319F00E94DC36F8CFD9
:103D20008AE00E94DC3610926E0B10926F0B10929C
:103D3000700B1092710B0C94162DE5EDF1E084914F
:103D40007F012FEFE21AF20A882321F00E94DC366D
:103D5000F701F5CFD8018D918D01882319F00E94CC
:103D6000DC36F8CF8EE20E94DC360C94162D809162
:103D7000F50881110E94CA538091F608882311F436
:103D80000C94162D80E50E948F35882319F00E942F
:103D9000053503C080E50E944835182F482F61E0A3
:103DA00080911E1290911F120E949E7683E50E94C0
:103DB0008F35882381F00E94E134AB01BC01409330
:103DC0006E0B50936F0B6093700B7093710B8DEBB8
:103DD0009AE00E9458418091F608882319F081E00A
:103DE0008093F50811110C94162D7ACE80911E1235
:103DF00090911F1221E02093F40840E060E00E94BF
:103E00009E760C94162D0E94967CACE3CA2ED12C83
:103E1000E12CF12CA70196010E9477E5B62EA72E82
:103E2000CA01B901A70196010E9477E56B017C01E7
:103E3000CA01B90128E130E040E050E00E9477E596
:103E40002B013C01C9016DE671E00E940BD98E0186
:103E50000F5F1F4F6115710599F0AF92BF92DF920E
:103E6000CF925F924F929F938F937F936F9385E151
:103E700092E09F938F931F930F930E941AE112C0B9
:103E80000097B1F0AF92BF92DF92CF925F924F92C4
:103E90009F938F9385E092E09F938F931F930F934F
:103EA0000E941AE10FB6F894DEBF0FBECDBF36C038
:103EB000411451046104710479F0AF92BF92DF9212
:103EC000CF925F924F9289EF91E09F938F931F93D0
:103ED0000F930E941AE1E6CFC114D104E104F1046A
:103EE00069F0AF92BF92DF92CF9281EF91E09F9302
:103EF0008F931F930F930E941AE1D4CFAF92BF927A
:103F00008DEE91E09F938F931F930F930E941AE180
:103F10000F900F900F900F900F900F9060E0C801DE
:103F20000E945AAAEDEEFCE184917F019FEFE91A0D
:103F3000F90A882321F00E94DC36F701F5CFB80199
:103F400089E292E00E94DB528AE00E94DC360C9407
:103F5000162D83E50E948F35882311F40C94162DBD
:103F60000E94F134E82E80E50E948F35882311F4F9
:103F70000C94162D0E94F134182F87FF02C00C9468
:103F8000162D89E40E948F35882349F00E9405355B
:103F9000811111C0EBE5F5E08DE28E0F07C089E4D9
:103FA0000E944835F5CF31968E1729F09491191358
:103FB000FACF0C94B23061E0812F0E943CCE6E2D7E
:103FC000812F0E940CCEF12CB701812F0E9478CE58
:103FD000143011F00C94162DF092E00CE092DF0CEE
:103FE0000C94162D0E94047D0C94162D0E94197DB0
:103FF0000C94162D88E690E00E94513B81110C94A0
:10400000162D8091B61183FF02C00C94162D83E506
:104010000E948F358823C9F00E9415350E94D0DA9E
:104020007093AB046093AA0480E00E94A1710E9487
:10403000153520E030E04AEA52E40E9483E1181688
:1040400024F00E94197D0E94E1C20E942ED70C9498
:10405000162D8EE40E948F35882311F40C94162DB2
:104060000E94E13460935108709352088093530882
:10407000909354080C94162D83E50E9448358823AC
:1040800059F083E50E948F35882319F00E94F1349E
:1040900001C080E08093B611EDEEFCE184918F01C8
:1040A0000F5F1F4F882321F00E94DC36F801F6CF06
:1040B000E4E4F2E084918F010F5F1F4F882309F43D
:1040C00055CD0E94DC36F801F5CFBB24B394B20E77
:1040D000222319F08CE20E94DC36F60125913491FE
:1040E000F901849189010F5F1F4F882321F00E94FD
:1040F000DC369801F5CF2B2D50CDE0E4F2E0849131
:104100008F010F5F1F4F882309F451CD0E94DC36C9
:10411000F801F5CF109206010C94162D0E94B533CC
:104120000C94162D83E50E948F35882369F00E9438
:10413000F1348D3320F4809330010C94162D8CE3F0
:10414000809330010C94162DEDEEFCE184918F01EB
:104150000F5F1F4F882321F00E94DC36F801F6CF55
:104160004091300150E060E070E084E592E00E9410
:1041700088528AE00E94DC360C94162D89E690E085
:104180000E94513B811111C0EBE5F2E084918F0157
:104190000F5F1F4F882321F00E94DC36F801F6CF15
:1041A0000E94676E8AE00E94DC3610922F0C0C94FD
:1041B0001E3283E50E948F35882311F40C94162D4E
:1041C0000E94F134182F8D3308F01CE310933C0C3F
:1041D0000E9424CF6B017C01212F30E0A8EEB3E0D8
:1041E0000E94A4E5C60ED71EE81EF91EC092380C28
:1041F000D092390CE0923A0CF0923B0C0C94162DB4
:104200008DE690E00E94513B81110C94162D809117
:10421000B61183FF02C00C94162D83E50E948F35E2
:104220008CA381110C942C2D82E50E948F35811175
:104230000C942C2D0C94162D8091B61183FF02C086
:104240000C94162D83E50E948F35882311F40C946D
:10425000162D0E9415350E94D0DA6238710514F0CF
:1042600062E870E07093A9046093A8040E945671FC
:104270000C94162D8091B61183FF02C00C94162D5C
:1042800083E50E948F358CAF81110C94C52E82E599
:104290000E948F3581110C94C52E0C94162D0E940E
:1042A000AB350C94162D0E94EC710E94E1541092D3
:1042B000E00C1092DF0C68EE73E080E090E00E946A
:1042C0007B6A60E08EE992E00E9420AA0C94162D91
:1042D000109267020C94162D81E0809367020C9473
:1042E000162D83E50E948F358823A1F00E94153595
:1042F00020E030E04AE754E40E94E9E10E94D7DA86
:1043000060933101709332018093330190933401B3
:104310000C94162D88E50E94483581110C94653067
:1043200089E50E94483581110C9465308AE50E9428
:10433000483581110C94653085E40E94483581111F
:104340000C9465300E94E1540C94162D83E50E9474
:104350004835882311F40C94162D0E94153520E061
:1043600030E04AE754E40E94E9E10E94D7DA609322
:10437000340C7093350C8093360C9093370C0C945E
:10438000162D35E5C32E31E0D32E47EBE42E41E167
:10439000F42E10E0D6018D916D010E9448358823DE
:1043A00009F46DC0133009F063C00E9415354B014C
:1043B0005C0120E030E040EA51E40E9483E187FFA5
:1043C0004EC0A50194016091C3117091C4118091F8
:1043D000C5119091C6110E945EDA2B013C019B0130
:1043E000AC0160918B0C70918C0C80918D0C909134
:1043F0008E0C0E94E9E160938B0C70938C0C80937F
:104400008D0C90938E0CA30192016091BB0C709166
:10441000BC0C8091BD0C9091BE0C0E94E9E16093B0
:10442000BB0C7093BC0C8093BD0C9093BE0C609140
:104430009B0C70919C0C80919D0C90919E0C0E9405
:1044400088E1A30192010E94E9E10E94D7DA60931A
:104450009B0C70939C0C80939D0C90939E0C80926F
:10446000C3119092C411A092C511B092C61107C099
:104470000E941535F70160837183828393831F5FE8
:10448000F4E0EF0EF11C143009F084CF0E94B55413
:104490000C94162D0E94CA530E94683C0C94162D51
:1044A000EBE8F3E084918F010F5F1F4F882321F029
:1044B0000E94DC36F801F6CF60E08BE793E00E94C3
:1044C000AF3B61E084E793E00E94AF3B61E089E6A7
:1044D00093E00E94AF3B61E089E593E00E94AF3B2F
:1044E00060E080E593E00E94AF3B61E086E493E00A
:1044F0000E94AF3B60E08CE393E00E94AF3B60E042
:1045000084E393E00E94AF3B60E086E293E00E9488
:10451000AF3B60E088E193E00E94AF3B60E089E060
:1045200093E00E94AF3B60E08BEF92E00E94AF3BD4
:1045300060E085EE92E00E94AF3B60E084ED92E0A7
:104540000E94AF3B60E08FEB92E00E94AF3B61E0E6
:104550008CEA92E00E94AF3B0C94162D80911E12C3
:1045600090911F12DC012C91211104C00E94E1C224
:104570000C94162D60E00E945AAA0C94162D0E94ED
:10458000E6360C94162DE7E6F4E084918F010F5F78
:104590001F4F882321F00E94DC36F801F6CFEFE5AB
:1045A000F4E084918F010F5F1F4F882321F00E9458
:1045B000DC36F801F6CF329B03C00FE112E002C0F7
:1045C00004E212E0F80181918F01882319F00E9422
:1045D000DC36F8CF8AE00E94DC36E7E5F4E084912F
:1045E0008F010F5F1F4F882321F00E94DC36F801F6
:1045F000F6CF339B03C00FE112E002C004E212E0E9
:10460000D8018D918D01882319F00E94DC36F8CFF6
:104610008AE00E94DC36EFE4F4E084918F010F5FC2
:104620001F4F882321F00E94DC36F801F6CF349B1F
:1046300003C00FE112E002C004E212E0F801819130
:104640008F01882309F4B3CA0E94DC36F7CF81E0DA
:104650008093F9028093F8020E9464570C94162DFF
:104660001092F9021092F8020E9464570C94162DD1
:1046700083E50E948F35882319F00E94E13402C03F
:1046800060E070E08B01112702301105D4F0E2EDFB
:10469000FCE184918F010F5F1F4F882321F00E945E
:1046A000DC36F801F6CFE1E8F4E084918F010F5F8A
:1046B0001F4F882311F40C94162D0E94DC36F8014C
:1046C000F4CF88E40E948F358823A9F00E94E1345A
:1046D0006A3A71053CF06530F1E07F072CF064E048
:1046E00071E002C06AEA70E0F801EE0FFF1FE15EC0
:1046F000F34F7183608386E40E948F358823A9F08D
:104700000E94E134F801EE0FFF1FED5DF34F71835E
:1047100060836F3F710519F014F06FEF70E077FF61
:1047200002C060E070E07183608382E40E948F3594
:10473000882311F40C94162D0E94E1346530710524
:1047400034F0643771052CF063E770E002C065E077
:1047500070E0000F111FF801E55EF34F7183608375
:104760000C94162D88EC90E00E94513B81110C9422
:10477000162D84E40E9448358823C1F10E94153526
:1047800011E020E030E0A9010E9483E1811101C025
:1047900010E01093550C112349F10E941535E0915A
:1047A000320724E0E29FF0011124EF5AF34F6083B7
:1047B00071838283938320E030E0A9016091510CE2
:1047C0007091520C8091530C9091540C0E9483E193
:1047D00081110CC080E090E0A0EEBFE38093510C0B
:1047E0009093520CA093530CB093540C0E942352FC
:1047F0000C94162DD8018D918D010E944835882387
:1048000049F00E9415350E94D7DAF7016083718361
:1048100082839383F4E0EF0EF11CD012EBCF0E9461
:1048200002530C94162DEFEAEE2EECE0FE2E05E579
:1048300011E0F4E0DF2ED00ED8018D918D010E94A1
:104840004835882339F00E941535F701608371835C
:1048500082839383F4E0EF0EF11CD012EDCF0C9421
:10486000162D83E50E948F358823A1F00E9415350F
:104870006093A70C7093A80C8093A90C9093AA0C3A
:104880006093A30C7093A40C8093A50C9093A60C3A
:1048900010E001C011E080E50E948F35882359F0B7
:1048A0000E9415356093A70C7093A80C8093A90CF7
:1048B0009093AA0C10E082E50E948F35882359F06E
:1048C0000E9415356093AB0C7093AC0C8093AD0CCB
:1048D0009093AE0C10E084E50E948F35882361F040
:1048E0000E9415356093A30C7093A40C8093A50CC3
:1048F0009093A60C0C94162D112311F40C94162DE4
:104900004091A70C5091A80C6091A90C7091AA0C31
:1049100089EA94E00E94A5524091AB0C5091AC0CF6
:104920006091AD0C7091AE0C86EA94E00E94A552A5
:104930004091A30C5091A40C6091A50C7091A60C11
:1049400083EA94E00E94A5528AE00E94DC360C942F
:10495000162D82E40E944835882351F00E94D134FC
:104960006093C30C7093C40C8093C50C9093C60CD9
:1049700083E50E944835882351F00E9415356093E5
:10498000DB0C7093DC0C8093DD0C9093DE0C84E5E3
:104990000E944835882351F00E9415356093D70C4A
:1049A0007093D80C8093D90C9093DA0C88E50E9410
:1049B0004835882351F00E94153560937F0C709321
:1049C000800C8093810C9093820C89E50E9448357D
:1049D000882351F00E9415356093830C7093840CEA
:1049E0008093850C9093860C8AE50E944835882335
:1049F00051F00E9415356093870C7093880C80935A
:104A0000890C90938A0C85E40E944835882311F420
:104A10000C94162D0E94153560938B0C70938C0CA2
:104A200080938D0C90938E0C0C94162D65E5C62EFC
:104A300061E0D62E7BEFE72E72E0F72E10E0D60174
:104A40008D916D010E944835882351F00E941535E3
:104A5000F7016083718382839383812F0E94EE32FA
:104A60001F5FF4E0EF0EF11C133049F70C94751B37
:104A70008091DB06082F017011E0012781FBFF24E4
:104A8000F0F8F12682FB882780F91827011102C06F
:104A9000FF2019F0EDEEFCE115C01111FBCF57EF2F
:104AA000852E58E2952E2FE63CE03DA32CA3AE01C7
:104AB0004F5F5F4F5A0100E419E21A0153E0500FB3
:104AC00058A77BC084916F012FEFC21AD20A8823A6
:104AD00021F00E94DC36F601F5CFE9EDF4E0849197
:104AE0006F013FEFC31AD30A882321F00E94DC36FE
:104AF000F601F5CF002369F0E7EDF4E084916F0152
:104B00004FEFC41AD40A882321F00E94DC36F60144
:104B1000F5CFFF2069F0E5EDF4E084916F015FEFE0
:104B2000C51AD50A882321F00E94DC36F601F5CF9C
:104B3000111103C0EBECF4E00DC0E3EDF4E084915F
:104B40006F019FEFC91AD90A8823A1F30E94DC36AE
:104B5000F601F5CF84916F01AFEFCA1ADA0A882304
:104B600021F00E94DC36F601F5CF111103C042E6B8
:104B700052E002C04EE252E0F11003C022E632E001
:104B800002C020E332E0011103C082E692E002C0DD
:104B900082E392E05F934F933F932F939F938F9382
:104BA00089EB94E09F938F931F920E94BB4A0FB6AC
:104BB000F894DEBF0FBECDBF39C7F4016591759182
:104BC00085919491ACA1BDA1CD90DD90ED90FD902B
:104BD000BDA3ACA3A70196010E9463D92B013C01A0
:104BE00020E030E040EA51EC0E94C4DB87FD10C0B9
:104BF00020E030E040EA51E4C301B2010E9483E1C9
:104C0000181634F0F10140825182628273820EC024
:104C1000F80184911816B4F7F7FAF094F7F8F094C5
:104C2000D101CD92DD92ED92FC921397D101CD90FE
:104C3000DD90ED90FD901D0120E030E040EA51EC68
:104C4000C701B6010E94C4DB87FF03C0E2EDFCE1AF
:104C50000BC020E030E040EA51E4C701B6010E94F9
:104C600083E1181674F5F2CF84918F010F5F1F4F07
:104C7000882321F00E94DC36F801F6CFEDEFF4E056
:104C800084918F010F5F1F4F882321F00E94DC3633
:104C9000F801F6CF61E08FEE94E00E9420AA0E9416
:104CA000056288E290E099A388A388EC90E09BA33A
:104CB0008AA3BE01605E7F4FCE0182960E948F78EC
:104CC000B5C6B4E08B0E911C0F5F1F4FE8A5E01333
:104CD00074CF4BEFE42E42E0F42E10E0F501819109
:104CE0009191A191B1915F01F70181939193A1936A
:104CF000B1937F01812F0E94EE321F5F133071F755
:104D00000E94683C60E08FED94E00E9420AA83E955
:104D100092E09BA38AA304E610E019A308A3BE01B6
:104D20006E5D7F4FCE0180960E948F788AEB92E075
:104D30009BA38AA319A308A3BE016E5D7F4FCE017A
:104D400080960E948F7872C684918F010F5F1F4FEB
:104D5000882321F00E94DC36F801F6CF83E50E941B
:104D60004835882321F00E94053580930901E3E44A
:104D7000F5E084918F010F5F1F4F882321F00E947F
:104D8000DC36F801F6CF80910901811103C0EFE311
:104D9000F5E002C0EBE3F5E084918F010F5F1F4F58
:104DA000882321F00E94DC36F801F6CFE3E3F5E03A
:104DB00084918F010F5F1F4F882321F00E94DC3602
:104DC000F801F6CF2091E2113091E3114091E41106
:104DD0005091E5116091EE117091EF118091F011F9
:104DE0009091F1110E9464D9AB01BC0181E395E07F
:104DF0000E94A5522091E6113091E7114091E811EF
:104E00005091E9116091F2117091F3118091F411B8
:104E10009091F5110E9464D9AB01BC018EE295E03E
:104E20000E94A5522091EA113091EB114091EC11B2
:104E30005091ED116091F6117091F7118091F81178
:104E40009091F9110E9464D9AB01BC018BE295E00D
:104E50000E94A552E3E2F5E084918F010F5F1F4F9E
:104E6000882321F00E94DC36F801F6CF2091E21170
:104E70003091E3114091E4115091E51160914301AB
:104E80007091440180914501909146010E9464D93E
:104E9000AB01BC0181E295E00E94A5522091E61190
:104EA0003091E7114091E8115091E911609147016B
:104EB000709148018091490190914A010E9464D902
:104EC000AB01BC018EE195E00E94A5522091EA1150
:104ED0003091EB114091EC115091ED1160914B012B
:104EE00070914C0180914D0190914E010E9464D9C6
:104EF000AB01BC018BE195E00E94A5528AE00E94C3
:104F0000DC3694C583E50E948F35882309F48EC56D
:104F10000E94E13470930B0160930A0187C58DED07
:104F200090E00E94513B811181C583E50E948F353D
:104F30008823D9F10091320710E00E94E134000F7C
:104F4000111FF801EF5BFE4F718360838091320780
:104F500090E08C01000F111F000F111F9801255CBC
:104F60003E4F7901880F991FFC01EF5BFE4F608176
:104F70007181072E000C880B990B0E948AE12AE0B0
:104F800037ED43E25CE30E94E9E1F801E252FE4EB4
:104F900020813181428153810E94E9E1D7016D93E3
:104FA0007D938D939C93139741C5EDEEFCE1849125
:104FB0008F010F5F1F4F882321F00E94DC36F8011C
:104FC000F6CF85E40E94DC3680913207805D0E9436
:104FD000DC36E0913207F0E0EE0FFF1FEF5BFE4F93
:104FE0006081718183E595E00E94C25285E20E9452
:104FF000DC368AE00E94DC3619C580E50E9448351F
:10500000882309F413C50E94E1346B017C0183E518
:105010000E948F35882321F00E94E1348B0102C069
:105020000FEF1FEFC8010196039708F0FFC4D7FCEC
:10503000FDC49C2DEBE5F5E08DE28E0F24919217D7
:1050400011F40C94B23031968E13F8CF0C948A3050
:1050500083E50E948F35882319F00E94E13402C055
:1050600064E071E079A368A380E50E948F3588230E
:1050700039F00E94E1346938B3E17B0730F402C0B3
:1050800068EE73E07A83698304C088E893E19A83C9
:105090008983BE01605E7F4FCE0101960E948F78AA
:1050A000C5C485E40E948F35811110C080E50E943F
:1050B0004835882391F00E94153560930E0C70934B
:1050C0000F0C8093100C9093110C07C00E94F134C8
:1050D000882361F3E2EDFCE16EC089E40E9448356B
:1050E000882381F00E9415352CEA35EC47E25EE317
:1050F0000E94E9E16093160C7093170C8093180CD2
:105100009093190C84E40E944835882381F00E9412
:1051100015352CEA35EC47E25EE30E945EDA6093D7
:10512000120C7093130C8093140C9093150CEDEEED
:10513000FCE184918F010F5F1F4F882321F00E94B3
:10514000DC36F801F6CF40910E0C50910F0C6091B7
:10515000100C7091110C80E995E00E94A5522CEA88
:1051600035EC47E25EE36091160C7091170C80916C
:10517000180C9091190C0E945EDAAB01BC018CE80E
:1051800095E00E94A5522CEA35EC47E25EE360917F
:10519000120C7091130C8091140C9091150C0E94BC
:1051A000E9E1AB01BC0188E895E00E94A5528AE0E4
:1051B0000E94DC363BC484918F010F5F1F4F882310
:1051C00021F00E94DC36F801F6CFE4E9F5E08491A5
:1051D0008F010F5F1F4F882309F428C40E94DC361B
:1051E000F801F5CF83E50E944835182F882371F028
:1051F0000E9415350E94D0DA7093400160933F0100
:1052000021E0672B09F020E02093E10C80E50E946B
:105210004835882359F020913F0130914001232BDC
:1052200011F00E9405358093E10C00C41111FEC3FA
:10523000EDEEFCE184918F010F5F1F4F882321F079
:105240000E94DC36F801F6CF8091E10C811103C099
:1052500064E372E002C061E272E08BEB95E00E94D1
:10526000DB5260913F01709140018AEA95E00E9413
:10527000C252E6EAF5E084918F010F5F1F4F882349
:1052800009F4D4C30E94DC36F801F5CF85E40E940E
:105290008F35882321F00E94E1347B0102C0E12C8C
:1052A000F12C83E40E948F35882331F00E94E13491
:1052B00064966FAF649704C025E064962FAF64973F
:1052C00085E50E948F35882319F00E94053503C0BB
:1052D00085E50E944835A0968FAFA097F7FC07C0E0
:1052E000812C912CF6E1AF2EF3E4BF2E06C0812C69
:1052F000912CECE8AE2EE2E4BE2E83E50E948F35C1
:10530000882321F00E9415354B015C01E114F10462
:1053100011F4109232070E9424CF2B013C01EE20A1
:1053200069F0EDE3F7E084918F010F5F1F4F882351
:1053300009F47CC30E94DC36F801F5CFE7E6F7E01C
:1053400084917F013FEFE31AF30A882321F00E9442
:10535000DC36F701F5CFC501B4010E94D0DA072E83
:10536000000C880B990B0E948AE16CA778AB8CAB80
:1053700098AFD301C201805E914BAF4FBF4FAC9647
:105380008CAF9DAFAEAFBFAFAC970E94EC718FE713
:105390008093300781E0809306016B964CAE5DAE42
:1053A0006EAE7FAE6B97A4964CAE5DAE6EAE7FAE2A
:1053B000A49767961FAE6797A8961CAE1DAE1EAE4B
:1053C0001FAEA89721961FAE219790E425969FAF18
:1053D0002597ACE12696AFAF2697B6E42796BFAFE8
:1053E000279728961FAE289729961FAE29972A96A9
:1053F0001FAE2A972B961FAE2B9763961CAE1DAE41
:105400001EAE1FAE63972F961CAE1DAE1EAE1FAE16
:105410002F97C12CD12C76012FE730E040E050E0EF
:1054200028A739A74AA75BA77FE7872E912CA12C35
:10543000B12C6F961CAE1DAE1EAE1FAE6F9731E045
:1054400066963FAF66971DAE1CAE10E0212C312C46
:1054500000E064964FAD6497042E000C550B6596E2
:105460005FAF4EAF659780910601882309F4F1C0C4
:105470000E9424CF6CA37DA38EA39FA380912F07AE
:10548000882309F4CAC00E940F721091E20C209088
:10549000E30C3090E40C0091E50C212F322D432DCC
:1054A000502F28966FAD289729967FAD29972A9679
:1054B0008FAD2A972B969FAD2B970E9483E187FF94
:1054C0000CC028961FAF289729962FAE29972A96A9
:1054D0003FAE2A972B960FAF2B97212F322D432DBE
:1054E000502F21966FAD219725967FAD2597269653
:1054F0008FAD269727969FAD27970E94C4DB18167D
:1055000064F421961FAF219725962FAE25972696F6
:105510003FAE269727960FAF279766965FAD6697A3
:105520002CA538A94CA9552309F458C058AD612FB2
:10553000722D832D902F0E94C4DB18160CF06DC0C5
:105540008CA19DA1AEA1BFA184199509A609B70997
:10555000E0968CAF9DAFAEAFBFAFE0978858934158
:10556000A109B109B7FD59C0D501C40128A539A5C4
:105570004AA55BA5821B930BA40BB50BB595A7950C
:105580009795879580933007E0968CAD9DADAEAD35
:10559000BFADE0976F968CAF9DAFAEAFBFAF6F97CB
:1055A0009CA528969FAF2897A8A92996AFAF2997C1
:1055B000BCA92A96BFAF2A97E8AD2B96EFAF2B97E1
:1055C0002CA13DA14EA15FA16B962CAF3DAF4EAF7C
:1055D0005FAF6B9766961FAE66971FC058AD612F81
:1055E000722D832D902F0E9483E187FF16C08CA11E
:1055F0009DA1AEA1BFA16B962CAD3DAD4EAD5FADF3
:105600006B97821B930BA40BB50BAC01BD014858E3
:1056100053416109710977FFA8C520E030E040EAF5
:1056200051E46CA578A98CA998AD0E9464D99B011E
:10563000AC01612F722D832D902F0E94C4DB1816B0
:105640007CF4E9ECF6E084918F010F5F1F4F81112C
:1056500003C00E94EC71EAC10E94DC36F801F3CF6E
:105660008CA19DA1AEA1BFA1A4962CAD3DAD4EAD28
:105670005FADA497821B930BA40BB50BB7FD90C035
:105680000E94676E8AE00E94DC368CA19DA1AEA1CB
:10569000BFA18053984FAF4FBF4FA4968CAF9DAF23
:1056A000AEAFBFAFA49767969FAD679791115DC0EE
:1056B000A8962CAD3DAD4EAD5FADA897612F722D74
:1056C000832D902F0E94C4DB1816D4F520E030E023
:1056D00040E050E4612F722D832D902F0E9464D9F9
:1056E000A8966CAF7DAF8EAF9FAFA8972CA13DA1C0
:1056F0004EA15FA1205E314B4F4F5F4FAC962CAF58
:105700003DAF4EAF5FAFAC9720E030E040EC50E4EF
:105710006CA578A98CA998AD0E9463D99B01AC01B6
:1057200081E067968FAF6797612F722D832D902F41
:105730000E94C4DB1816A4F167961FAE679730C0AD
:105740008CA19DA1AEA1BFA1AC962CAD3DAD4EAD3F
:105750005FADAC97821B930BA40BB50BB7FD20C0BC
:1057600048EA56E06AEB76E018C020E030E040EA14
:1057700051E46CA578A98CA998AD0E9463D99B01CE
:10578000AC01612F722D832D902F0E9483E187FF42
:1057900007C045E856E068E976E080E00E94B57A07
:1057A0008CA19DA1AEA1BFA1880F991FAA1FBB1FED
:1057B0006B962CAD3DAD4EAD5FAD6B97821B930BE1
:1057C000A40BB50B84199509A609B70981389F4424
:1057D000A241B10568F0E7E6F6E084918F010F5F22
:1057E0001F4F882309F435CF0E94DC36F801F5CF2E
:1057F0004CAD5DAD65968EAD9FAD659784179507F1
:105800000CF066C0EAE0F6E084918F010F5F1F4F55
:10581000882321F00E94DC36F801F6CFB701A601FB
:1058200086EF95E00E94A5528AE00E94DC362F9612
:105830004CAD5DAD6EAD7FAD2F9782EE95E00E94D1
:10584000A5528AE00E94DC3663964CAD5DAD6EAD2C
:105850007FAD63978EEC95E00E94A5528AE00E948E
:10586000DC36A0969FADA097992309F4DFC0C092C3
:105870000E0CD0920F0CE092100CF092110C2CEA4E
:1058800035EC47E25EE32F966CAD7DAD8EAD9FADFE
:105890002F970E94E9E16093160C7093170C809388
:1058A000180C9093190C2CEA35EC47E25EE36396F2
:1058B0006CAD7DAD8EAD9FAD63970E945EDA609357
:1058C000120C7093130C8093140C9093150CAEC0B3
:1058D0000E9481AAC8CDE2EDFCE184918F010F5FA7
:1058E0001F4F882321F00E94DC36F801F6CFEBE74A
:1058F000F7E084918F010F5F1F4F882309F496C052
:105900000E94DC36F801F5CF0E94FF8A8FC00E940A
:10591000F18A8CC083E50E944835882319F00E94E3
:10592000053581270E94615881C081E080930D0C6C
:105930000E94AB8510920D0C882309F477C0EDEE20
:10594000FCE184918F010F5F1F4F882321F00E949B
:10595000DC36F801F6CFEAE8F7E084918F010F5FBB
:105960001F4F882309F462C00E94DC36F801F5CF8E
:1059700081E0809323011092D90683E50E948F3540
:10598000882339F00E940535811150C00E9405CC52
:105990004DC083E50E944835F7CF0E94C24F46C0F4
:1059A000F09020120E94CA53FF2029F1EDEEFCE195
:1059B00084918F010F5F1F4F882321F00E94DC36F6
:1059C000F801F6CF84E50E94DC366F2D70E080E0B0
:1059D00090E04AE00E94E93A80E20E94DC36E7EA81
:1059E000F7E084918F010F5F1F4F8823F9F00E9429
:1059F000DC36F801F6CF1092CD04EDEEFCE1849197
:105A00008F010F5F1F4F882321F00E94DC36F801C1
:105A1000F6CF6091CD0470E085E997E00E94C25214
:105A20008AE00E94DC3602C00E94C24F10922F0C06
:105A30000E94889D03C50E94E134AB01BC014093E4
:105A40006E0B50936F0B6093700B7093710B8DEB1B
:105A50009AE00E945841EACF0E9415350E94D0DAA0
:105A60007093AB046093AA0480E00E94A1710E942D
:105A7000153520E030E04AEA52E40E9483E118162E
:105A80002CF00E94197D0E94E1C202C00E94CA7CD3
:105A90006091AA047091AB04072E000C880B990B3F
:105AA0000E948AE12091E20C3091E30C4091E40CD9
:105AB0005091E50C0E94C4DB181634F05CA1511122
:105AC00008C082E692E002C08FE692E060E00E94A9
:105AD00020AA0E942ED781E0809306011CA61DA655
